{
  "_format": "hh-sol-artifact-1",
  "contractName": "RobustusMusRoyaties",
  "sourceName": "contracts/ERC-721/RobustusMusRoyaties.sol",
  "abi": [
    {
      "inputs": [
        {
          "internalType": "contract ITokenDescriptor",
          "name": "newDescriptor",
          "type": "address"
        }
      ],
      "stateMutability": "nonpayable",
      "type": "constructor"
    },
    {
      "inputs": [],
      "name": "ApprovalCallerNotOwnerNorApproved",
      "type": "error"
    },
    {
      "inputs": [],
      "name": "ApprovalQueryForNonexistentToken",
      "type": "error"
    },
    {
      "inputs": [],
      "name": "BalanceQueryForZeroAddress",
      "type": "error"
    },
    {
      "inputs": [],
      "name": "MintERC2309QuantityExceedsLimit",
      "type": "error"
    },
    {
      "inputs": [],
      "name": "MintToZeroAddress",
      "type": "error"
    },
    {
      "inputs": [],
      "name": "MintZeroQuantity",
      "type": "error"
    },
    {
      "inputs": [
        {
          "internalType": "address",
          "name": "operator",
          "type": "address"
        }
      ],
      "name": "OperatorNotAllowed",
      "type": "error"
    },
    {
      "inputs": [],
      "name": "OwnerQueryForNonexistentToken",
      "type": "error"
    },
    {
      "inputs": [],
      "name": "OwnershipNotInitializedForExtraData",
      "type": "error"
    },
    {
      "inputs": [],
      "name": "TransferCallerNotOwnerNorApproved",
      "type": "error"
    },
    {
      "inputs": [],
      "name": "TransferFromIncorrectOwner",
      "type": "error"
    },
    {
      "inputs": [],
      "name": "TransferToNonERC721ReceiverImplementer",
      "type": "error"
    },
    {
      "inputs": [],
      "name": "TransferToZeroAddress",
      "type": "error"
    },
    {
      "inputs": [],
      "name": "URIQueryForNonexistentToken",
      "type": "error"
    },
    {
      "anonymous": false,
      "inputs": [
        {
          "indexed": true,
          "internalType": "address",
          "name": "owner",
          "type": "address"
        },
        {
          "indexed": true,
          "internalType": "address",
          "name": "approved",
          "type": "address"
        },
        {
          "indexed": true,
          "internalType": "uint256",
          "name": "tokenId",
          "type": "uint256"
        }
      ],
      "name": "Approval",
      "type": "event"
    },
    {
      "anonymous": false,
      "inputs": [
        {
          "indexed": true,
          "internalType": "address",
          "name": "owner",
          "type": "address"
        },
        {
          "indexed": true,
          "internalType": "address",
          "name": "operator",
          "type": "address"
        },
        {
          "indexed": false,
          "internalType": "bool",
          "name": "approved",
          "type": "bool"
        }
      ],
      "name": "ApprovalForAll",
      "type": "event"
    },
    {
      "anonymous": false,
      "inputs": [
        {
          "indexed": true,
          "internalType": "uint256",
          "name": "fromTokenId",
          "type": "uint256"
        },
        {
          "indexed": false,
          "internalType": "uint256",
          "name": "toTokenId",
          "type": "uint256"
        },
        {
          "indexed": true,
          "internalType": "address",
          "name": "from",
          "type": "address"
        },
        {
          "indexed": true,
          "internalType": "address",
          "name": "to",
          "type": "address"
        }
      ],
      "name": "ConsecutiveTransfer",
      "type": "event"
    },
    {
      "anonymous": false,
      "inputs": [
        {
          "indexed": true,
          "internalType": "address",
          "name": "previousOwner",
          "type": "address"
        },
        {
          "indexed": true,
          "internalType": "address",
          "name": "newOwner",
          "type": "address"
        }
      ],
      "name": "OwnershipTransferred",
      "type": "event"
    },
    {
      "anonymous": false,
      "inputs": [
        {
          "indexed": true,
          "internalType": "uint256",
          "name": "tokenId",
          "type": "uint256"
        },
        {
          "indexed": false,
          "internalType": "uint256",
          "name": "seed",
          "type": "uint256"
        }
      ],
      "name": "SeedUpdated",
      "type": "event"
    },
    {
      "anonymous": false,
      "inputs": [
        {
          "indexed": true,
          "internalType": "address",
          "name": "from",
          "type": "address"
        },
        {
          "indexed": true,
          "internalType": "address",
          "name": "to",
          "type": "address"
        },
        {
          "indexed": true,
          "internalType": "uint256",
          "name": "tokenId",
          "type": "uint256"
        }
      ],
      "name": "Transfer",
      "type": "event"
    },
    {
      "inputs": [],
      "name": "OPERATOR_FILTER_REGISTRY",
      "outputs": [
        {
          "internalType": "contract IOperatorFilterRegistry",
          "name": "",
          "type": "address"
        }
      ],
      "stateMutability": "view",
      "type": "function"
    },
    {
      "inputs": [
        {
          "internalType": "address[]",
          "name": "_receiver",
          "type": "address[]"
        },
        {
          "internalType": "uint256",
          "name": "_amount",
          "type": "uint256"
        }
      ],
      "name": "airdrop",
      "outputs": [],
      "stateMutability": "nonpayable",
      "type": "function"
    },
    {
      "inputs": [
        {
          "internalType": "address",
          "name": "to",
          "type": "address"
        },
        {
          "internalType": "uint256",
          "name": "tokenId",
          "type": "uint256"
        }
      ],
      "name": "approve",
      "outputs": [],
      "stateMutability": "payable",
      "type": "function"
    },
    {
      "inputs": [
        {
          "internalType": "address",
          "name": "owner",
          "type": "address"
        }
      ],
      "name": "balanceOf",
      "outputs": [
        {
          "internalType": "uint256",
          "name": "",
          "type": "uint256"
        }
      ],
      "stateMutability": "view",
      "type": "function"
    },
    {
      "inputs": [],
      "name": "beneficiaryAddr",
      "outputs": [
        {
          "internalType": "address",
          "name": "",
          "type": "address"
        }
      ],
      "stateMutability": "view",
      "type": "function"
    },
    {
      "inputs": [],
      "name": "descriptor",
      "outputs": [
        {
          "internalType": "contract ITokenDescriptor",
          "name": "",
          "type": "address"
        }
      ],
      "stateMutability": "view",
      "type": "function"
    },
    {
      "inputs": [],
      "name": "disableSeedUpdate",
      "outputs": [],
      "stateMutability": "nonpayable",
      "type": "function"
    },
    {
      "inputs": [],
      "name": "feeNumerator",
      "outputs": [
        {
          "internalType": "uint256",
          "name": "",
          "type": "uint256"
        }
      ],
      "stateMutability": "view",
      "type": "function"
    },
    {
      "inputs": [
        {
          "internalType": "uint256",
          "name": "tokenId",
          "type": "uint256"
        }
      ],
      "name": "getApproved",
      "outputs": [
        {
          "internalType": "address",
          "name": "",
          "type": "address"
        }
      ],
      "stateMutability": "view",
      "type": "function"
    },
    {
      "inputs": [
        {
          "internalType": "uint256",
          "name": "tokenId",
          "type": "uint256"
        }
      ],
      "name": "getSeed",
      "outputs": [
        {
          "internalType": "uint256",
          "name": "",
          "type": "uint256"
        }
      ],
      "stateMutability": "view",
      "type": "function"
    },
    {
      "inputs": [],
      "name": "getmintCount",
      "outputs": [
        {
          "internalType": "uint256",
          "name": "",
          "type": "uint256"
        }
      ],
      "stateMutability": "view",
      "type": "function"
    },
    {
      "inputs": [
        {
          "internalType": "address",
          "name": "owner",
          "type": "address"
        },
        {
          "internalType": "address",
          "name": "operator",
          "type": "address"
        }
      ],
      "name": "isApprovedForAll",
      "outputs": [
        {
          "internalType": "bool",
          "name": "",
          "type": "bool"
        }
      ],
      "stateMutability": "view",
      "type": "function"
    },
    {
      "inputs": [],
      "name": "maxMintAmountPerTx",
      "outputs": [
        {
          "internalType": "uint256",
          "name": "",
          "type": "uint256"
        }
      ],
      "stateMutability": "view",
      "type": "function"
    },
    {
      "inputs": [],
      "name": "maxSupply",
      "outputs": [
        {
          "internalType": "uint256",
          "name": "",
          "type": "uint256"
        }
      ],
      "stateMutability": "view",
      "type": "function"
    },
    {
      "inputs": [
        {
          "internalType": "uint256",
          "name": "_mintAmount",
          "type": "uint256"
        }
      ],
      "name": "mint",
      "outputs": [],
      "stateMutability": "payable",
      "type": "function"
    },
    {
      "inputs": [],
      "name": "mintCost",
      "outputs": [
        {
          "internalType": "uint256",
          "name": "",
          "type": "uint256"
        }
      ],
      "stateMutability": "view",
      "type": "function"
    },
    {
      "inputs": [
        {
          "internalType": "address",
          "name": "",
          "type": "address"
        }
      ],
      "name": "mintCount",
      "outputs": [
        {
          "internalType": "uint256",
          "name": "",
          "type": "uint256"
        }
      ],
      "stateMutability": "view",
      "type": "function"
    },
    {
      "inputs": [],
      "name": "minting",
      "outputs": [
        {
          "internalType": "bool",
          "name": "",
          "type": "bool"
        }
      ],
      "stateMutability": "view",
      "type": "function"
    },
    {
      "inputs": [],
      "name": "name",
      "outputs": [
        {
          "internalType": "string",
          "name": "",
          "type": "string"
        }
      ],
      "stateMutability": "view",
      "type": "function"
    },
    {
      "inputs": [],
      "name": "owner",
      "outputs": [
        {
          "internalType": "address",
          "name": "",
          "type": "address"
        }
      ],
      "stateMutability": "view",
      "type": "function"
    },
    {
      "inputs": [
        {
          "internalType": "uint256",
          "name": "tokenId",
          "type": "uint256"
        }
      ],
      "name": "ownerOf",
      "outputs": [
        {
          "internalType": "address",
          "name": "",
          "type": "address"
        }
      ],
      "stateMutability": "view",
      "type": "function"
    },
    {
      "inputs": [],
      "name": "renounceOwnership",
      "outputs": [],
      "stateMutability": "nonpayable",
      "type": "function"
    },
    {
      "inputs": [
        {
          "internalType": "uint256",
          "name": "tokenId",
          "type": "uint256"
        },
        {
          "internalType": "uint256",
          "name": "salePrice",
          "type": "uint256"
        }
      ],
      "name": "royaltyInfo",
      "outputs": [
        {
          "internalType": "address",
          "name": "receiver",
          "type": "address"
        },
        {
          "internalType": "uint256",
          "name": "royaltyAmount",
          "type": "uint256"
        }
      ],
      "stateMutability": "view",
      "type": "function"
    },
    {
      "inputs": [
        {
          "internalType": "address",
          "name": "from",
          "type": "address"
        },
        {
          "internalType": "address",
          "name": "to",
          "type": "address"
        },
        {
          "internalType": "uint256",
          "name": "tokenId",
          "type": "uint256"
        }
      ],
      "name": "safeTransferFrom",
      "outputs": [],
      "stateMutability": "payable",
      "type": "function"
    },
    {
      "inputs": [
        {
          "internalType": "address",
          "name": "from",
          "type": "address"
        },
        {
          "internalType": "address",
          "name": "to",
          "type": "address"
        },
        {
          "internalType": "uint256",
          "name": "tokenId",
          "type": "uint256"
        },
        {
          "internalType": "bytes",
          "name": "data",
          "type": "bytes"
        }
      ],
      "name": "safeTransferFrom",
      "outputs": [],
      "stateMutability": "payable",
      "type": "function"
    },
    {
      "inputs": [
        {
          "internalType": "address",
          "name": "operator",
          "type": "address"
        },
        {
          "internalType": "bool",
          "name": "approved",
          "type": "bool"
        }
      ],
      "name": "setApprovalForAll",
      "outputs": [],
      "stateMutability": "nonpayable",
      "type": "function"
    },
    {
      "inputs": [
        {
          "internalType": "contract ITokenDescriptor",
          "name": "newDescriptor",
          "type": "address"
        }
      ],
      "name": "setDescriptor",
      "outputs": [],
      "stateMutability": "nonpayable",
      "type": "function"
    },
    {
      "inputs": [
        {
          "internalType": "bool",
          "name": "value",
          "type": "bool"
        }
      ],
      "name": "setMinting",
      "outputs": [],
      "stateMutability": "nonpayable",
      "type": "function"
    },
    {
      "inputs": [
        {
          "internalType": "bytes4",
          "name": "interfaceId",
          "type": "bytes4"
        }
      ],
      "name": "supportsInterface",
      "outputs": [
        {
          "internalType": "bool",
          "name": "",
          "type": "bool"
        }
      ],
      "stateMutability": "view",
      "type": "function"
    },
    {
      "inputs": [],
      "name": "symbol",
      "outputs": [
        {
          "internalType": "string",
          "name": "",
          "type": "string"
        }
      ],
      "stateMutability": "view",
      "type": "function"
    },
    {
      "inputs": [
        {
          "internalType": "uint256",
          "name": "tokenId",
          "type": "uint256"
        }
      ],
      "name": "tokenURI",
      "outputs": [
        {
          "internalType": "string",
          "name": "",
          "type": "string"
        }
      ],
      "stateMutability": "view",
      "type": "function"
    },
    {
      "inputs": [],
      "name": "totalSupply",
      "outputs": [
        {
          "internalType": "uint256",
          "name": "",
          "type": "uint256"
        }
      ],
      "stateMutability": "view",
      "type": "function"
    },
    {
      "inputs": [
        {
          "internalType": "address",
          "name": "from",
          "type": "address"
        },
        {
          "internalType": "address",
          "name": "to",
          "type": "address"
        },
        {
          "internalType": "uint256",
          "name": "tokenId",
          "type": "uint256"
        }
      ],
      "name": "transferFrom",
      "outputs": [],
      "stateMutability": "payable",
      "type": "function"
    },
    {
      "inputs": [
        {
          "internalType": "address",
          "name": "newOwner",
          "type": "address"
        }
      ],
      "name": "transferOwnership",
      "outputs": [],
      "stateMutability": "nonpayable",
      "type": "function"
    },
    {
      "inputs": [],
      "name": "updatableSeed",
      "outputs": [
        {
          "internalType": "bool",
          "name": "",
          "type": "bool"
        }
      ],
      "stateMutability": "view",
      "type": "function"
    },
    {
      "inputs": [
        {
          "internalType": "uint256",
          "name": "_royalties",
          "type": "uint256"
        }
      ],
      "name": "updateRoyalties",
      "outputs": [],
      "stateMutability": "nonpayable",
      "type": "function"
    },
    {
      "inputs": [
        {
          "internalType": "uint256",
          "name": "tokenId",
          "type": "uint256"
        },
        {
          "internalType": "uint256",
          "name": "seed",
          "type": "uint256"
        }
      ],
      "name": "updateSeed",
      "outputs": [],
      "stateMutability": "nonpayable",
      "type": "function"
    }
  ],
  "bytecode": "0x608060405266470de4df820000600d55615208600e55600a600f55600a60105560056011556001601260006101000a81548160ff0219169083151502179055506001601260016101000a81548160ff0219169083151502179055503480156200006757600080fd5b50604051620045743803806200457483398181016040528101906200008d91906200057e565b733cc6cdda760b79bafa08df41ecfa224f810dceb660016040518060400160405280601381526020017f526f6275737475734d7573526f796174696573000000000000000000000000008152506040518060400160405280600381526020017f524d52000000000000000000000000000000000000000000000000000000000081525081600290816200012191906200082a565b5080600390816200013391906200082a565b50620001446200040360201b60201c565b600081905550505060006daaeb6d7670e522a718067333cd4e73ffffffffffffffffffffffffffffffffffffffff163b11156200034157801562000207576daaeb6d7670e522a718067333cd4e73ffffffffffffffffffffffffffffffffffffffff16637d3e3dbe30846040518363ffffffff1660e01b8152600401620001cd92919062000922565b600060405180830381600087803b158015620001e857600080fd5b505af1158015620001fd573d6000803e3d6000fd5b5050505062000340565b600073ffffffffffffffffffffffffffffffffffffffff168273ffffffffffffffffffffffffffffffffffffffff1614620002c1576daaeb6d7670e522a718067333cd4e73ffffffffffffffffffffffffffffffffffffffff1663a0af290330846040518363ffffffff1660e01b81526004016200028792919062000922565b600060405180830381600087803b158015620002a257600080fd5b505af1158015620002b7573d6000803e3d6000fd5b505050506200033f565b6daaeb6d7670e522a718067333cd4e73ffffffffffffffffffffffffffffffffffffffff16634420e486306040518263ffffffff1660e01b81526004016200030a91906200094f565b600060405180830381600087803b1580156200032557600080fd5b505af11580156200033a573d6000803e3d6000fd5b505050505b5b5b505062000363620003576200040860201b60201c565b6200041060201b60201c565b60016009819055506200037b620004d660201b60201c565b601260026101000a81548173ffffffffffffffffffffffffffffffffffffffff021916908373ffffffffffffffffffffffffffffffffffffffff16021790555080600c60006101000a81548173ffffffffffffffffffffffffffffffffffffffff021916908373ffffffffffffffffffffffffffffffffffffffff160217905550506200096c565b600090565b600033905090565b6000600860009054906101000a900473ffffffffffffffffffffffffffffffffffffffff16905081600860006101000a81548173ffffffffffffffffffffffffffffffffffffffff021916908373ffffffffffffffffffffffffffffffffffffffff1602179055508173ffffffffffffffffffffffffffffffffffffffff168173ffffffffffffffffffffffffffffffffffffffff167f8be0079c531659141344cd1fd0a4f28419497f9722a3daafe3b4186f6b6457e060405160405180910390a35050565b6000600860009054906101000a900473ffffffffffffffffffffffffffffffffffffffff16905090565b600080fd5b600073ffffffffffffffffffffffffffffffffffffffff82169050919050565b6000620005328262000505565b9050919050565b6000620005468262000525565b9050919050565b620005588162000539565b81146200056457600080fd5b50565b60008151905062000578816200054d565b92915050565b60006020828403121562000597576200059662000500565b5b6000620005a78482850162000567565b91505092915050565b600081519050919050565b7f4e487b7100000000000000000000000000000000000000000000000000000000600052604160045260246000fd5b7f4e487b7100000000000000000000000000000000000000000000000000000000600052602260045260246000fd5b600060028204905060018216806200063257607f821691505b602082108103620006485762000647620005ea565b5b50919050565b60008190508160005260206000209050919050565b60006020601f8301049050919050565b600082821b905092915050565b600060088302620006b27fffffffffffffffffffffffffffffffffffffffffffffffffffffffffffffffff8262000673565b620006be868362000673565b95508019841693508086168417925050509392505050565b6000819050919050565b6000819050919050565b60006200070b62000705620006ff84620006d6565b620006e0565b620006d6565b9050919050565b6000819050919050565b6200072783620006ea565b6200073f620007368262000712565b84845462000680565b825550505050565b600090565b6200075662000747565b620007638184846200071c565b505050565b5b818110156200078b576200077f6000826200074c565b60018101905062000769565b5050565b601f821115620007da57620007a4816200064e565b620007af8462000663565b81016020851015620007bf578190505b620007d7620007ce8562000663565b83018262000768565b50505b505050565b600082821c905092915050565b6000620007ff60001984600802620007df565b1980831691505092915050565b60006200081a8383620007ec565b9150826002028217905092915050565b6200083582620005b0565b67ffffffffffffffff811115620008515762000850620005bb565b5b6200085d825462000619565b6200086a8282856200078f565b600060209050601f831160018114620008a257600084156200088d578287015190505b6200089985826200080c565b86555062000909565b601f198416620008b2866200064e565b60005b82811015620008dc57848901518255600182019150602085019450602081019050620008b5565b86831015620008fc5784890151620008f8601f891682620007ec565b8355505b6001600288020188555050505b505050505050565b6200091c8162000525565b82525050565b600060408201905062000939600083018562000911565b62000948602083018462000911565b9392505050565b600060208201905062000966600083018462000911565b92915050565b613bf8806200097c6000396000f3fe60806040526004361061021a5760003560e01c80637dc2268c11610123578063b9e9aec1116100ab578063e0d4ea371161006f578063e0d4ea371461076d578063e86dea4a146107aa578063e985e9c5146107d5578063ed9ec88814610812578063f2fde38b1461084f5761021a565b8063b9e9aec114610686578063bdb4b848146106b1578063c204642c146106dc578063c87b56dd14610705578063d5abeb01146107425761021a565b80639658730b116100f25780639658730b146105d3578063a0712d68146105fc578063a22cb46514610618578063b4c7f06614610641578063b88d4fde1461066a5761021a565b80637dc2268c146105275780638da5cb5b1461055257806394354fd01461057d57806395d89b41146105a85761021a565b8063303e74df116101a65780635619f443116101755780635619f44314610440578063628767031461046b5780636352211e1461049657806370a08231146104d3578063715018a6146105105761021a565b8063303e74df146103b75780633bb2c938146103e257806341f43434146103f957806342842e0e146104245761021a565b8063095ea7b3116101ed578063095ea7b3146102ed578063176b72b41461030957806318160ddd1461033257806323b872dd1461035d5780632a55205a146103795761021a565b806301b9a3971461021f57806301ffc9a71461024857806306fdde0314610285578063081812fc146102b0575b600080fd5b34801561022b57600080fd5b5061024660048036038101906102419190612961565b610878565b005b34801561025457600080fd5b5061026f600480360381019061026a91906129e6565b6108c4565b60405161027c9190612a2e565b60405180910390f35b34801561029157600080fd5b5061029a610956565b6040516102a79190612ad9565b60405180910390f35b3480156102bc57600080fd5b506102d760048036038101906102d29190612b31565b6109e8565b6040516102e49190612b6d565b60405180910390f35b61030760048036038101906103029190612bb4565b610a67565b005b34801561031557600080fd5b50610330600480360381019061032b9190612bf4565b610bab565b005b34801561033e57600080fd5b50610347610c56565b6040516103549190612c43565b60405180910390f35b61037760048036038101906103729190612c5e565b610c6d565b005b34801561038557600080fd5b506103a0600480360381019061039b9190612bf4565b610cbc565b6040516103ae929190612cb1565b60405180910390f35b3480156103c357600080fd5b506103cc610cec565b6040516103d99190612d39565b60405180910390f35b3480156103ee57600080fd5b506103f7610d12565b005b34801561040557600080fd5b5061040e610d37565b60405161041b9190612d75565b60405180910390f35b61043e60048036038101906104399190612c5e565b610d49565b005b34801561044c57600080fd5b50610455610d98565b6040516104629190612c43565b60405180910390f35b34801561047757600080fd5b50610480610ddf565b60405161048d9190612a2e565b60405180910390f35b3480156104a257600080fd5b506104bd60048036038101906104b89190612b31565b610df2565b6040516104ca9190612b6d565b60405180910390f35b3480156104df57600080fd5b506104fa60048036038101906104f59190612d90565b610e04565b6040516105079190612c43565b60405180910390f35b34801561051c57600080fd5b50610525610ebc565b005b34801561053357600080fd5b5061053c610ed0565b6040516105499190612a2e565b60405180910390f35b34801561055e57600080fd5b50610567610ee3565b6040516105749190612b6d565b60405180910390f35b34801561058957600080fd5b50610592610f0d565b60405161059f9190612c43565b60405180910390f35b3480156105b457600080fd5b506105bd610f13565b6040516105ca9190612ad9565b60405180910390f35b3480156105df57600080fd5b506105fa60048036038101906105f59190612b31565b610fa5565b005b61061660048036038101906106119190612b31565b610fb7565b005b34801561062457600080fd5b5061063f600480360381019061063a9190612de9565b61145c565b005b34801561064d57600080fd5b5061066860048036038101906106639190612e29565b611567565b005b610684600480360381019061067f9190612f8b565b61158c565b005b34801561069257600080fd5b5061069b6115dd565b6040516106a89190612b6d565b60405180910390f35b3480156106bd57600080fd5b506106c6611603565b6040516106d39190612c43565b60405180910390f35b3480156106e857600080fd5b5061070360048036038101906106fe91906130d6565b611609565b005b34801561071157600080fd5b5061072c60048036038101906107279190612b31565b6116dd565b6040516107399190612ad9565b60405180910390f35b34801561074e57600080fd5b506107576117ea565b6040516107649190612c43565b60405180910390f35b34801561077957600080fd5b50610794600480360381019061078f9190612b31565b6117f0565b6040516107a19190612c43565b60405180910390f35b3480156107b657600080fd5b506107bf611855565b6040516107cc9190612c43565b60405180910390f35b3480156107e157600080fd5b506107fc60048036038101906107f79190613132565b61185b565b6040516108099190612a2e565b60405180910390f35b34801561081e57600080fd5b5061083960048036038101906108349190612d90565b6118ef565b6040516108469190612c43565b60405180910390f35b34801561085b57600080fd5b5061087660048036038101906108719190612d90565b611907565b005b61088061198a565b80600c60006101000a81548173ffffffffffffffffffffffffffffffffffffffff021916908373ffffffffffffffffffffffffffffffffffffffff16021790555050565b60006301ffc9a760e01b827bffffffffffffffffffffffffffffffffffffffffffffffffffffffff1916148061091f57506380ac58cd60e01b827bffffffffffffffffffffffffffffffffffffffffffffffffffffffff1916145b8061094f5750635b5e139f60e01b827bffffffffffffffffffffffffffffffffffffffffffffffffffffffff1916145b9050919050565b606060028054610965906131a1565b80601f0160208091040260200160405190810160405280929190818152602001828054610991906131a1565b80156109de5780601f106109b3576101008083540402835291602001916109de565b820191906000526020600020905b8154815290600101906020018083116109c157829003601f168201915b5050505050905090565b60006109f382611a08565b610a29576040517fcf4700e400000000000000000000000000000000000000000000000000000000815260040160405180910390fd5b6006600083815260200190815260200160002060000160009054906101000a900473ffffffffffffffffffffffffffffffffffffffff169050919050565b6000610a7282610df2565b90508073ffffffffffffffffffffffffffffffffffffffff16610a93611a67565b73ffffffffffffffffffffffffffffffffffffffff1614610af657610abf81610aba611a67565b61185b565b610af5576040517fcfb3b94200000000000000000000000000000000000000000000000000000000815260040160405180910390fd5b5b826006600084815260200190815260200160002060000160006101000a81548173ffffffffffffffffffffffffffffffffffffffff021916908373ffffffffffffffffffffffffffffffffffffffff160217905550818373ffffffffffffffffffffffffffffffffffffffff168273ffffffffffffffffffffffffffffffffffffffff167f8c5be1e5ebec7d5bd14f71427d1e84f3dd0314c0f7b2291e5b200ac8c7c3b92560405160405180910390a4505050565b610bb361198a565b601260019054906101000a900460ff16610c02576040517f08c379a0000000000000000000000000000000000000000000000000000000008152600401610bf99061321e565b60405180910390fd5b80600a600084815260200190815260200160002081905550817faabfe5e8bccf1a1352f72b557ce580211305c37f88d5783ae467a1ba5e0761e082604051610c4a9190612c43565b60405180910390a25050565b6000610c60611a6f565b6001546000540303905090565b823373ffffffffffffffffffffffffffffffffffffffff168173ffffffffffffffffffffffffffffffffffffffff1614610cab57610caa33611a74565b5b610cb6848484611b71565b50505050565b600080610cc7610ee3565b9150606483601154610cd9919061326d565b610ce391906132de565b90509250929050565b600c60009054906101000a900473ffffffffffffffffffffffffffffffffffffffff1681565b610d1a61198a565b6000601260016101000a81548160ff021916908315150217905550565b6daaeb6d7670e522a718067333cd4e81565b823373ffffffffffffffffffffffffffffffffffffffff168173ffffffffffffffffffffffffffffffffffffffff1614610d8757610d8633611a74565b5b610d92848484611e93565b50505050565b6000600b60003373ffffffffffffffffffffffffffffffffffffffff1673ffffffffffffffffffffffffffffffffffffffff16815260200190815260200160002054905090565b601260019054906101000a900460ff1681565b6000610dfd82611eb3565b9050919050565b60008073ffffffffffffffffffffffffffffffffffffffff168273ffffffffffffffffffffffffffffffffffffffff1603610e6b576040517f8f4eb60400000000000000000000000000000000000000000000000000000000815260040160405180910390fd5b67ffffffffffffffff600560008473ffffffffffffffffffffffffffffffffffffffff1673ffffffffffffffffffffffffffffffffffffffff16815260200190815260200160002054169050919050565b610ec461198a565b610ece6000611f7f565b565b601260009054906101000a900460ff1681565b6000600860009054906101000a900473ffffffffffffffffffffffffffffffffffffffff16905090565b600f5481565b606060038054610f22906131a1565b80601f0160208091040260200160405190810160405280929190818152602001828054610f4e906131a1565b8015610f9b5780601f10610f7057610100808354040283529160200191610f9b565b820191906000526020600020905b815481529060010190602001808311610f7e57829003601f168201915b5050505050905090565b610fad61198a565b8060118190555050565b3373ffffffffffffffffffffffffffffffffffffffff163273ffffffffffffffffffffffffffffffffffffffff1614611025576040517f08c379a000000000000000000000000000000000000000000000000000000000815260040161101c9061335b565b60405180910390fd5b803373ffffffffffffffffffffffffffffffffffffffff163273ffffffffffffffffffffffffffffffffffffffff1614611094576040517f08c379a000000000000000000000000000000000000000000000000000000000815260040161108b9061335b565b60405180910390fd5b601260009054906101000a900460ff166110e3576040517f08c379a00000000000000000000000000000000000000000000000000000000081526004016110da906133c7565b60405180910390fd5b81600d546110f1919061326d565b341015611133576040517f08c379a000000000000000000000000000000000000000000000000000000000815260040161112a90613433565b60405180910390fd5b60105482600b60003373ffffffffffffffffffffffffffffffffffffffff1673ffffffffffffffffffffffffffffffffffffffff168152602001908152602001600020546111819190613453565b11156111c2576040517f08c379a00000000000000000000000000000000000000000000000000000000081526004016111b9906134d3565b60405180910390fd5b6111cc3383612045565b81600b60003373ffffffffffffffffffffffffffffffffffffffff1673ffffffffffffffffffffffffffffffffffffffff168152602001908152602001600020600082825461121b9190613453565b925050819055506000811180156112345750600f548111155b611273576040517f08c379a000000000000000000000000000000000000000000000000000000000815260040161126a9061353f565b60405180910390fd5b600e548161127f610c56565b6112899190613453565b11156112ca576040517f08c379a00000000000000000000000000000000000000000000000000000000081526004016112c1906135ab565b60405180910390fd5b601260009054906101000a900460ff16611319576040517f08c379a0000000000000000000000000000000000000000000000000000000008152600401611310906133c7565b60405180910390fd5b81600d54611327919061326d565b341015611369576040517f08c379a000000000000000000000000000000000000000000000000000000000815260040161136090613433565b60405180910390fd5b60105482600b60003373ffffffffffffffffffffffffffffffffffffffff1673ffffffffffffffffffffffffffffffffffffffff168152602001908152602001600020546113b79190613453565b11156113f8576040517f08c379a00000000000000000000000000000000000000000000000000000000081526004016113ef906134d3565b60405180910390fd5b6114023383612045565b81600b60003373ffffffffffffffffffffffffffffffffffffffff1673ffffffffffffffffffffffffffffffffffffffff16815260200190815260200160002060008282546114519190613453565b925050819055505050565b8060076000611469611a67565b73ffffffffffffffffffffffffffffffffffffffff1673ffffffffffffffffffffffffffffffffffffffff16815260200190815260200160002060008473ffffffffffffffffffffffffffffffffffffffff1673ffffffffffffffffffffffffffffffffffffffff16815260200190815260200160002060006101000a81548160ff0219169083151502179055508173ffffffffffffffffffffffffffffffffffffffff16611516611a67565b73ffffffffffffffffffffffffffffffffffffffff167f17307eab39ab6107e8899845ad3d59bd9653f200f220920489ca2b5937696c318360405161155b9190612a2e565b60405180910390a35050565b61156f61198a565b80601260006101000a81548160ff02191690831515021790555050565b833373ffffffffffffffffffffffffffffffffffffffff168173ffffffffffffffffffffffffffffffffffffffff16146115ca576115c933611a74565b5b6115d68585858561216f565b5050505050565b601260029054906101000a900473ffffffffffffffffffffffffffffffffffffffff1681565b600d5481565b61161161198a565b6116196121e2565b6000825182611628919061326d565b90506000611634610c56565b9050600081111561164e5760018161164c9190613453565b505b60005b84518110156116915761167e8582815181106116705761166f6135cb565b5b602002602001015185612231565b8080611689906135fa565b915050611651565b5060005b828110156116ce576116a68261224f565b600a600084815260200190815260200160002081905550816001019150806001019050611695565b5050506116d96123fe565b5050565b60606116e882611a08565b611727576040517f08c379a000000000000000000000000000000000000000000000000000000000815260040161171e9061368e565b60405180910390fd5b6000600a6000848152602001908152602001600020549050600c60009054906101000a900473ffffffffffffffffffffffffffffffffffffffff1673ffffffffffffffffffffffffffffffffffffffff166392cb829d84836040518363ffffffff1660e01b815260040161179c9291906136ae565b600060405180830381865afa1580156117b9573d6000803e3d6000fd5b505050506040513d6000823e3d601f19601f820116820180604052508101906117e29190613778565b915050919050565b600e5481565b60006117fb82611a08565b61183a576040517f08c379a00000000000000000000000000000000000000000000000000000000081526004016118319061368e565b60405180910390fd5b600a6000838152602001908152602001600020549050919050565b60115481565b6000600760008473ffffffffffffffffffffffffffffffffffffffff1673ffffffffffffffffffffffffffffffffffffffff16815260200190815260200160002060008373ffffffffffffffffffffffffffffffffffffffff1673ffffffffffffffffffffffffffffffffffffffff16815260200190815260200160002060009054906101000a900460ff16905092915050565b600b6020528060005260406000206000915090505481565b61190f61198a565b600073ffffffffffffffffffffffffffffffffffffffff168173ffffffffffffffffffffffffffffffffffffffff160361197e576040517f08c379a000000000000000000000000000000000000000000000000000000000815260040161197590613833565b60405180910390fd5b61198781611f7f565b50565b611992612408565b73ffffffffffffffffffffffffffffffffffffffff166119b0610ee3565b73ffffffffffffffffffffffffffffffffffffffff1614611a06576040517f08c379a00000000000000000000000000000000000000000000000000000000081526004016119fd9061389f565b60405180910390fd5b565b600081611a13611a6f565b11158015611a22575060005482105b8015611a60575060007c0100000000000000000000000000000000000000000000000000000000600460008581526020019081526020016000205416145b9050919050565b600033905090565b600090565b60006daaeb6d7670e522a718067333cd4e73ffffffffffffffffffffffffffffffffffffffff163b1115611b6e576daaeb6d7670e522a718067333cd4e73ffffffffffffffffffffffffffffffffffffffff1663c617113430836040518363ffffffff1660e01b8152600401611aeb9291906138bf565b602060405180830381865afa158015611b08573d6000803e3d6000fd5b505050506040513d601f19601f82011682018060405250810190611b2c91906138fd565b611b6d57806040517fede71dcc000000000000000000000000000000000000000000000000000000008152600401611b649190612b6d565b60405180910390fd5b5b50565b6000611b7c82611eb3565b90508373ffffffffffffffffffffffffffffffffffffffff168173ffffffffffffffffffffffffffffffffffffffff1614611be3576040517fa114810000000000000000000000000000000000000000000000000000000000815260040160405180910390fd5b600080611bef84612410565b91509150611c058187611c00611a67565b612437565b611c5157611c1a86611c15611a67565b61185b565b611c50576040517f59c896be00000000000000000000000000000000000000000000000000000000815260040160405180910390fd5b5b600073ffffffffffffffffffffffffffffffffffffffff168573ffffffffffffffffffffffffffffffffffffffff1603611cb7576040517fea553b3400000000000000000000000000000000000000000000000000000000815260040160405180910390fd5b611cc4868686600161247b565b8015611ccf57600082555b600560008773ffffffffffffffffffffffffffffffffffffffff1673ffffffffffffffffffffffffffffffffffffffff168152602001908152602001600020600081546001900391905081905550600560008673ffffffffffffffffffffffffffffffffffffffff1673ffffffffffffffffffffffffffffffffffffffff1681526020019081526020016000206000815460010191905081905550611d9d85611d79888887612481565b7c0200000000000000000000000000000000000000000000000000000000176124a9565b600460008681526020019081526020016000208190555060007c0200000000000000000000000000000000000000000000000000000000841603611e235760006001850190506000600460008381526020019081526020016000205403611e21576000548114611e20578360046000838152602001908152602001600020819055505b5b505b838573ffffffffffffffffffffffffffffffffffffffff168773ffffffffffffffffffffffffffffffffffffffff167fddf252ad1be2c89b69c2b068fc378daa952ba7f163c4a11628f55a4df523b3ef60405160405180910390a4611e8b86868660016124d4565b505050505050565b611eae8383836040518060200160405280600081525061158c565b505050565b60008082905080611ec2611a6f565b11611f4857600054811015611f475760006004600083815260200190815260200160002054905060007c0100000000000000000000000000000000000000000000000000000000821603611f45575b60008103611f3b576004600083600190039350838152602001908152602001600020549050611f11565b8092505050611f7a565b505b5b6040517fdf2d9b4200000000000000000000000000000000000000000000000000000000815260040160405180910390fd5b919050565b6000600860009054906101000a900473ffffffffffffffffffffffffffffffffffffffff16905081600860006101000a81548173ffffffffffffffffffffffffffffffffffffffff021916908373ffffffffffffffffffffffffffffffffffffffff1602179055508173ffffffffffffffffffffffffffffffffffffffff168173ffffffffffffffffffffffffffffffffffffffff167f8be0079c531659141344cd1fd0a4f28419497f9722a3daafe3b4186f6b6457e060405160405180910390a35050565b600061204f610c56565b90506000811115612069576001816120679190613453565b505b600e5482820111156120b0576040517f08c379a00000000000000000000000000000000000000000000000000000000081526004016120a790613976565b60405180910390fd5b60005b828110156120ec576120c48261224f565b600a6000848152602001908152602001600020819055508160010191508060010190506120b3565b506120f78383612231565b600047111561216a57601260029054906101000a900473ffffffffffffffffffffffffffffffffffffffff1673ffffffffffffffffffffffffffffffffffffffff166108fc479081150290604051600060405180830381858888f19350505050158015612168573d6000803e3d6000fd5b505b505050565b61217a848484610c6d565b60008373ffffffffffffffffffffffffffffffffffffffff163b146121dc576121a5848484846124da565b6121db576040517fd1a57ed600000000000000000000000000000000000000000000000000000000815260040160405180910390fd5b5b50505050565b600260095403612227576040517f08c379a000000000000000000000000000000000000000000000000000000000815260040161221e906139e2565b60405180910390fd5b6002600981905550565b61224b82826040518060200160405280600081525061262a565b5050565b60008061225b836126c7565b90506000600a6014603084901c6122729190613a02565b61227c9190613453565b600a60078461228b9190613a02565b6122959190613453565b60646122a1919061326d565b6122ab9190613453565b90506000600a6014606085901c6122c29190613a02565b6122cc9190613453565b600a6006606086901c6122df9190613a02565b6122e99190613453565b60646122f5919061326d565b6122ff9190613453565b90506000600a6014609086901c6123169190613a02565b6123209190613453565b600a6007609087901c6123339190613a02565b61233d9190613453565b6064612349919061326d565b6123539190613453565b90506000600a601460c087901c61236a9190613a02565b6123749190613453565b600a600260c088901c6123879190613a02565b6123919190613453565b606461239d919061326d565b6123a79190613453565b9050808284866127106123ba919061326d565b6123c49190613453565b6127106123d1919061326d565b6123db9190613453565b6127106123e8919061326d565b6123f29190613453565b95505050505050919050565b6001600981905550565b600033905090565b60008060006006600085815260200190815260200160002090508092508254915050915091565b600073ffffffffffffffffffffffffffffffffffffffff8316925073ffffffffffffffffffffffffffffffffffffffff821691508382148383141790509392505050565b50505050565b60008060e883901c905060e8612498868684612709565b62ffffff16901b9150509392505050565b600073ffffffffffffffffffffffffffffffffffffffff83169250814260a01b178317905092915050565b50505050565b60008373ffffffffffffffffffffffffffffffffffffffff1663150b7a02612500611a67565b8786866040518563ffffffff1660e01b81526004016125229493929190613a88565b6020604051808303816000875af192505050801561255e57506040513d601f19601f8201168201806040525081019061255b9190613ae9565b60015b6125d7573d806000811461258e576040519150601f19603f3d011682016040523d82523d6000602084013e612593565b606091505b5060008151036125cf576040517fd1a57ed600000000000000000000000000000000000000000000000000000000815260040160405180910390fd5b805181602001fd5b63150b7a0260e01b7bffffffffffffffffffffffffffffffffffffffffffffffffffffffff1916817bffffffffffffffffffffffffffffffffffffffffffffffffffffffff191614915050949350505050565b6126348383612712565b60008373ffffffffffffffffffffffffffffffffffffffff163b146126c257600080549050600083820390505b61267460008683806001019450866124da565b6126aa576040517fd1a57ed600000000000000000000000000000000000000000000000000000000815260040160405180910390fd5b8181106126615781600054146126bf57600080fd5b50505b505050565b60006001436126d69190613b16565b40826040516020016126e9929190613b96565b6040516020818303038152906040528051906020012060001c9050919050565b60009392505050565b60008054905060008203612752576040517fb562e8dd00000000000000000000000000000000000000000000000000000000815260040160405180910390fd5b61275f600084838561247b565b600160406001901b178202600560008573ffffffffffffffffffffffffffffffffffffffff1673ffffffffffffffffffffffffffffffffffffffff168152602001908152602001600020600082825401925050819055506127d6836127c76000866000612481565b6127d0856128cd565b176124a9565b6004600083815260200190815260200160002081905550600080838301905073ffffffffffffffffffffffffffffffffffffffff85169150828260007fddf252ad1be2c89b69c2b068fc378daa952ba7f163c4a11628f55a4df523b3ef600080a4600183015b81811461287757808360007fddf252ad1be2c89b69c2b068fc378daa952ba7f163c4a11628f55a4df523b3ef600080a460018101905061283c565b50600082036128b2576040517f2e07630000000000000000000000000000000000000000000000000000000000815260040160405180910390fd5b8060008190555050506128c860008483856124d4565b505050565b60006001821460e11b9050919050565b6000604051905090565b600080fd5b600080fd5b600073ffffffffffffffffffffffffffffffffffffffff82169050919050565b600061291c826128f1565b9050919050565b600061292e82612911565b9050919050565b61293e81612923565b811461294957600080fd5b50565b60008135905061295b81612935565b92915050565b600060208284031215612977576129766128e7565b5b60006129858482850161294c565b91505092915050565b60007fffffffff0000000000000000000000000000000000000000000000000000000082169050919050565b6129c38161298e565b81146129ce57600080fd5b50565b6000813590506129e0816129ba565b92915050565b6000602082840312156129fc576129fb6128e7565b5b6000612a0a848285016129d1565b91505092915050565b60008115159050919050565b612a2881612a13565b82525050565b6000602082019050612a436000830184612a1f565b92915050565b600081519050919050565b600082825260208201905092915050565b60005b83811015612a83578082015181840152602081019050612a68565b60008484015250505050565b6000601f19601f8301169050919050565b6000612aab82612a49565b612ab58185612a54565b9350612ac5818560208601612a65565b612ace81612a8f565b840191505092915050565b60006020820190508181036000830152612af38184612aa0565b905092915050565b6000819050919050565b612b0e81612afb565b8114612b1957600080fd5b50565b600081359050612b2b81612b05565b92915050565b600060208284031215612b4757612b466128e7565b5b6000612b5584828501612b1c565b91505092915050565b612b6781612911565b82525050565b6000602082019050612b826000830184612b5e565b92915050565b612b9181612911565b8114612b9c57600080fd5b50565b600081359050612bae81612b88565b92915050565b60008060408385031215612bcb57612bca6128e7565b5b6000612bd985828601612b9f565b9250506020612bea85828601612b1c565b9150509250929050565b60008060408385031215612c0b57612c0a6128e7565b5b6000612c1985828601612b1c565b9250506020612c2a85828601612b1c565b9150509250929050565b612c3d81612afb565b82525050565b6000602082019050612c586000830184612c34565b92915050565b600080600060608486031215612c7757612c766128e7565b5b6000612c8586828701612b9f565b9350506020612c9686828701612b9f565b9250506040612ca786828701612b1c565b9150509250925092565b6000604082019050612cc66000830185612b5e565b612cd36020830184612c34565b9392505050565b6000819050919050565b6000612cff612cfa612cf5846128f1565b612cda565b6128f1565b9050919050565b6000612d1182612ce4565b9050919050565b6000612d2382612d06565b9050919050565b612d3381612d18565b82525050565b6000602082019050612d4e6000830184612d2a565b92915050565b6000612d5f82612d06565b9050919050565b612d6f81612d54565b82525050565b6000602082019050612d8a6000830184612d66565b92915050565b600060208284031215612da657612da56128e7565b5b6000612db484828501612b9f565b91505092915050565b612dc681612a13565b8114612dd157600080fd5b50565b600081359050612de381612dbd565b92915050565b60008060408385031215612e0057612dff6128e7565b5b6000612e0e85828601612b9f565b9250506020612e1f85828601612dd4565b9150509250929050565b600060208284031215612e3f57612e3e6128e7565b5b6000612e4d84828501612dd4565b91505092915050565b600080fd5b600080fd5b7f4e487b7100000000000000000000000000000000000000000000000000000000600052604160045260246000fd5b612e9882612a8f565b810181811067ffffffffffffffff82111715612eb757612eb6612e60565b5b80604052505050565b6000612eca6128dd565b9050612ed68282612e8f565b919050565b600067ffffffffffffffff821115612ef657612ef5612e60565b5b612eff82612a8f565b9050602081019050919050565b82818337600083830152505050565b6000612f2e612f2984612edb565b612ec0565b905082815260208101848484011115612f4a57612f49612e5b565b5b612f55848285612f0c565b509392505050565b600082601f830112612f7257612f71612e56565b5b8135612f82848260208601612f1b565b91505092915050565b60008060008060808587031215612fa557612fa46128e7565b5b6000612fb387828801612b9f565b9450506020612fc487828801612b9f565b9350506040612fd587828801612b1c565b925050606085013567ffffffffffffffff811115612ff657612ff56128ec565b5b61300287828801612f5d565b91505092959194509250565b600067ffffffffffffffff82111561302957613028612e60565b5b602082029050602081019050919050565b600080fd5b600061305261304d8461300e565b612ec0565b905080838252602082019050602084028301858111156130755761307461303a565b5b835b8181101561309e578061308a8882612b9f565b845260208401935050602081019050613077565b5050509392505050565b600082601f8301126130bd576130bc612e56565b5b81356130cd84826020860161303f565b91505092915050565b600080604083850312156130ed576130ec6128e7565b5b600083013567ffffffffffffffff81111561310b5761310a6128ec565b5b613117858286016130a8565b925050602061312885828601612b1c565b9150509250929050565b60008060408385031215613149576131486128e7565b5b600061315785828601612b9f565b925050602061316885828601612b9f565b9150509250929050565b7f4e487b7100000000000000000000000000000000000000000000000000000000600052602260045260246000fd5b600060028204905060018216806131b957607f821691505b6020821081036131cc576131cb613172565b5b50919050565b7f43616e6e6f742073657420746865207365656400000000000000000000000000600082015250565b6000613208601383612a54565b9150613213826131d2565b602082019050919050565b60006020820190508181036000830152613237816131fb565b9050919050565b7f4e487b7100000000000000000000000000000000000000000000000000000000600052601160045260246000fd5b600061327882612afb565b915061328383612afb565b925082820261329181612afb565b915082820484148315176132a8576132a761323e565b5b5092915050565b7f4e487b7100000000000000000000000000000000000000000000000000000000600052601260045260246000fd5b60006132e982612afb565b91506132f483612afb565b925082613304576133036132af565b5b828204905092915050565b7f5468652063616c6c657220697320616e6f7468657220636f6e74726163740000600082015250565b6000613345601e83612a54565b91506133508261330f565b602082019050919050565b6000602082019050818103600083015261337481613338565b9050919050565b7f4d696e74696e672066756e6374696f6e2069732064697361626c65642e000000600082015250565b60006133b1601d83612a54565b91506133bc8261337b565b602082019050919050565b600060208201905081810360008301526133e0816133a4565b9050919050565b7f496e73756666696369656e742066756e64732100000000000000000000000000600082015250565b600061341d601383612a54565b9150613428826133e7565b602082019050919050565b6000602082019050818103600083015261344c81613410565b9050919050565b600061345e82612afb565b915061346983612afb565b92508282019050808211156134815761348061323e565b5b92915050565b7f5075626c6963206d696e74206c696d6974206578636565646564000000000000600082015250565b60006134bd601a83612a54565b91506134c882613487565b602082019050919050565b600060208201905081810360008301526134ec816134b0565b9050919050565b7f496e76616c6964206d696e7420616d6f756e7421000000000000000000000000600082015250565b6000613529601483612a54565b9150613534826134f3565b602082019050919050565b600060208201905081810360008301526135588161351c565b9050919050565b7f57696c6c20657863656564206d6178696d756d20737570706c79210000000000600082015250565b6000613595601b83612a54565b91506135a08261355f565b602082019050919050565b600060208201905081810360008301526135c481613588565b9050919050565b7f4e487b7100000000000000000000000000000000000000000000000000000000600052603260045260246000fd5b600061360582612afb565b91507fffffffffffffffffffffffffffffffffffffffffffffffffffffffffffffffff82036136375761363661323e565b5b600182019050919050565b7f546f6b656e20494420646f6573206e6f742065786973742e0000000000000000600082015250565b6000613678601883612a54565b915061368382613642565b602082019050919050565b600060208201905081810360008301526136a78161366b565b9050919050565b60006040820190506136c36000830185612c34565b6136d06020830184612c34565b9392505050565b600067ffffffffffffffff8211156136f2576136f1612e60565b5b6136fb82612a8f565b9050602081019050919050565b600061371b613716846136d7565b612ec0565b90508281526020810184848401111561373757613736612e5b565b5b613742848285612a65565b509392505050565b600082601f83011261375f5761375e612e56565b5b815161376f848260208601613708565b91505092915050565b60006020828403121561378e5761378d6128e7565b5b600082015167ffffffffffffffff8111156137ac576137ab6128ec565b5b6137b88482850161374a565b91505092915050565b7f4f776e61626c653a206e6577206f776e657220697320746865207a65726f206160008201527f6464726573730000000000000000000000000000000000000000000000000000602082015250565b600061381d602683612a54565b9150613828826137c1565b604082019050919050565b6000602082019050818103600083015261384c81613810565b9050919050565b7f4f776e61626c653a2063616c6c6572206973206e6f7420746865206f776e6572600082015250565b6000613889602083612a54565b915061389482613853565b602082019050919050565b600060208201905081810360008301526138b88161387c565b9050919050565b60006040820190506138d46000830185612b5e565b6138e16020830184612b5e565b9392505050565b6000815190506138f781612dbd565b92915050565b600060208284031215613913576139126128e7565b5b6000613921848285016138e8565b91505092915050565b7f45786365656473206d617820737570706c792e00000000000000000000000000600082015250565b6000613960601383612a54565b915061396b8261392a565b602082019050919050565b6000602082019050818103600083015261398f81613953565b9050919050565b7f5265656e7472616e637947756172643a207265656e7472616e742063616c6c00600082015250565b60006139cc601f83612a54565b91506139d782613996565b602082019050919050565b600060208201905081810360008301526139fb816139bf565b9050919050565b6000613a0d82612afb565b9150613a1883612afb565b925082613a2857613a276132af565b5b828206905092915050565b600081519050919050565b600082825260208201905092915050565b6000613a5a82613a33565b613a648185613a3e565b9350613a74818560208601612a65565b613a7d81612a8f565b840191505092915050565b6000608082019050613a9d6000830187612b5e565b613aaa6020830186612b5e565b613ab76040830185612c34565b8181036060830152613ac98184613a4f565b905095945050505050565b600081519050613ae3816129ba565b92915050565b600060208284031215613aff57613afe6128e7565b5b6000613b0d84828501613ad4565b91505092915050565b6000613b2182612afb565b9150613b2c83612afb565b9250828203905081811115613b4457613b4361323e565b5b92915050565b6000819050919050565b6000819050919050565b613b6f613b6a82613b4a565b613b54565b82525050565b6000819050919050565b613b90613b8b82612afb565b613b75565b82525050565b6000613ba28285613b5e565b602082019150613bb28284613b7f565b602082019150819050939250505056fea2646970667358221220f0209dba82d721c6cc6375a38ff4874e6cecd32dd89b169e3d23192dc6d797e664736f6c63430008110033",
  "linkReferences": {},
  "deployedLinkReferences": {}
}