{
  "_format": "hh-sol-artifact-1",
  "contractName": "RobustusMus",
  "sourceName": "contracts/ERC-721/RobustusMus.sol",
  "abi": [
    {
      "inputs": [
        {
          "internalType": "contract ITokenDescriptor",
          "name": "newDescriptor",
          "type": "address"
        }
      ],
      "stateMutability": "nonpayable",
      "type": "constructor"
    },
    {
      "anonymous": false,
      "inputs": [
        {
          "indexed": true,
          "internalType": "address",
          "name": "owner",
          "type": "address"
        },
        {
          "indexed": true,
          "internalType": "address",
          "name": "approved",
          "type": "address"
        },
        {
          "indexed": true,
          "internalType": "uint256",
          "name": "tokenId",
          "type": "uint256"
        }
      ],
      "name": "Approval",
      "type": "event"
    },
    {
      "anonymous": false,
      "inputs": [
        {
          "indexed": true,
          "internalType": "address",
          "name": "owner",
          "type": "address"
        },
        {
          "indexed": true,
          "internalType": "address",
          "name": "operator",
          "type": "address"
        },
        {
          "indexed": false,
          "internalType": "bool",
          "name": "approved",
          "type": "bool"
        }
      ],
      "name": "ApprovalForAll",
      "type": "event"
    },
    {
      "anonymous": false,
      "inputs": [
        {
          "indexed": true,
          "internalType": "address",
          "name": "previousOwner",
          "type": "address"
        },
        {
          "indexed": true,
          "internalType": "address",
          "name": "newOwner",
          "type": "address"
        }
      ],
      "name": "OwnershipTransferred",
      "type": "event"
    },
    {
      "anonymous": false,
      "inputs": [
        {
          "indexed": true,
          "internalType": "uint256",
          "name": "tokenId",
          "type": "uint256"
        },
        {
          "indexed": false,
          "internalType": "uint256",
          "name": "seed",
          "type": "uint256"
        }
      ],
      "name": "SeedUpdated",
      "type": "event"
    },
    {
      "anonymous": false,
      "inputs": [
        {
          "indexed": true,
          "internalType": "address",
          "name": "from",
          "type": "address"
        },
        {
          "indexed": true,
          "internalType": "address",
          "name": "to",
          "type": "address"
        },
        {
          "indexed": true,
          "internalType": "uint256",
          "name": "tokenId",
          "type": "uint256"
        }
      ],
      "name": "Transfer",
      "type": "event"
    },
    {
      "inputs": [
        {
          "internalType": "address",
          "name": "to",
          "type": "address"
        },
        {
          "internalType": "uint256",
          "name": "tokenId",
          "type": "uint256"
        }
      ],
      "name": "approve",
      "outputs": [],
      "stateMutability": "nonpayable",
      "type": "function"
    },
    {
      "inputs": [
        {
          "internalType": "address",
          "name": "owner",
          "type": "address"
        }
      ],
      "name": "balanceOf",
      "outputs": [
        {
          "internalType": "uint256",
          "name": "",
          "type": "uint256"
        }
      ],
      "stateMutability": "view",
      "type": "function"
    },
    {
      "inputs": [],
      "name": "beneficiaryAddr",
      "outputs": [
        {
          "internalType": "address",
          "name": "",
          "type": "address"
        }
      ],
      "stateMutability": "view",
      "type": "function"
    },
    {
      "inputs": [
        {
          "internalType": "uint256",
          "name": "tokenId",
          "type": "uint256"
        }
      ],
      "name": "burn",
      "outputs": [],
      "stateMutability": "nonpayable",
      "type": "function"
    },
    {
      "inputs": [],
      "name": "descriptor",
      "outputs": [
        {
          "internalType": "contract ITokenDescriptor",
          "name": "",
          "type": "address"
        }
      ],
      "stateMutability": "view",
      "type": "function"
    },
    {
      "inputs": [],
      "name": "disableSeedUpdate",
      "outputs": [],
      "stateMutability": "nonpayable",
      "type": "function"
    },
    {
      "inputs": [],
      "name": "feeNumerator",
      "outputs": [
        {
          "internalType": "uint256",
          "name": "",
          "type": "uint256"
        }
      ],
      "stateMutability": "view",
      "type": "function"
    },
    {
      "inputs": [
        {
          "internalType": "uint256",
          "name": "tokenId",
          "type": "uint256"
        }
      ],
      "name": "getApproved",
      "outputs": [
        {
          "internalType": "address",
          "name": "",
          "type": "address"
        }
      ],
      "stateMutability": "view",
      "type": "function"
    },
    {
      "inputs": [
        {
          "internalType": "uint256",
          "name": "tokenId",
          "type": "uint256"
        }
      ],
      "name": "getSeed",
      "outputs": [
        {
          "internalType": "uint256",
          "name": "",
          "type": "uint256"
        }
      ],
      "stateMutability": "view",
      "type": "function"
    },
    {
      "inputs": [],
      "name": "getmintCount",
      "outputs": [
        {
          "internalType": "uint256",
          "name": "",
          "type": "uint256"
        }
      ],
      "stateMutability": "view",
      "type": "function"
    },
    {
      "inputs": [
        {
          "internalType": "address",
          "name": "owner",
          "type": "address"
        },
        {
          "internalType": "address",
          "name": "operator",
          "type": "address"
        }
      ],
      "name": "isApprovedForAll",
      "outputs": [
        {
          "internalType": "bool",
          "name": "",
          "type": "bool"
        }
      ],
      "stateMutability": "view",
      "type": "function"
    },
    {
      "inputs": [],
      "name": "maxMintAmountPerTx",
      "outputs": [
        {
          "internalType": "uint256",
          "name": "",
          "type": "uint256"
        }
      ],
      "stateMutability": "view",
      "type": "function"
    },
    {
      "inputs": [],
      "name": "maxSupply",
      "outputs": [
        {
          "internalType": "uint256",
          "name": "",
          "type": "uint256"
        }
      ],
      "stateMutability": "view",
      "type": "function"
    },
    {
      "inputs": [
        {
          "internalType": "uint256",
          "name": "_mintAmount",
          "type": "uint256"
        }
      ],
      "name": "mint",
      "outputs": [],
      "stateMutability": "payable",
      "type": "function"
    },
    {
      "inputs": [],
      "name": "mintCost",
      "outputs": [
        {
          "internalType": "uint256",
          "name": "",
          "type": "uint256"
        }
      ],
      "stateMutability": "view",
      "type": "function"
    },
    {
      "inputs": [
        {
          "internalType": "address",
          "name": "",
          "type": "address"
        }
      ],
      "name": "mintCount",
      "outputs": [
        {
          "internalType": "uint256",
          "name": "",
          "type": "uint256"
        }
      ],
      "stateMutability": "view",
      "type": "function"
    },
    {
      "inputs": [],
      "name": "minting",
      "outputs": [
        {
          "internalType": "bool",
          "name": "",
          "type": "bool"
        }
      ],
      "stateMutability": "view",
      "type": "function"
    },
    {
      "inputs": [],
      "name": "name",
      "outputs": [
        {
          "internalType": "string",
          "name": "",
          "type": "string"
        }
      ],
      "stateMutability": "view",
      "type": "function"
    },
    {
      "inputs": [],
      "name": "owner",
      "outputs": [
        {
          "internalType": "address",
          "name": "",
          "type": "address"
        }
      ],
      "stateMutability": "view",
      "type": "function"
    },
    {
      "inputs": [
        {
          "internalType": "uint256",
          "name": "tokenId",
          "type": "uint256"
        }
      ],
      "name": "ownerOf",
      "outputs": [
        {
          "internalType": "address",
          "name": "",
          "type": "address"
        }
      ],
      "stateMutability": "view",
      "type": "function"
    },
    {
      "inputs": [],
      "name": "renounceOwnership",
      "outputs": [],
      "stateMutability": "nonpayable",
      "type": "function"
    },
    {
      "inputs": [
        {
          "internalType": "uint256",
          "name": "tokenId",
          "type": "uint256"
        },
        {
          "internalType": "uint256",
          "name": "salePrice",
          "type": "uint256"
        }
      ],
      "name": "royaltyInfo",
      "outputs": [
        {
          "internalType": "address",
          "name": "receiver",
          "type": "address"
        },
        {
          "internalType": "uint256",
          "name": "royaltyAmount",
          "type": "uint256"
        }
      ],
      "stateMutability": "view",
      "type": "function"
    },
    {
      "inputs": [
        {
          "internalType": "address",
          "name": "from",
          "type": "address"
        },
        {
          "internalType": "address",
          "name": "to",
          "type": "address"
        },
        {
          "internalType": "uint256",
          "name": "tokenId",
          "type": "uint256"
        }
      ],
      "name": "safeTransferFrom",
      "outputs": [],
      "stateMutability": "nonpayable",
      "type": "function"
    },
    {
      "inputs": [
        {
          "internalType": "address",
          "name": "from",
          "type": "address"
        },
        {
          "internalType": "address",
          "name": "to",
          "type": "address"
        },
        {
          "internalType": "uint256",
          "name": "tokenId",
          "type": "uint256"
        },
        {
          "internalType": "bytes",
          "name": "data",
          "type": "bytes"
        }
      ],
      "name": "safeTransferFrom",
      "outputs": [],
      "stateMutability": "nonpayable",
      "type": "function"
    },
    {
      "inputs": [
        {
          "internalType": "address",
          "name": "operator",
          "type": "address"
        },
        {
          "internalType": "bool",
          "name": "approved",
          "type": "bool"
        }
      ],
      "name": "setApprovalForAll",
      "outputs": [],
      "stateMutability": "nonpayable",
      "type": "function"
    },
    {
      "inputs": [
        {
          "internalType": "contract ITokenDescriptor",
          "name": "newDescriptor",
          "type": "address"
        }
      ],
      "name": "setDescriptor",
      "outputs": [],
      "stateMutability": "nonpayable",
      "type": "function"
    },
    {
      "inputs": [
        {
          "internalType": "bool",
          "name": "value",
          "type": "bool"
        }
      ],
      "name": "setMinting",
      "outputs": [],
      "stateMutability": "nonpayable",
      "type": "function"
    },
    {
      "inputs": [
        {
          "internalType": "bytes4",
          "name": "interfaceId",
          "type": "bytes4"
        }
      ],
      "name": "supportsInterface",
      "outputs": [
        {
          "internalType": "bool",
          "name": "",
          "type": "bool"
        }
      ],
      "stateMutability": "view",
      "type": "function"
    },
    {
      "inputs": [],
      "name": "symbol",
      "outputs": [
        {
          "internalType": "string",
          "name": "",
          "type": "string"
        }
      ],
      "stateMutability": "view",
      "type": "function"
    },
    {
      "inputs": [
        {
          "internalType": "uint256",
          "name": "index",
          "type": "uint256"
        }
      ],
      "name": "tokenByIndex",
      "outputs": [
        {
          "internalType": "uint256",
          "name": "tokenId",
          "type": "uint256"
        }
      ],
      "stateMutability": "view",
      "type": "function"
    },
    {
      "inputs": [
        {
          "internalType": "address",
          "name": "owner",
          "type": "address"
        },
        {
          "internalType": "uint256",
          "name": "index",
          "type": "uint256"
        }
      ],
      "name": "tokenOfOwnerByIndex",
      "outputs": [
        {
          "internalType": "uint256",
          "name": "tokenId",
          "type": "uint256"
        }
      ],
      "stateMutability": "view",
      "type": "function"
    },
    {
      "inputs": [
        {
          "internalType": "uint256",
          "name": "tokenId",
          "type": "uint256"
        }
      ],
      "name": "tokenURI",
      "outputs": [
        {
          "internalType": "string",
          "name": "",
          "type": "string"
        }
      ],
      "stateMutability": "view",
      "type": "function"
    },
    {
      "inputs": [],
      "name": "totalSupply",
      "outputs": [
        {
          "internalType": "uint256",
          "name": "",
          "type": "uint256"
        }
      ],
      "stateMutability": "view",
      "type": "function"
    },
    {
      "inputs": [
        {
          "internalType": "address",
          "name": "from",
          "type": "address"
        },
        {
          "internalType": "address",
          "name": "to",
          "type": "address"
        },
        {
          "internalType": "uint256",
          "name": "tokenId",
          "type": "uint256"
        }
      ],
      "name": "transferFrom",
      "outputs": [],
      "stateMutability": "nonpayable",
      "type": "function"
    },
    {
      "inputs": [
        {
          "internalType": "address",
          "name": "newOwner",
          "type": "address"
        }
      ],
      "name": "transferOwnership",
      "outputs": [],
      "stateMutability": "nonpayable",
      "type": "function"
    },
    {
      "inputs": [],
      "name": "updatableSeed",
      "outputs": [
        {
          "internalType": "bool",
          "name": "",
          "type": "bool"
        }
      ],
      "stateMutability": "view",
      "type": "function"
    },
    {
      "inputs": [
        {
          "internalType": "uint256",
          "name": "_royalties",
          "type": "uint256"
        }
      ],
      "name": "updateRoyalties",
      "outputs": [],
      "stateMutability": "nonpayable",
      "type": "function"
    },
    {
      "inputs": [
        {
          "internalType": "uint256",
          "name": "tokenId",
          "type": "uint256"
        },
        {
          "internalType": "uint256",
          "name": "seed",
          "type": "uint256"
        }
      ],
      "name": "updateSeed",
      "outputs": [],
      "stateMutability": "nonpayable",
      "type": "function"
    }
  ],
  "bytecode": "0x608060405266470de4df820000600955614e20600a55600a600b55600a600c556005600d556001600e60006101000a81548160ff0219169083151502179055506001600e60016101000a81548160ff0219169083151502179055503480156200006757600080fd5b50604051620045533803806200455383398181016040528101906200008d91906200034d565b6040518060400160405280600c81526020017f526f627573747573204d757300000000000000000000000000000000000000008152506040518060400160405280600381526020017f4d5553000000000000000000000000000000000000000000000000000000000081525081600090816200010a9190620005f9565b5080600190816200011c9190620005f9565b5050506200013f62000133620001d760201b60201c565b620001df60201b60201c565b6200014f620002a560201b60201c565b600e60026101000a81548173ffffffffffffffffffffffffffffffffffffffff021916908373ffffffffffffffffffffffffffffffffffffffff16021790555080600860006101000a81548173ffffffffffffffffffffffffffffffffffffffff021916908373ffffffffffffffffffffffffffffffffffffffff16021790555050620006e0565b600033905090565b6000600560009054906101000a900473ffffffffffffffffffffffffffffffffffffffff16905081600560006101000a81548173ffffffffffffffffffffffffffffffffffffffff021916908373ffffffffffffffffffffffffffffffffffffffff1602179055508173ffffffffffffffffffffffffffffffffffffffff168173ffffffffffffffffffffffffffffffffffffffff167f8be0079c531659141344cd1fd0a4f28419497f9722a3daafe3b4186f6b6457e060405160405180910390a35050565b6000600560009054906101000a900473ffffffffffffffffffffffffffffffffffffffff16905090565b600080fd5b600073ffffffffffffffffffffffffffffffffffffffff82169050919050565b60006200030182620002d4565b9050919050565b60006200031582620002f4565b9050919050565b620003278162000308565b81146200033357600080fd5b50565b60008151905062000347816200031c565b92915050565b600060208284031215620003665762000365620002cf565b5b6000620003768482850162000336565b91505092915050565b600081519050919050565b7f4e487b7100000000000000000000000000000000000000000000000000000000600052604160045260246000fd5b7f4e487b7100000000000000000000000000000000000000000000000000000000600052602260045260246000fd5b600060028204905060018216806200040157607f821691505b602082108103620004175762000416620003b9565b5b50919050565b60008190508160005260206000209050919050565b60006020601f8301049050919050565b600082821b905092915050565b600060088302620004817fffffffffffffffffffffffffffffffffffffffffffffffffffffffffffffffff8262000442565b6200048d868362000442565b95508019841693508086168417925050509392505050565b6000819050919050565b6000819050919050565b6000620004da620004d4620004ce84620004a5565b620004af565b620004a5565b9050919050565b6000819050919050565b620004f683620004b9565b6200050e6200050582620004e1565b8484546200044f565b825550505050565b600090565b6200052562000516565b62000532818484620004eb565b505050565b5b818110156200055a576200054e6000826200051b565b60018101905062000538565b5050565b601f821115620005a95762000573816200041d565b6200057e8462000432565b810160208510156200058e578190505b620005a66200059d8562000432565b83018262000537565b50505b505050565b600082821c905092915050565b6000620005ce60001984600802620005ae565b1980831691505092915050565b6000620005e98383620005bb565b9150826002028217905092915050565b62000604826200037f565b67ffffffffffffffff81111562000620576200061f6200038a565b5b6200062c8254620003e8565b620006398282856200055e565b600060209050601f8311600181146200067157600084156200065c578287015190505b620006688582620005db565b865550620006d8565b601f19841662000681866200041d565b60005b82811015620006ab5784890151825560018201915060208501945060208101905062000684565b86831015620006cb5784890151620006c7601f891682620005bb565b8355505b6001600288020188555050505b505050505050565b613e6380620006f06000396000f3fe6080604052600436106102255760003560e01c8063715018a611610123578063b88d4fde116100ab578063e0d4ea371161006f578063e0d4ea37146107fb578063e86dea4a14610838578063e985e9c514610863578063ed9ec888146108a0578063f2fde38b146108dd57610225565b8063b88d4fde14610714578063b9e9aec11461073d578063bdb4b84814610768578063c87b56dd14610793578063d5abeb01146107d057610225565b806395d89b41116100f257806395d89b41146106525780639658730b1461067d578063a0712d68146106a6578063a22cb465146106c2578063b4c7f066146106eb57610225565b8063715018a6146105ba5780637dc2268c146105d15780638da5cb5b146105fc57806394354fd01461062757610225565b80632f745c59116101b15780634f6ccce7116101755780634f6ccce7146104ad5780635619f443146104ea57806362876703146105155780636352211e1461054057806370a082311461057d57610225565b80632f745c59146103dc578063303e74df146104195780633bb2c9381461044457806342842e0e1461045b57806342966c681461048457610225565b8063095ea7b3116101f8578063095ea7b3146102f8578063176b72b41461032157806318160ddd1461034a57806323b872dd146103755780632a55205a1461039e57610225565b806301b9a3971461022a57806301ffc9a71461025357806306fdde0314610290578063081812fc146102bb575b600080fd5b34801561023657600080fd5b50610251600480360381019061024c91906127e5565b610906565b005b34801561025f57600080fd5b5061027a6004803603810190610275919061286a565b610952565b60405161028791906128b2565b60405180910390f35b34801561029c57600080fd5b506102a56109cc565b6040516102b2919061295d565b60405180910390f35b3480156102c757600080fd5b506102e260048036038101906102dd91906129b5565b610a5e565b6040516102ef91906129f1565b60405180910390f35b34801561030457600080fd5b5061031f600480360381019061031a9190612a38565b610ae3565b005b34801561032d57600080fd5b5061034860048036038101906103439190612a78565b610bfa565b005b34801561035657600080fd5b5061035f610ca5565b60405161036c9190612ac7565b60405180910390f35b34801561038157600080fd5b5061039c60048036038101906103979190612ae2565b610cb2565b005b3480156103aa57600080fd5b506103c560048036038101906103c09190612a78565b610d12565b6040516103d3929190612b35565b60405180910390f35b3480156103e857600080fd5b5061040360048036038101906103fe9190612a38565b610d42565b6040516104109190612ac7565b60405180910390f35b34801561042557600080fd5b5061042e610e75565b60405161043b9190612bbd565b60405180910390f35b34801561045057600080fd5b50610459610e9b565b005b34801561046757600080fd5b50610482600480360381019061047d9190612ae2565b610ec0565b005b34801561049057600080fd5b506104ab60048036038101906104a691906129b5565b610ee0565b005b3480156104b957600080fd5b506104d460048036038101906104cf91906129b5565b610f53565b6040516104e19190612ac7565b60405180910390f35b3480156104f657600080fd5b506104ff610fa4565b60405161050c9190612ac7565b60405180910390f35b34801561052157600080fd5b5061052a610feb565b60405161053791906128b2565b60405180910390f35b34801561054c57600080fd5b50610567600480360381019061056291906129b5565b610ffe565b60405161057491906129f1565b60405180910390f35b34801561058957600080fd5b506105a4600480360381019061059f9190612bd8565b6110ba565b6040516105b19190612ac7565b60405180910390f35b3480156105c657600080fd5b506105cf6111c8565b005b3480156105dd57600080fd5b506105e66111dc565b6040516105f391906128b2565b60405180910390f35b34801561060857600080fd5b506106116111ef565b60405161061e91906129f1565b60405180910390f35b34801561063357600080fd5b5061063c611219565b6040516106499190612ac7565b60405180910390f35b34801561065e57600080fd5b5061066761121f565b604051610674919061295d565b60405180910390f35b34801561068957600080fd5b506106a4600480360381019061069f91906129b5565b6112b1565b005b6106c060048036038101906106bb91906129b5565b6112c3565b005b3480156106ce57600080fd5b506106e960048036038101906106e49190612c31565b6114fe565b005b3480156106f757600080fd5b50610712600480360381019061070d9190612c71565b61167e565b005b34801561072057600080fd5b5061073b60048036038101906107369190612dd3565b6116a3565b005b34801561074957600080fd5b50610752611705565b60405161075f91906129f1565b60405180910390f35b34801561077457600080fd5b5061077d61172b565b60405161078a9190612ac7565b60405180910390f35b34801561079f57600080fd5b506107ba60048036038101906107b591906129b5565b611731565b6040516107c7919061295d565b60405180910390f35b3480156107dc57600080fd5b506107e561183e565b6040516107f29190612ac7565b60405180910390f35b34801561080757600080fd5b50610822600480360381019061081d91906129b5565b611844565b60405161082f9190612ac7565b60405180910390f35b34801561084457600080fd5b5061084d6118a9565b60405161085a9190612ac7565b60405180910390f35b34801561086f57600080fd5b5061088a60048036038101906108859190612e56565b6118af565b60405161089791906128b2565b60405180910390f35b3480156108ac57600080fd5b506108c760048036038101906108c29190612bd8565b611943565b6040516108d49190612ac7565b60405180910390f35b3480156108e957600080fd5b5061090460048036038101906108ff9190612bd8565b61195b565b005b61090e6119de565b80600860006101000a81548173ffffffffffffffffffffffffffffffffffffffff021916908373ffffffffffffffffffffffffffffffffffffffff16021790555050565b60007f780e9d63000000000000000000000000000000000000000000000000000000007bffffffffffffffffffffffffffffffffffffffffffffffffffffffff1916827bffffffffffffffffffffffffffffffffffffffffffffffffffffffff191614806109c557506109c482611a5c565b5b9050919050565b6060600080546109db90612ec5565b80601f0160208091040260200160405190810160405280929190818152602001828054610a0790612ec5565b8015610a545780601f10610a2957610100808354040283529160200191610a54565b820191906000526020600020905b815481529060010190602001808311610a3757829003601f168201915b5050505050905090565b6000610a6982611b3e565b610aa8576040517f08c379a0000000000000000000000000000000000000000000000000000000008152600401610a9f90612f42565b60405180910390fd5b6003600083815260200190815260200160002060009054906101000a900473ffffffffffffffffffffffffffffffffffffffff169050919050565b6000610aee82610ffe565b90508073ffffffffffffffffffffffffffffffffffffffff168373ffffffffffffffffffffffffffffffffffffffff1603610b5e576040517f08c379a0000000000000000000000000000000000000000000000000000000008152600401610b5590612fd4565b60405180910390fd5b8073ffffffffffffffffffffffffffffffffffffffff16610b7d611bc6565b73ffffffffffffffffffffffffffffffffffffffff161480610bac5750610bab81610ba6611bc6565b6118af565b5b610beb576040517f08c379a0000000000000000000000000000000000000000000000000000000008152600401610be290613066565b60405180910390fd5b610bf58383611bce565b505050565b610c026119de565b600e60019054906101000a900460ff16610c51576040517f08c379a0000000000000000000000000000000000000000000000000000000008152600401610c48906130d2565b60405180910390fd5b806006600084815260200190815260200160002081905550817faabfe5e8bccf1a1352f72b557ce580211305c37f88d5783ae467a1ba5e0761e082604051610c999190612ac7565b60405180910390a25050565b6000600280549050905090565b610cc3610cbd611bc6565b82611c87565b610d02576040517f08c379a0000000000000000000000000000000000000000000000000000000008152600401610cf990613164565b60405180910390fd5b610d0d838383611d1c565b505050565b600080610d1d6111ef565b9150606483600d54610d2f91906131b3565b610d399190613224565b90509250929050565b6000610d4d836110ba565b8210610d8e576040517f08c379a0000000000000000000000000000000000000000000000000000000008152600401610d85906132c7565b60405180910390fd5b6000805b600280549050811015610e335760028181548110610db357610db26132e7565b5b9060005260206000200160009054906101000a900473ffffffffffffffffffffffffffffffffffffffff1673ffffffffffffffffffffffffffffffffffffffff168573ffffffffffffffffffffffffffffffffffffffff1603610e2857838203610e21578092505050610e6f565b8160010191505b806001019050610d92565b506040517f08c379a0000000000000000000000000000000000000000000000000000000008152600401610e66906132c7565b60405180910390fd5b92915050565b600860009054906101000a900473ffffffffffffffffffffffffffffffffffffffff1681565b610ea36119de565b6000600e60016101000a81548160ff021916908315150217905550565b610edb838383604051806020016040528060008152506116a3565b505050565b610ef1610eeb611bc6565b82611c87565b610f30576040517f08c379a0000000000000000000000000000000000000000000000000000000008152600401610f2790613362565b60405180910390fd5b6006600082815260200190815260200160002060009055610f5081611ef4565b50565b60006002805490508210610f9c576040517f08c379a0000000000000000000000000000000000000000000000000000000008152600401610f93906133f4565b60405180910390fd5b819050919050565b6000600760003373ffffffffffffffffffffffffffffffffffffffff1673ffffffffffffffffffffffffffffffffffffffff16815260200190815260200160002054905090565b600e60019054906101000a900460ff1681565b60008060028381548110611015576110146132e7565b5b9060005260206000200160009054906101000a900473ffffffffffffffffffffffffffffffffffffffff169050600073ffffffffffffffffffffffffffffffffffffffff168173ffffffffffffffffffffffffffffffffffffffff16036110b1576040517f08c379a00000000000000000000000000000000000000000000000000000000081526004016110a890612f42565b60405180910390fd5b80915050919050565b60008073ffffffffffffffffffffffffffffffffffffffff168273ffffffffffffffffffffffffffffffffffffffff160361112a576040517f08c379a000000000000000000000000000000000000000000000000000000000815260040161112190613486565b60405180910390fd5b6000805b6002805490508110156111be576002818154811061114f5761114e6132e7565b5b9060005260206000200160009054906101000a900473ffffffffffffffffffffffffffffffffffffffff1673ffffffffffffffffffffffffffffffffffffffff168473ffffffffffffffffffffffffffffffffffffffff16036111b3578160010191505b80600101905061112e565b5080915050919050565b6111d06119de565b6111da6000611fd8565b565b600e60009054906101000a900460ff1681565b6000600560009054906101000a900473ffffffffffffffffffffffffffffffffffffffff16905090565b600b5481565b60606001805461122e90612ec5565b80601f016020809104026020016040519081016040528092919081815260200182805461125a90612ec5565b80156112a75780601f1061127c576101008083540402835291602001916112a7565b820191906000526020600020905b81548152906001019060200180831161128a57829003601f168201915b5050505050905090565b6112b96119de565b80600d8190555050565b806000811180156112d65750600b548111155b611315576040517f08c379a000000000000000000000000000000000000000000000000000000000815260040161130c906134f2565b60405180910390fd5b600a5481611321610ca5565b61132b9190613512565b111561136c576040517f08c379a000000000000000000000000000000000000000000000000000000000815260040161136390613592565b60405180910390fd5b600e60009054906101000a900460ff166113bb576040517f08c379a00000000000000000000000000000000000000000000000000000000081526004016113b2906135fe565b60405180910390fd5b816009546113c991906131b3565b34101561140b576040517f08c379a00000000000000000000000000000000000000000000000000000000081526004016114029061366a565b60405180910390fd5b600c5482600760003373ffffffffffffffffffffffffffffffffffffffff1673ffffffffffffffffffffffffffffffffffffffff168152602001908152602001600020546114599190613512565b111561149a576040517f08c379a0000000000000000000000000000000000000000000000000000000008152600401611491906136d6565b60405180910390fd5b6114a4338361209e565b81600760003373ffffffffffffffffffffffffffffffffffffffff1673ffffffffffffffffffffffffffffffffffffffff16815260200190815260200160002060008282546114f39190613512565b925050819055505050565b8173ffffffffffffffffffffffffffffffffffffffff1661151d611bc6565b73ffffffffffffffffffffffffffffffffffffffff1603611573576040517f08c379a000000000000000000000000000000000000000000000000000000000815260040161156a90613742565b60405180910390fd5b8060046000611580611bc6565b73ffffffffffffffffffffffffffffffffffffffff1673ffffffffffffffffffffffffffffffffffffffff16815260200190815260200160002060008473ffffffffffffffffffffffffffffffffffffffff1673ffffffffffffffffffffffffffffffffffffffff16815260200190815260200160002060006101000a81548160ff0219169083151502179055508173ffffffffffffffffffffffffffffffffffffffff1661162d611bc6565b73ffffffffffffffffffffffffffffffffffffffff167f17307eab39ab6107e8899845ad3d59bd9653f200f220920489ca2b5937696c318360405161167291906128b2565b60405180910390a35050565b6116866119de565b80600e60006101000a81548160ff02191690831515021790555050565b6116b46116ae611bc6565b83611c87565b6116f3576040517f08c379a00000000000000000000000000000000000000000000000000000000081526004016116ea90613164565b60405180910390fd5b6116ff84848484612204565b50505050565b600e60029054906101000a900473ffffffffffffffffffffffffffffffffffffffff1681565b60095481565b606061173c82611b3e565b61177b576040517f08c379a0000000000000000000000000000000000000000000000000000000008152600401611772906137ae565b60405180910390fd5b600060066000848152602001908152602001600020549050600860009054906101000a900473ffffffffffffffffffffffffffffffffffffffff1673ffffffffffffffffffffffffffffffffffffffff166392cb829d84836040518363ffffffff1660e01b81526004016117f09291906137ce565b600060405180830381865afa15801561180d573d6000803e3d6000fd5b505050506040513d6000823e3d601f19601f820116820180604052508101906118369190613898565b915050919050565b600a5481565b600061184f82611b3e565b61188e576040517f08c379a0000000000000000000000000000000000000000000000000000000008152600401611885906137ae565b60405180910390fd5b60066000838152602001908152602001600020549050919050565b600d5481565b6000600460008473ffffffffffffffffffffffffffffffffffffffff1673ffffffffffffffffffffffffffffffffffffffff16815260200190815260200160002060008373ffffffffffffffffffffffffffffffffffffffff1673ffffffffffffffffffffffffffffffffffffffff16815260200190815260200160002060009054906101000a900460ff16905092915050565b60076020528060005260406000206000915090505481565b6119636119de565b600073ffffffffffffffffffffffffffffffffffffffff168173ffffffffffffffffffffffffffffffffffffffff16036119d2576040517f08c379a00000000000000000000000000000000000000000000000000000000081526004016119c990613953565b60405180910390fd5b6119db81611fd8565b50565b6119e6611bc6565b73ffffffffffffffffffffffffffffffffffffffff16611a046111ef565b73ffffffffffffffffffffffffffffffffffffffff1614611a5a576040517f08c379a0000000000000000000000000000000000000000000000000000000008152600401611a51906139bf565b60405180910390fd5b565b60007f80ac58cd000000000000000000000000000000000000000000000000000000007bffffffffffffffffffffffffffffffffffffffffffffffffffffffff1916827bffffffffffffffffffffffffffffffffffffffffffffffffffffffff19161480611b2757507f5b5e139f000000000000000000000000000000000000000000000000000000007bffffffffffffffffffffffffffffffffffffffffffffffffffffffff1916827bffffffffffffffffffffffffffffffffffffffffffffffffffffffff1916145b80611b375750611b3682612260565b5b9050919050565b600060028054905082108015611bbf5750600073ffffffffffffffffffffffffffffffffffffffff1660028381548110611b7b57611b7a6132e7565b5b9060005260206000200160009054906101000a900473ffffffffffffffffffffffffffffffffffffffff1673ffffffffffffffffffffffffffffffffffffffff1614155b9050919050565b600033905090565b816003600083815260200190815260200160002060006101000a81548173ffffffffffffffffffffffffffffffffffffffff021916908373ffffffffffffffffffffffffffffffffffffffff160217905550808273ffffffffffffffffffffffffffffffffffffffff16611c4183610ffe565b73ffffffffffffffffffffffffffffffffffffffff167f8c5be1e5ebec7d5bd14f71427d1e84f3dd0314c0f7b2291e5b200ac8c7c3b92560405160405180910390a45050565b600080611c9383610ffe565b90508073ffffffffffffffffffffffffffffffffffffffff168473ffffffffffffffffffffffffffffffffffffffff161480611cd55750611cd481856118af565b5b80611d1357508373ffffffffffffffffffffffffffffffffffffffff16611cfb84610a5e565b73ffffffffffffffffffffffffffffffffffffffff16145b91505092915050565b8273ffffffffffffffffffffffffffffffffffffffff16611d3c82610ffe565b73ffffffffffffffffffffffffffffffffffffffff1614611d92576040517f08c379a0000000000000000000000000000000000000000000000000000000008152600401611d8990613a51565b60405180910390fd5b600073ffffffffffffffffffffffffffffffffffffffff168273ffffffffffffffffffffffffffffffffffffffff1603611e01576040517f08c379a0000000000000000000000000000000000000000000000000000000008152600401611df890613ae3565b60405180910390fd5b6003600082815260200190815260200160002060006101000a81549073ffffffffffffffffffffffffffffffffffffffff02191690558160028281548110611e4c57611e4b6132e7565b5b9060005260206000200160006101000a81548173ffffffffffffffffffffffffffffffffffffffff021916908373ffffffffffffffffffffffffffffffffffffffff160217905550808273ffffffffffffffffffffffffffffffffffffffff168473ffffffffffffffffffffffffffffffffffffffff167fddf252ad1be2c89b69c2b068fc378daa952ba7f163c4a11628f55a4df523b3ef60405160405180910390a4505050565b6000611eff82610ffe565b90506003600083815260200190815260200160002060006101000a81549073ffffffffffffffffffffffffffffffffffffffff021916905560028281548110611f4b57611f4a6132e7565b5b9060005260206000200160006101000a81549073ffffffffffffffffffffffffffffffffffffffff021916905581600073ffffffffffffffffffffffffffffffffffffffff168273ffffffffffffffffffffffffffffffffffffffff167fddf252ad1be2c89b69c2b068fc378daa952ba7f163c4a11628f55a4df523b3ef60405160405180910390a45050565b6000600560009054906101000a900473ffffffffffffffffffffffffffffffffffffffff16905081600560006101000a81548173ffffffffffffffffffffffffffffffffffffffff021916908373ffffffffffffffffffffffffffffffffffffffff1602179055508173ffffffffffffffffffffffffffffffffffffffff168173ffffffffffffffffffffffffffffffffffffffff167f8be0079c531659141344cd1fd0a4f28419497f9722a3daafe3b4186f6b6457e060405160405180910390a35050565b60006002805490509050600a5482820111156120ef576040517f08c379a00000000000000000000000000000000000000000000000000000000081526004016120e690613b4f565b60405180910390fd5b60005b8281101561213557612103826122ca565b60066000848152602001908152602001600020819055506121248483612479565b8160010191508060010190506120f2565b5081600760003373ffffffffffffffffffffffffffffffffffffffff1673ffffffffffffffffffffffffffffffffffffffff16815260200190815260200160002060008282546121859190613512565b9250508190555060004711156121ff57600e60029054906101000a900473ffffffffffffffffffffffffffffffffffffffff1673ffffffffffffffffffffffffffffffffffffffff166108fc479081150290604051600060405180830381858888f193505050501580156121fd573d6000803e3d6000fd5b505b505050565b61220f848484611d1c565b61221b84848484612585565b61225a576040517f08c379a000000000000000000000000000000000000000000000000000000000815260040161225190613be1565b60405180910390fd5b50505050565b60007f01ffc9a7000000000000000000000000000000000000000000000000000000007bffffffffffffffffffffffffffffffffffffffffffffffffffffffff1916827bffffffffffffffffffffffffffffffffffffffffffffffffffffffff1916149050919050565b6000806122d68361270c565b90506000600a6014603084901c6122ed9190613c01565b6122f79190613512565b600a6007846123069190613c01565b6123109190613512565b606461231c91906131b3565b6123269190613512565b90506000600a6014606085901c61233d9190613c01565b6123479190613512565b600a6006606086901c61235a9190613c01565b6123649190613512565b606461237091906131b3565b61237a9190613512565b90506000600a6014609086901c6123919190613c01565b61239b9190613512565b600a6007609087901c6123ae9190613c01565b6123b89190613512565b60646123c491906131b3565b6123ce9190613512565b90506000600a601460c087901c6123e59190613c01565b6123ef9190613512565b600a600260c088901c6124029190613c01565b61240c9190613512565b606461241891906131b3565b6124229190613512565b90508082848661271061243591906131b3565b61243f9190613512565b61271061244c91906131b3565b6124569190613512565b61271061246391906131b3565b61246d9190613512565b95505050505050919050565b61248281611b3e565b156124c2576040517f08c379a00000000000000000000000000000000000000000000000000000000081526004016124b990613c7e565b60405180910390fd5b6002829080600181540180825580915050600190039060005260206000200160009091909190916101000a81548173ffffffffffffffffffffffffffffffffffffffff021916908373ffffffffffffffffffffffffffffffffffffffff160217905550808273ffffffffffffffffffffffffffffffffffffffff16600073ffffffffffffffffffffffffffffffffffffffff167fddf252ad1be2c89b69c2b068fc378daa952ba7f163c4a11628f55a4df523b3ef60405160405180910390a45050565b60006125a68473ffffffffffffffffffffffffffffffffffffffff1661274e565b156126ff578373ffffffffffffffffffffffffffffffffffffffff1663150b7a026125cf611bc6565b8786866040518563ffffffff1660e01b81526004016125f19493929190613cf3565b6020604051808303816000875af192505050801561262d57506040513d601f19601f8201168201806040525081019061262a9190613d54565b60015b6126af573d806000811461265d576040519150601f19603f3d011682016040523d82523d6000602084013e612662565b606091505b5060008151036126a7576040517f08c379a000000000000000000000000000000000000000000000000000000000815260040161269e90613be1565b60405180910390fd5b805181602001fd5b63150b7a0260e01b7bffffffffffffffffffffffffffffffffffffffffffffffffffffffff1916817bffffffffffffffffffffffffffffffffffffffffffffffffffffffff191614915050612704565b600190505b949350505050565b600060014361271b9190613d81565b408260405160200161272e929190613e01565b6040516020818303038152906040528051906020012060001c9050919050565b600080823b905060008111915050919050565b6000604051905090565b600080fd5b600080fd5b600073ffffffffffffffffffffffffffffffffffffffff82169050919050565b60006127a082612775565b9050919050565b60006127b282612795565b9050919050565b6127c2816127a7565b81146127cd57600080fd5b50565b6000813590506127df816127b9565b92915050565b6000602082840312156127fb576127fa61276b565b5b6000612809848285016127d0565b91505092915050565b60007fffffffff0000000000000000000000000000000000000000000000000000000082169050919050565b61284781612812565b811461285257600080fd5b50565b6000813590506128648161283e565b92915050565b6000602082840312156128805761287f61276b565b5b600061288e84828501612855565b91505092915050565b60008115159050919050565b6128ac81612897565b82525050565b60006020820190506128c760008301846128a3565b92915050565b600081519050919050565b600082825260208201905092915050565b60005b838110156129075780820151818401526020810190506128ec565b60008484015250505050565b6000601f19601f8301169050919050565b600061292f826128cd565b61293981856128d8565b93506129498185602086016128e9565b61295281612913565b840191505092915050565b600060208201905081810360008301526129778184612924565b905092915050565b6000819050919050565b6129928161297f565b811461299d57600080fd5b50565b6000813590506129af81612989565b92915050565b6000602082840312156129cb576129ca61276b565b5b60006129d9848285016129a0565b91505092915050565b6129eb81612795565b82525050565b6000602082019050612a0660008301846129e2565b92915050565b612a1581612795565b8114612a2057600080fd5b50565b600081359050612a3281612a0c565b92915050565b60008060408385031215612a4f57612a4e61276b565b5b6000612a5d85828601612a23565b9250506020612a6e858286016129a0565b9150509250929050565b60008060408385031215612a8f57612a8e61276b565b5b6000612a9d858286016129a0565b9250506020612aae858286016129a0565b9150509250929050565b612ac18161297f565b82525050565b6000602082019050612adc6000830184612ab8565b92915050565b600080600060608486031215612afb57612afa61276b565b5b6000612b0986828701612a23565b9350506020612b1a86828701612a23565b9250506040612b2b868287016129a0565b9150509250925092565b6000604082019050612b4a60008301856129e2565b612b576020830184612ab8565b9392505050565b6000819050919050565b6000612b83612b7e612b7984612775565b612b5e565b612775565b9050919050565b6000612b9582612b68565b9050919050565b6000612ba782612b8a565b9050919050565b612bb781612b9c565b82525050565b6000602082019050612bd26000830184612bae565b92915050565b600060208284031215612bee57612bed61276b565b5b6000612bfc84828501612a23565b91505092915050565b612c0e81612897565b8114612c1957600080fd5b50565b600081359050612c2b81612c05565b92915050565b60008060408385031215612c4857612c4761276b565b5b6000612c5685828601612a23565b9250506020612c6785828601612c1c565b9150509250929050565b600060208284031215612c8757612c8661276b565b5b6000612c9584828501612c1c565b91505092915050565b600080fd5b600080fd5b7f4e487b7100000000000000000000000000000000000000000000000000000000600052604160045260246000fd5b612ce082612913565b810181811067ffffffffffffffff82111715612cff57612cfe612ca8565b5b80604052505050565b6000612d12612761565b9050612d1e8282612cd7565b919050565b600067ffffffffffffffff821115612d3e57612d3d612ca8565b5b612d4782612913565b9050602081019050919050565b82818337600083830152505050565b6000612d76612d7184612d23565b612d08565b905082815260208101848484011115612d9257612d91612ca3565b5b612d9d848285612d54565b509392505050565b600082601f830112612dba57612db9612c9e565b5b8135612dca848260208601612d63565b91505092915050565b60008060008060808587031215612ded57612dec61276b565b5b6000612dfb87828801612a23565b9450506020612e0c87828801612a23565b9350506040612e1d878288016129a0565b925050606085013567ffffffffffffffff811115612e3e57612e3d612770565b5b612e4a87828801612da5565b91505092959194509250565b60008060408385031215612e6d57612e6c61276b565b5b6000612e7b85828601612a23565b9250506020612e8c85828601612a23565b9150509250929050565b7f4e487b7100000000000000000000000000000000000000000000000000000000600052602260045260246000fd5b60006002820490506001821680612edd57607f821691505b602082108103612ef057612eef612e96565b5b50919050565b7f4552433732313a20696e76616c696420746f6b656e2049440000000000000000600082015250565b6000612f2c6018836128d8565b9150612f3782612ef6565b602082019050919050565b60006020820190508181036000830152612f5b81612f1f565b9050919050565b7f4552433732313a20617070726f76616c20746f2063757272656e74206f776e6560008201527f7200000000000000000000000000000000000000000000000000000000000000602082015250565b6000612fbe6021836128d8565b9150612fc982612f62565b604082019050919050565b60006020820190508181036000830152612fed81612fb1565b9050919050565b7f4552433732313a20617070726f76652063616c6c6572206973206e6f74206f7760008201527f6e6572206e6f7220617070726f76656420666f7220616c6c0000000000000000602082015250565b60006130506038836128d8565b915061305b82612ff4565b604082019050919050565b6000602082019050818103600083015261307f81613043565b9050919050565b7f43616e6e6f742073657420746865207365656400000000000000000000000000600082015250565b60006130bc6013836128d8565b91506130c782613086565b602082019050919050565b600060208201905081810360008301526130eb816130af565b9050919050565b7f4552433732313a2063616c6c6572206973206e6f7420746f6b656e206f776e6560008201527f72206f7220617070726f76656400000000000000000000000000000000000000602082015250565b600061314e602d836128d8565b9150613159826130f2565b604082019050919050565b6000602082019050818103600083015261317d81613141565b9050919050565b7f4e487b7100000000000000000000000000000000000000000000000000000000600052601160045260246000fd5b60006131be8261297f565b91506131c98361297f565b92508282026131d78161297f565b915082820484148315176131ee576131ed613184565b5b5092915050565b7f4e487b7100000000000000000000000000000000000000000000000000000000600052601260045260246000fd5b600061322f8261297f565b915061323a8361297f565b92508261324a576132496131f5565b5b828204905092915050565b7f455243373231456e756d657261626c653a206f776e657220696e646578206f7560008201527f74206f6620626f756e6473000000000000000000000000000000000000000000602082015250565b60006132b1602b836128d8565b91506132bc82613255565b604082019050919050565b600060208201905081810360008301526132e0816132a4565b9050919050565b7f4e487b7100000000000000000000000000000000000000000000000000000000600052603260045260246000fd5b7f4e6f7420617070726f76656420746f206275726e2e0000000000000000000000600082015250565b600061334c6015836128d8565b915061335782613316565b602082019050919050565b6000602082019050818103600083015261337b8161333f565b9050919050565b7f455243373231456e756d657261626c653a20676c6f62616c20696e646578206f60008201527f7574206f6620626f756e64730000000000000000000000000000000000000000602082015250565b60006133de602c836128d8565b91506133e982613382565b604082019050919050565b6000602082019050818103600083015261340d816133d1565b9050919050565b7f4552433732313a2061646472657373207a65726f206973206e6f74206120766160008201527f6c6964206f776e65720000000000000000000000000000000000000000000000602082015250565b60006134706029836128d8565b915061347b82613414565b604082019050919050565b6000602082019050818103600083015261349f81613463565b9050919050565b7f496e76616c6964206d696e7420616d6f756e7421000000000000000000000000600082015250565b60006134dc6014836128d8565b91506134e7826134a6565b602082019050919050565b6000602082019050818103600083015261350b816134cf565b9050919050565b600061351d8261297f565b91506135288361297f565b92508282019050808211156135405761353f613184565b5b92915050565b7f57696c6c20657863656564206d6178696d756d20737570706c79210000000000600082015250565b600061357c601b836128d8565b915061358782613546565b602082019050919050565b600060208201905081810360008301526135ab8161356f565b9050919050565b7f4d696e74696e672066756e6374696f6e2069732064697361626c65642e000000600082015250565b60006135e8601d836128d8565b91506135f3826135b2565b602082019050919050565b60006020820190508181036000830152613617816135db565b9050919050565b7f496e73756666696369656e742066756e64732100000000000000000000000000600082015250565b60006136546013836128d8565b915061365f8261361e565b602082019050919050565b6000602082019050818103600083015261368381613647565b9050919050565b7f5075626c6963206d696e74206c696d6974206578636565646564000000000000600082015250565b60006136c0601a836128d8565b91506136cb8261368a565b602082019050919050565b600060208201905081810360008301526136ef816136b3565b9050919050565b7f4552433732313a20617070726f766520746f2063616c6c657200000000000000600082015250565b600061372c6019836128d8565b9150613737826136f6565b602082019050919050565b6000602082019050818103600083015261375b8161371f565b9050919050565b7f546f6b656e20494420646f6573206e6f742065786973742e0000000000000000600082015250565b60006137986018836128d8565b91506137a382613762565b602082019050919050565b600060208201905081810360008301526137c78161378b565b9050919050565b60006040820190506137e36000830185612ab8565b6137f06020830184612ab8565b9392505050565b600067ffffffffffffffff82111561381257613811612ca8565b5b61381b82612913565b9050602081019050919050565b600061383b613836846137f7565b612d08565b90508281526020810184848401111561385757613856612ca3565b5b6138628482856128e9565b509392505050565b600082601f83011261387f5761387e612c9e565b5b815161388f848260208601613828565b91505092915050565b6000602082840312156138ae576138ad61276b565b5b600082015167ffffffffffffffff8111156138cc576138cb612770565b5b6138d88482850161386a565b91505092915050565b7f4f776e61626c653a206e6577206f776e657220697320746865207a65726f206160008201527f6464726573730000000000000000000000000000000000000000000000000000602082015250565b600061393d6026836128d8565b9150613948826138e1565b604082019050919050565b6000602082019050818103600083015261396c81613930565b9050919050565b7f4f776e61626c653a2063616c6c6572206973206e6f7420746865206f776e6572600082015250565b60006139a96020836128d8565b91506139b482613973565b602082019050919050565b600060208201905081810360008301526139d88161399c565b9050919050565b7f4552433732313a207472616e736665722066726f6d20696e636f72726563742060008201527f6f776e6572000000000000000000000000000000000000000000000000000000602082015250565b6000613a3b6025836128d8565b9150613a46826139df565b604082019050919050565b60006020820190508181036000830152613a6a81613a2e565b9050919050565b7f4552433732313a207472616e7366657220746f20746865207a65726f2061646460008201527f7265737300000000000000000000000000000000000000000000000000000000602082015250565b6000613acd6024836128d8565b9150613ad882613a71565b604082019050919050565b60006020820190508181036000830152613afc81613ac0565b9050919050565b7f45786365656473206d617820737570706c792e00000000000000000000000000600082015250565b6000613b396013836128d8565b9150613b4482613b03565b602082019050919050565b60006020820190508181036000830152613b6881613b2c565b9050919050565b7f4552433732313a207472616e7366657220746f206e6f6e20455243373231526560008201527f63656976657220696d706c656d656e7465720000000000000000000000000000602082015250565b6000613bcb6032836128d8565b9150613bd682613b6f565b604082019050919050565b60006020820190508181036000830152613bfa81613bbe565b9050919050565b6000613c0c8261297f565b9150613c178361297f565b925082613c2757613c266131f5565b5b828206905092915050565b7f4552433732313a20746f6b656e20616c7265616479206d696e74656400000000600082015250565b6000613c68601c836128d8565b9150613c7382613c32565b602082019050919050565b60006020820190508181036000830152613c9781613c5b565b9050919050565b600081519050919050565b600082825260208201905092915050565b6000613cc582613c9e565b613ccf8185613ca9565b9350613cdf8185602086016128e9565b613ce881612913565b840191505092915050565b6000608082019050613d0860008301876129e2565b613d1560208301866129e2565b613d226040830185612ab8565b8181036060830152613d348184613cba565b905095945050505050565b600081519050613d4e8161283e565b92915050565b600060208284031215613d6a57613d6961276b565b5b6000613d7884828501613d3f565b91505092915050565b6000613d8c8261297f565b9150613d978361297f565b9250828203905081811115613daf57613dae613184565b5b92915050565b6000819050919050565b6000819050919050565b613dda613dd582613db5565b613dbf565b82525050565b6000819050919050565b613dfb613df68261297f565b613de0565b82525050565b6000613e0d8285613dc9565b602082019150613e1d8284613dea565b602082019150819050939250505056fea2646970667358221220a28089a5260674df743b10df20850f3fc6a6c305bef064eb096b95a4b580c69e64736f6c63430008110033",
  "linkReferences": {},
  "deployedLinkReferences": {}
}