{
  "_format": "hh-sol-artifact-1",
  "contractName": "FlappyOwlTestnet",
  "sourceName": "contracts/ERC-721/FlappyOwlTestnet.sol",
  "abi": [
    {
      "inputs": [
        {
          "internalType": "contract ITokenDescriptor",
          "name": "newDescriptor",
          "type": "address"
        }
      ],
      "stateMutability": "nonpayable",
      "type": "constructor"
    },
    {
      "anonymous": false,
      "inputs": [
        {
          "indexed": true,
          "internalType": "address",
          "name": "owner",
          "type": "address"
        },
        {
          "indexed": true,
          "internalType": "address",
          "name": "approved",
          "type": "address"
        },
        {
          "indexed": true,
          "internalType": "uint256",
          "name": "tokenId",
          "type": "uint256"
        }
      ],
      "name": "Approval",
      "type": "event"
    },
    {
      "anonymous": false,
      "inputs": [
        {
          "indexed": true,
          "internalType": "address",
          "name": "owner",
          "type": "address"
        },
        {
          "indexed": true,
          "internalType": "address",
          "name": "operator",
          "type": "address"
        },
        {
          "indexed": false,
          "internalType": "bool",
          "name": "approved",
          "type": "bool"
        }
      ],
      "name": "ApprovalForAll",
      "type": "event"
    },
    {
      "anonymous": false,
      "inputs": [
        {
          "indexed": true,
          "internalType": "address",
          "name": "previousOwner",
          "type": "address"
        },
        {
          "indexed": true,
          "internalType": "address",
          "name": "newOwner",
          "type": "address"
        }
      ],
      "name": "OwnershipTransferred",
      "type": "event"
    },
    {
      "anonymous": false,
      "inputs": [
        {
          "indexed": true,
          "internalType": "uint256",
          "name": "tokenId",
          "type": "uint256"
        },
        {
          "indexed": false,
          "internalType": "uint256",
          "name": "seed",
          "type": "uint256"
        }
      ],
      "name": "SeedUpdated",
      "type": "event"
    },
    {
      "anonymous": false,
      "inputs": [
        {
          "indexed": true,
          "internalType": "address",
          "name": "from",
          "type": "address"
        },
        {
          "indexed": true,
          "internalType": "address",
          "name": "to",
          "type": "address"
        },
        {
          "indexed": true,
          "internalType": "uint256",
          "name": "tokenId",
          "type": "uint256"
        }
      ],
      "name": "Transfer",
      "type": "event"
    },
    {
      "inputs": [
        {
          "internalType": "address",
          "name": "to",
          "type": "address"
        },
        {
          "internalType": "uint256",
          "name": "tokenId",
          "type": "uint256"
        }
      ],
      "name": "approve",
      "outputs": [],
      "stateMutability": "nonpayable",
      "type": "function"
    },
    {
      "inputs": [
        {
          "internalType": "address",
          "name": "owner",
          "type": "address"
        }
      ],
      "name": "balanceOf",
      "outputs": [
        {
          "internalType": "uint256",
          "name": "",
          "type": "uint256"
        }
      ],
      "stateMutability": "view",
      "type": "function"
    },
    {
      "inputs": [],
      "name": "beneficiaryAddr",
      "outputs": [
        {
          "internalType": "address",
          "name": "",
          "type": "address"
        }
      ],
      "stateMutability": "view",
      "type": "function"
    },
    {
      "inputs": [
        {
          "internalType": "uint256",
          "name": "tokenId",
          "type": "uint256"
        }
      ],
      "name": "burn",
      "outputs": [],
      "stateMutability": "nonpayable",
      "type": "function"
    },
    {
      "inputs": [],
      "name": "descriptor",
      "outputs": [
        {
          "internalType": "contract ITokenDescriptor",
          "name": "",
          "type": "address"
        }
      ],
      "stateMutability": "view",
      "type": "function"
    },
    {
      "inputs": [],
      "name": "disableSeedUpdate",
      "outputs": [],
      "stateMutability": "nonpayable",
      "type": "function"
    },
    {
      "inputs": [
        {
          "internalType": "uint256",
          "name": "tokenId",
          "type": "uint256"
        }
      ],
      "name": "getApproved",
      "outputs": [
        {
          "internalType": "address",
          "name": "",
          "type": "address"
        }
      ],
      "stateMutability": "view",
      "type": "function"
    },
    {
      "inputs": [
        {
          "internalType": "uint256",
          "name": "tokenId",
          "type": "uint256"
        }
      ],
      "name": "getSeed",
      "outputs": [
        {
          "internalType": "uint256",
          "name": "",
          "type": "uint256"
        }
      ],
      "stateMutability": "view",
      "type": "function"
    },
    {
      "inputs": [],
      "name": "getmintCount",
      "outputs": [
        {
          "internalType": "uint256",
          "name": "",
          "type": "uint256"
        }
      ],
      "stateMutability": "view",
      "type": "function"
    },
    {
      "inputs": [
        {
          "internalType": "address",
          "name": "owner",
          "type": "address"
        },
        {
          "internalType": "address",
          "name": "operator",
          "type": "address"
        }
      ],
      "name": "isApprovedForAll",
      "outputs": [
        {
          "internalType": "bool",
          "name": "",
          "type": "bool"
        }
      ],
      "stateMutability": "view",
      "type": "function"
    },
    {
      "inputs": [],
      "name": "maxMintAmountPerTx",
      "outputs": [
        {
          "internalType": "uint256",
          "name": "",
          "type": "uint256"
        }
      ],
      "stateMutability": "view",
      "type": "function"
    },
    {
      "inputs": [],
      "name": "maxSupply",
      "outputs": [
        {
          "internalType": "uint256",
          "name": "",
          "type": "uint256"
        }
      ],
      "stateMutability": "view",
      "type": "function"
    },
    {
      "inputs": [
        {
          "internalType": "uint256",
          "name": "_mintAmount",
          "type": "uint256"
        }
      ],
      "name": "mint",
      "outputs": [],
      "stateMutability": "payable",
      "type": "function"
    },
    {
      "inputs": [],
      "name": "mintCost",
      "outputs": [
        {
          "internalType": "uint256",
          "name": "",
          "type": "uint256"
        }
      ],
      "stateMutability": "view",
      "type": "function"
    },
    {
      "inputs": [
        {
          "internalType": "address",
          "name": "",
          "type": "address"
        }
      ],
      "name": "mintCount",
      "outputs": [
        {
          "internalType": "uint256",
          "name": "",
          "type": "uint256"
        }
      ],
      "stateMutability": "view",
      "type": "function"
    },
    {
      "inputs": [],
      "name": "minting",
      "outputs": [
        {
          "internalType": "bool",
          "name": "",
          "type": "bool"
        }
      ],
      "stateMutability": "view",
      "type": "function"
    },
    {
      "inputs": [],
      "name": "name",
      "outputs": [
        {
          "internalType": "string",
          "name": "",
          "type": "string"
        }
      ],
      "stateMutability": "view",
      "type": "function"
    },
    {
      "inputs": [],
      "name": "owner",
      "outputs": [
        {
          "internalType": "address",
          "name": "",
          "type": "address"
        }
      ],
      "stateMutability": "view",
      "type": "function"
    },
    {
      "inputs": [
        {
          "internalType": "uint256",
          "name": "tokenId",
          "type": "uint256"
        }
      ],
      "name": "ownerOf",
      "outputs": [
        {
          "internalType": "address",
          "name": "",
          "type": "address"
        }
      ],
      "stateMutability": "view",
      "type": "function"
    },
    {
      "inputs": [],
      "name": "renounceOwnership",
      "outputs": [],
      "stateMutability": "nonpayable",
      "type": "function"
    },
    {
      "inputs": [
        {
          "internalType": "address",
          "name": "from",
          "type": "address"
        },
        {
          "internalType": "address",
          "name": "to",
          "type": "address"
        },
        {
          "internalType": "uint256",
          "name": "tokenId",
          "type": "uint256"
        }
      ],
      "name": "safeTransferFrom",
      "outputs": [],
      "stateMutability": "nonpayable",
      "type": "function"
    },
    {
      "inputs": [
        {
          "internalType": "address",
          "name": "from",
          "type": "address"
        },
        {
          "internalType": "address",
          "name": "to",
          "type": "address"
        },
        {
          "internalType": "uint256",
          "name": "tokenId",
          "type": "uint256"
        },
        {
          "internalType": "bytes",
          "name": "data",
          "type": "bytes"
        }
      ],
      "name": "safeTransferFrom",
      "outputs": [],
      "stateMutability": "nonpayable",
      "type": "function"
    },
    {
      "inputs": [
        {
          "internalType": "address",
          "name": "operator",
          "type": "address"
        },
        {
          "internalType": "bool",
          "name": "approved",
          "type": "bool"
        }
      ],
      "name": "setApprovalForAll",
      "outputs": [],
      "stateMutability": "nonpayable",
      "type": "function"
    },
    {
      "inputs": [
        {
          "internalType": "contract ITokenDescriptor",
          "name": "newDescriptor",
          "type": "address"
        }
      ],
      "name": "setDescriptor",
      "outputs": [],
      "stateMutability": "nonpayable",
      "type": "function"
    },
    {
      "inputs": [
        {
          "internalType": "bool",
          "name": "value",
          "type": "bool"
        }
      ],
      "name": "setMinting",
      "outputs": [],
      "stateMutability": "nonpayable",
      "type": "function"
    },
    {
      "inputs": [
        {
          "internalType": "bytes4",
          "name": "interfaceId",
          "type": "bytes4"
        }
      ],
      "name": "supportsInterface",
      "outputs": [
        {
          "internalType": "bool",
          "name": "",
          "type": "bool"
        }
      ],
      "stateMutability": "view",
      "type": "function"
    },
    {
      "inputs": [],
      "name": "symbol",
      "outputs": [
        {
          "internalType": "string",
          "name": "",
          "type": "string"
        }
      ],
      "stateMutability": "view",
      "type": "function"
    },
    {
      "inputs": [
        {
          "internalType": "uint256",
          "name": "index",
          "type": "uint256"
        }
      ],
      "name": "tokenByIndex",
      "outputs": [
        {
          "internalType": "uint256",
          "name": "tokenId",
          "type": "uint256"
        }
      ],
      "stateMutability": "view",
      "type": "function"
    },
    {
      "inputs": [
        {
          "internalType": "address",
          "name": "owner",
          "type": "address"
        },
        {
          "internalType": "uint256",
          "name": "index",
          "type": "uint256"
        }
      ],
      "name": "tokenOfOwnerByIndex",
      "outputs": [
        {
          "internalType": "uint256",
          "name": "tokenId",
          "type": "uint256"
        }
      ],
      "stateMutability": "view",
      "type": "function"
    },
    {
      "inputs": [
        {
          "internalType": "uint256",
          "name": "tokenId",
          "type": "uint256"
        }
      ],
      "name": "tokenURI",
      "outputs": [
        {
          "internalType": "string",
          "name": "",
          "type": "string"
        }
      ],
      "stateMutability": "view",
      "type": "function"
    },
    {
      "inputs": [],
      "name": "totalSupply",
      "outputs": [
        {
          "internalType": "uint256",
          "name": "",
          "type": "uint256"
        }
      ],
      "stateMutability": "view",
      "type": "function"
    },
    {
      "inputs": [
        {
          "internalType": "address",
          "name": "from",
          "type": "address"
        },
        {
          "internalType": "address",
          "name": "to",
          "type": "address"
        },
        {
          "internalType": "uint256",
          "name": "tokenId",
          "type": "uint256"
        }
      ],
      "name": "transferFrom",
      "outputs": [],
      "stateMutability": "nonpayable",
      "type": "function"
    },
    {
      "inputs": [
        {
          "internalType": "address",
          "name": "newOwner",
          "type": "address"
        }
      ],
      "name": "transferOwnership",
      "outputs": [],
      "stateMutability": "nonpayable",
      "type": "function"
    },
    {
      "inputs": [],
      "name": "updatableSeed",
      "outputs": [
        {
          "internalType": "bool",
          "name": "",
          "type": "bool"
        }
      ],
      "stateMutability": "view",
      "type": "function"
    },
    {
      "inputs": [
        {
          "internalType": "uint256",
          "name": "tokenId",
          "type": "uint256"
        },
        {
          "internalType": "uint256",
          "name": "seed",
          "type": "uint256"
        }
      ],
      "name": "updateSeed",
      "outputs": [],
      "stateMutability": "nonpayable",
      "type": "function"
    }
  ],
  "bytecode": "0x608060405266470de4df820000600955614e20600a55600a600b55600a600c556001600d60006101000a81548160ff0219169083151502179055506001600d60016101000a81548160ff0219169083151502179055503480156200006257600080fd5b50604051620043f9380380620043f9833981810160405281019062000088919062000348565b6040518060400160405280601281526020017f466c61707079204f776c204f6e636861696e00000000000000000000000000008152506040518060400160405280600381526020017f464f4f00000000000000000000000000000000000000000000000000000000008152508160009081620001059190620005f4565b508060019081620001179190620005f4565b5050506200013a6200012e620001d260201b60201c565b620001da60201b60201c565b6200014a620002a060201b60201c565b600d60026101000a81548173ffffffffffffffffffffffffffffffffffffffff021916908373ffffffffffffffffffffffffffffffffffffffff16021790555080600860006101000a81548173ffffffffffffffffffffffffffffffffffffffff021916908373ffffffffffffffffffffffffffffffffffffffff16021790555050620006db565b600033905090565b6000600560009054906101000a900473ffffffffffffffffffffffffffffffffffffffff16905081600560006101000a81548173ffffffffffffffffffffffffffffffffffffffff021916908373ffffffffffffffffffffffffffffffffffffffff1602179055508173ffffffffffffffffffffffffffffffffffffffff168173ffffffffffffffffffffffffffffffffffffffff167f8be0079c531659141344cd1fd0a4f28419497f9722a3daafe3b4186f6b6457e060405160405180910390a35050565b6000600560009054906101000a900473ffffffffffffffffffffffffffffffffffffffff16905090565b600080fd5b600073ffffffffffffffffffffffffffffffffffffffff82169050919050565b6000620002fc82620002cf565b9050919050565b60006200031082620002ef565b9050919050565b620003228162000303565b81146200032e57600080fd5b50565b600081519050620003428162000317565b92915050565b600060208284031215620003615762000360620002ca565b5b6000620003718482850162000331565b91505092915050565b600081519050919050565b7f4e487b7100000000000000000000000000000000000000000000000000000000600052604160045260246000fd5b7f4e487b7100000000000000000000000000000000000000000000000000000000600052602260045260246000fd5b60006002820490506001821680620003fc57607f821691505b602082108103620004125762000411620003b4565b5b50919050565b60008190508160005260206000209050919050565b60006020601f8301049050919050565b600082821b905092915050565b6000600883026200047c7fffffffffffffffffffffffffffffffffffffffffffffffffffffffffffffffff826200043d565b6200048886836200043d565b95508019841693508086168417925050509392505050565b6000819050919050565b6000819050919050565b6000620004d5620004cf620004c984620004a0565b620004aa565b620004a0565b9050919050565b6000819050919050565b620004f183620004b4565b620005096200050082620004dc565b8484546200044a565b825550505050565b600090565b6200052062000511565b6200052d818484620004e6565b505050565b5b8181101562000555576200054960008262000516565b60018101905062000533565b5050565b601f821115620005a4576200056e8162000418565b62000579846200042d565b8101602085101562000589578190505b620005a162000598856200042d565b83018262000532565b50505b505050565b600082821c905092915050565b6000620005c960001984600802620005a9565b1980831691505092915050565b6000620005e48383620005b6565b9150826002028217905092915050565b620005ff826200037a565b67ffffffffffffffff8111156200061b576200061a62000385565b5b620006278254620003e3565b6200063482828562000559565b600060209050601f8311600181146200066c576000841562000657578287015190505b620006638582620005d6565b865550620006d3565b601f1984166200067c8662000418565b60005b82811015620006a6578489015182556001820191506020850194506020810190506200067f565b86831015620006c65784890151620006c2601f891682620005b6565b8355505b6001600288020188555050505b505050505050565b613d0e80620006eb6000396000f3fe6080604052600436106102045760003560e01c806370a0823111610118578063b88d4fde116100a0578063d5abeb011161006f578063d5abeb0114610748578063e0d4ea3714610773578063e985e9c5146107b0578063ed9ec888146107ed578063f2fde38b1461082a57610204565b8063b88d4fde1461068c578063b9e9aec1146106b5578063bdb4b848146106e0578063c87b56dd1461070b57610204565b806394354fd0116100e757806394354fd0146105c857806395d89b41146105f3578063a0712d681461061e578063a22cb4651461063a578063b4c7f0661461066357610204565b806370a082311461051e578063715018a61461055b5780637dc2268c146105725780638da5cb5b1461059d57610204565b80632f745c591161019b57806342966c681161016a57806342966c68146104255780634f6ccce71461044e5780635619f4431461048b57806362876703146104b65780636352211e146104e157610204565b80632f745c591461037d578063303e74df146103ba5780633bb2c938146103e557806342842e0e146103fc57610204565b8063095ea7b3116101d7578063095ea7b3146102d7578063176b72b41461030057806318160ddd1461032957806323b872dd1461035457610204565b806301b9a3971461020957806301ffc9a71461023257806306fdde031461026f578063081812fc1461029a575b600080fd5b34801561021557600080fd5b50610230600480360381019061022b91906126ea565b610853565b005b34801561023e57600080fd5b506102596004803603810190610254919061276f565b61089f565b60405161026691906127b7565b60405180910390f35b34801561027b57600080fd5b50610284610919565b6040516102919190612862565b60405180910390f35b3480156102a657600080fd5b506102c160048036038101906102bc91906128ba565b6109ab565b6040516102ce91906128f6565b60405180910390f35b3480156102e357600080fd5b506102fe60048036038101906102f9919061293d565b610a30565b005b34801561030c57600080fd5b506103276004803603810190610322919061297d565b610b47565b005b34801561033557600080fd5b5061033e610bf2565b60405161034b91906129cc565b60405180910390f35b34801561036057600080fd5b5061037b600480360381019061037691906129e7565b610bff565b005b34801561038957600080fd5b506103a4600480360381019061039f919061293d565b610c5f565b6040516103b191906129cc565b60405180910390f35b3480156103c657600080fd5b506103cf610d92565b6040516103dc9190612a99565b60405180910390f35b3480156103f157600080fd5b506103fa610db8565b005b34801561040857600080fd5b50610423600480360381019061041e91906129e7565b610ddd565b005b34801561043157600080fd5b5061044c600480360381019061044791906128ba565b610dfd565b005b34801561045a57600080fd5b50610475600480360381019061047091906128ba565b610e70565b60405161048291906129cc565b60405180910390f35b34801561049757600080fd5b506104a0610ec1565b6040516104ad91906129cc565b60405180910390f35b3480156104c257600080fd5b506104cb610f08565b6040516104d891906127b7565b60405180910390f35b3480156104ed57600080fd5b50610508600480360381019061050391906128ba565b610f1b565b60405161051591906128f6565b60405180910390f35b34801561052a57600080fd5b5061054560048036038101906105409190612ab4565b610fd7565b60405161055291906129cc565b60405180910390f35b34801561056757600080fd5b506105706110e5565b005b34801561057e57600080fd5b506105876110f9565b60405161059491906127b7565b60405180910390f35b3480156105a957600080fd5b506105b261110c565b6040516105bf91906128f6565b60405180910390f35b3480156105d457600080fd5b506105dd611136565b6040516105ea91906129cc565b60405180910390f35b3480156105ff57600080fd5b5061060861113c565b6040516106159190612862565b60405180910390f35b610638600480360381019061063391906128ba565b6111ce565b005b34801561064657600080fd5b50610661600480360381019061065c9190612b0d565b611409565b005b34801561066f57600080fd5b5061068a60048036038101906106859190612b4d565b611589565b005b34801561069857600080fd5b506106b360048036038101906106ae9190612caf565b6115ae565b005b3480156106c157600080fd5b506106ca611610565b6040516106d791906128f6565b60405180910390f35b3480156106ec57600080fd5b506106f5611636565b60405161070291906129cc565b60405180910390f35b34801561071757600080fd5b50610732600480360381019061072d91906128ba565b61163c565b60405161073f9190612862565b60405180910390f35b34801561075457600080fd5b5061075d611749565b60405161076a91906129cc565b60405180910390f35b34801561077f57600080fd5b5061079a600480360381019061079591906128ba565b61174f565b6040516107a791906129cc565b60405180910390f35b3480156107bc57600080fd5b506107d760048036038101906107d29190612d32565b6117b4565b6040516107e491906127b7565b60405180910390f35b3480156107f957600080fd5b50610814600480360381019061080f9190612ab4565b611848565b60405161082191906129cc565b60405180910390f35b34801561083657600080fd5b50610851600480360381019061084c9190612ab4565b611860565b005b61085b6118e3565b80600860006101000a81548173ffffffffffffffffffffffffffffffffffffffff021916908373ffffffffffffffffffffffffffffffffffffffff16021790555050565b60007f780e9d63000000000000000000000000000000000000000000000000000000007bffffffffffffffffffffffffffffffffffffffffffffffffffffffff1916827bffffffffffffffffffffffffffffffffffffffffffffffffffffffff19161480610912575061091182611961565b5b9050919050565b60606000805461092890612da1565b80601f016020809104026020016040519081016040528092919081815260200182805461095490612da1565b80156109a15780601f10610976576101008083540402835291602001916109a1565b820191906000526020600020905b81548152906001019060200180831161098457829003601f168201915b5050505050905090565b60006109b682611a43565b6109f5576040517f08c379a00000000000000000000000000000000000000000000000000000000081526004016109ec90612e1e565b60405180910390fd5b6003600083815260200190815260200160002060009054906101000a900473ffffffffffffffffffffffffffffffffffffffff169050919050565b6000610a3b82610f1b565b90508073ffffffffffffffffffffffffffffffffffffffff168373ffffffffffffffffffffffffffffffffffffffff1603610aab576040517f08c379a0000000000000000000000000000000000000000000000000000000008152600401610aa290612eb0565b60405180910390fd5b8073ffffffffffffffffffffffffffffffffffffffff16610aca611acb565b73ffffffffffffffffffffffffffffffffffffffff161480610af95750610af881610af3611acb565b6117b4565b5b610b38576040517f08c379a0000000000000000000000000000000000000000000000000000000008152600401610b2f90612f42565b60405180910390fd5b610b428383611ad3565b505050565b610b4f6118e3565b600d60019054906101000a900460ff16610b9e576040517f08c379a0000000000000000000000000000000000000000000000000000000008152600401610b9590612fae565b60405180910390fd5b806006600084815260200190815260200160002081905550817faabfe5e8bccf1a1352f72b557ce580211305c37f88d5783ae467a1ba5e0761e082604051610be691906129cc565b60405180910390a25050565b6000600280549050905090565b610c10610c0a611acb565b82611b8c565b610c4f576040517f08c379a0000000000000000000000000000000000000000000000000000000008152600401610c4690613040565b60405180910390fd5b610c5a838383611c21565b505050565b6000610c6a83610fd7565b8210610cab576040517f08c379a0000000000000000000000000000000000000000000000000000000008152600401610ca2906130d2565b60405180910390fd5b6000805b600280549050811015610d505760028181548110610cd057610ccf6130f2565b5b9060005260206000200160009054906101000a900473ffffffffffffffffffffffffffffffffffffffff1673ffffffffffffffffffffffffffffffffffffffff168573ffffffffffffffffffffffffffffffffffffffff1603610d4557838203610d3e578092505050610d8c565b8160010191505b806001019050610caf565b506040517f08c379a0000000000000000000000000000000000000000000000000000000008152600401610d83906130d2565b60405180910390fd5b92915050565b600860009054906101000a900473ffffffffffffffffffffffffffffffffffffffff1681565b610dc06118e3565b6000600d60016101000a81548160ff021916908315150217905550565b610df8838383604051806020016040528060008152506115ae565b505050565b610e0e610e08611acb565b82611b8c565b610e4d576040517f08c379a0000000000000000000000000000000000000000000000000000000008152600401610e449061316d565b60405180910390fd5b6006600082815260200190815260200160002060009055610e6d81611df9565b50565b60006002805490508210610eb9576040517f08c379a0000000000000000000000000000000000000000000000000000000008152600401610eb0906131ff565b60405180910390fd5b819050919050565b6000600760003373ffffffffffffffffffffffffffffffffffffffff1673ffffffffffffffffffffffffffffffffffffffff16815260200190815260200160002054905090565b600d60019054906101000a900460ff1681565b60008060028381548110610f3257610f316130f2565b5b9060005260206000200160009054906101000a900473ffffffffffffffffffffffffffffffffffffffff169050600073ffffffffffffffffffffffffffffffffffffffff168173ffffffffffffffffffffffffffffffffffffffff1603610fce576040517f08c379a0000000000000000000000000000000000000000000000000000000008152600401610fc590612e1e565b60405180910390fd5b80915050919050565b60008073ffffffffffffffffffffffffffffffffffffffff168273ffffffffffffffffffffffffffffffffffffffff1603611047576040517f08c379a000000000000000000000000000000000000000000000000000000000815260040161103e90613291565b60405180910390fd5b6000805b6002805490508110156110db576002818154811061106c5761106b6130f2565b5b9060005260206000200160009054906101000a900473ffffffffffffffffffffffffffffffffffffffff1673ffffffffffffffffffffffffffffffffffffffff168473ffffffffffffffffffffffffffffffffffffffff16036110d0578160010191505b80600101905061104b565b5080915050919050565b6110ed6118e3565b6110f76000611edd565b565b600d60009054906101000a900460ff1681565b6000600560009054906101000a900473ffffffffffffffffffffffffffffffffffffffff16905090565b600b5481565b60606001805461114b90612da1565b80601f016020809104026020016040519081016040528092919081815260200182805461117790612da1565b80156111c45780601f10611199576101008083540402835291602001916111c4565b820191906000526020600020905b8154815290600101906020018083116111a757829003601f168201915b5050505050905090565b806000811180156111e15750600b548111155b611220576040517f08c379a0000000000000000000000000000000000000000000000000000000008152600401611217906132fd565b60405180910390fd5b600a548161122c610bf2565b611236919061334c565b1115611277576040517f08c379a000000000000000000000000000000000000000000000000000000000815260040161126e906133cc565b60405180910390fd5b600d60009054906101000a900460ff166112c6576040517f08c379a00000000000000000000000000000000000000000000000000000000081526004016112bd90613438565b60405180910390fd5b816009546112d49190613458565b341015611316576040517f08c379a000000000000000000000000000000000000000000000000000000000815260040161130d906134e6565b60405180910390fd5b600c5482600760003373ffffffffffffffffffffffffffffffffffffffff1673ffffffffffffffffffffffffffffffffffffffff16815260200190815260200160002054611364919061334c565b11156113a5576040517f08c379a000000000000000000000000000000000000000000000000000000000815260040161139c90613552565b60405180910390fd5b6113af3383611fa3565b81600760003373ffffffffffffffffffffffffffffffffffffffff1673ffffffffffffffffffffffffffffffffffffffff16815260200190815260200160002060008282546113fe919061334c565b925050819055505050565b8173ffffffffffffffffffffffffffffffffffffffff16611428611acb565b73ffffffffffffffffffffffffffffffffffffffff160361147e576040517f08c379a0000000000000000000000000000000000000000000000000000000008152600401611475906135be565b60405180910390fd5b806004600061148b611acb565b73ffffffffffffffffffffffffffffffffffffffff1673ffffffffffffffffffffffffffffffffffffffff16815260200190815260200160002060008473ffffffffffffffffffffffffffffffffffffffff1673ffffffffffffffffffffffffffffffffffffffff16815260200190815260200160002060006101000a81548160ff0219169083151502179055508173ffffffffffffffffffffffffffffffffffffffff16611538611acb565b73ffffffffffffffffffffffffffffffffffffffff167f17307eab39ab6107e8899845ad3d59bd9653f200f220920489ca2b5937696c318360405161157d91906127b7565b60405180910390a35050565b6115916118e3565b80600d60006101000a81548160ff02191690831515021790555050565b6115bf6115b9611acb565b83611b8c565b6115fe576040517f08c379a00000000000000000000000000000000000000000000000000000000081526004016115f590613040565b60405180910390fd5b61160a84848484612109565b50505050565b600d60029054906101000a900473ffffffffffffffffffffffffffffffffffffffff1681565b60095481565b606061164782611a43565b611686576040517f08c379a000000000000000000000000000000000000000000000000000000000815260040161167d9061362a565b60405180910390fd5b600060066000848152602001908152602001600020549050600860009054906101000a900473ffffffffffffffffffffffffffffffffffffffff1673ffffffffffffffffffffffffffffffffffffffff166392cb829d84836040518363ffffffff1660e01b81526004016116fb92919061364a565b600060405180830381865afa158015611718573d6000803e3d6000fd5b505050506040513d6000823e3d601f19601f820116820180604052508101906117419190613714565b915050919050565b600a5481565b600061175a82611a43565b611799576040517f08c379a00000000000000000000000000000000000000000000000000000000081526004016117909061362a565b60405180910390fd5b60066000838152602001908152602001600020549050919050565b6000600460008473ffffffffffffffffffffffffffffffffffffffff1673ffffffffffffffffffffffffffffffffffffffff16815260200190815260200160002060008373ffffffffffffffffffffffffffffffffffffffff1673ffffffffffffffffffffffffffffffffffffffff16815260200190815260200160002060009054906101000a900460ff16905092915050565b60076020528060005260406000206000915090505481565b6118686118e3565b600073ffffffffffffffffffffffffffffffffffffffff168173ffffffffffffffffffffffffffffffffffffffff16036118d7576040517f08c379a00000000000000000000000000000000000000000000000000000000081526004016118ce906137cf565b60405180910390fd5b6118e081611edd565b50565b6118eb611acb565b73ffffffffffffffffffffffffffffffffffffffff1661190961110c565b73ffffffffffffffffffffffffffffffffffffffff161461195f576040517f08c379a00000000000000000000000000000000000000000000000000000000081526004016119569061383b565b60405180910390fd5b565b60007f80ac58cd000000000000000000000000000000000000000000000000000000007bffffffffffffffffffffffffffffffffffffffffffffffffffffffff1916827bffffffffffffffffffffffffffffffffffffffffffffffffffffffff19161480611a2c57507f5b5e139f000000000000000000000000000000000000000000000000000000007bffffffffffffffffffffffffffffffffffffffffffffffffffffffff1916827bffffffffffffffffffffffffffffffffffffffffffffffffffffffff1916145b80611a3c5750611a3b82612165565b5b9050919050565b600060028054905082108015611ac45750600073ffffffffffffffffffffffffffffffffffffffff1660028381548110611a8057611a7f6130f2565b5b9060005260206000200160009054906101000a900473ffffffffffffffffffffffffffffffffffffffff1673ffffffffffffffffffffffffffffffffffffffff1614155b9050919050565b600033905090565b816003600083815260200190815260200160002060006101000a81548173ffffffffffffffffffffffffffffffffffffffff021916908373ffffffffffffffffffffffffffffffffffffffff160217905550808273ffffffffffffffffffffffffffffffffffffffff16611b4683610f1b565b73ffffffffffffffffffffffffffffffffffffffff167f8c5be1e5ebec7d5bd14f71427d1e84f3dd0314c0f7b2291e5b200ac8c7c3b92560405160405180910390a45050565b600080611b9883610f1b565b90508073ffffffffffffffffffffffffffffffffffffffff168473ffffffffffffffffffffffffffffffffffffffff161480611bda5750611bd981856117b4565b5b80611c1857508373ffffffffffffffffffffffffffffffffffffffff16611c00846109ab565b73ffffffffffffffffffffffffffffffffffffffff16145b91505092915050565b8273ffffffffffffffffffffffffffffffffffffffff16611c4182610f1b565b73ffffffffffffffffffffffffffffffffffffffff1614611c97576040517f08c379a0000000000000000000000000000000000000000000000000000000008152600401611c8e906138cd565b60405180910390fd5b600073ffffffffffffffffffffffffffffffffffffffff168273ffffffffffffffffffffffffffffffffffffffff1603611d06576040517f08c379a0000000000000000000000000000000000000000000000000000000008152600401611cfd9061395f565b60405180910390fd5b6003600082815260200190815260200160002060006101000a81549073ffffffffffffffffffffffffffffffffffffffff02191690558160028281548110611d5157611d506130f2565b5b9060005260206000200160006101000a81548173ffffffffffffffffffffffffffffffffffffffff021916908373ffffffffffffffffffffffffffffffffffffffff160217905550808273ffffffffffffffffffffffffffffffffffffffff168473ffffffffffffffffffffffffffffffffffffffff167fddf252ad1be2c89b69c2b068fc378daa952ba7f163c4a11628f55a4df523b3ef60405160405180910390a4505050565b6000611e0482610f1b565b90506003600083815260200190815260200160002060006101000a81549073ffffffffffffffffffffffffffffffffffffffff021916905560028281548110611e5057611e4f6130f2565b5b9060005260206000200160006101000a81549073ffffffffffffffffffffffffffffffffffffffff021916905581600073ffffffffffffffffffffffffffffffffffffffff168273ffffffffffffffffffffffffffffffffffffffff167fddf252ad1be2c89b69c2b068fc378daa952ba7f163c4a11628f55a4df523b3ef60405160405180910390a45050565b6000600560009054906101000a900473ffffffffffffffffffffffffffffffffffffffff16905081600560006101000a81548173ffffffffffffffffffffffffffffffffffffffff021916908373ffffffffffffffffffffffffffffffffffffffff1602179055508173ffffffffffffffffffffffffffffffffffffffff168173ffffffffffffffffffffffffffffffffffffffff167f8be0079c531659141344cd1fd0a4f28419497f9722a3daafe3b4186f6b6457e060405160405180910390a35050565b60006002805490509050600a548282011115611ff4576040517f08c379a0000000000000000000000000000000000000000000000000000000008152600401611feb906139cb565b60405180910390fd5b60005b8281101561203a57612008826121cf565b6006600084815260200190815260200160002081905550612029848361237e565b816001019150806001019050611ff7565b5081600760003373ffffffffffffffffffffffffffffffffffffffff1673ffffffffffffffffffffffffffffffffffffffff168152602001908152602001600020600082825461208a919061334c565b92505081905550600047111561210457600d60029054906101000a900473ffffffffffffffffffffffffffffffffffffffff1673ffffffffffffffffffffffffffffffffffffffff166108fc479081150290604051600060405180830381858888f19350505050158015612102573d6000803e3d6000fd5b505b505050565b612114848484611c21565b6121208484848461248a565b61215f576040517f08c379a000000000000000000000000000000000000000000000000000000000815260040161215690613a5d565b60405180910390fd5b50505050565b60007f01ffc9a7000000000000000000000000000000000000000000000000000000007bffffffffffffffffffffffffffffffffffffffffffffffffffffffff1916827bffffffffffffffffffffffffffffffffffffffffffffffffffffffff1916149050919050565b6000806121db83612611565b90506000600a6014603084901c6121f29190613aac565b6121fc919061334c565b600a60078461220b9190613aac565b612215919061334c565b60646122219190613458565b61222b919061334c565b90506000600a6014606085901c6122429190613aac565b61224c919061334c565b600a6006606086901c61225f9190613aac565b612269919061334c565b60646122759190613458565b61227f919061334c565b90506000600a6014609086901c6122969190613aac565b6122a0919061334c565b600a6007609087901c6122b39190613aac565b6122bd919061334c565b60646122c99190613458565b6122d3919061334c565b90506000600a601460c087901c6122ea9190613aac565b6122f4919061334c565b600a600260c088901c6123079190613aac565b612311919061334c565b606461231d9190613458565b612327919061334c565b90508082848661271061233a9190613458565b612344919061334c565b6127106123519190613458565b61235b919061334c565b6127106123689190613458565b612372919061334c565b95505050505050919050565b61238781611a43565b156123c7576040517f08c379a00000000000000000000000000000000000000000000000000000000081526004016123be90613b29565b60405180910390fd5b6002829080600181540180825580915050600190039060005260206000200160009091909190916101000a81548173ffffffffffffffffffffffffffffffffffffffff021916908373ffffffffffffffffffffffffffffffffffffffff160217905550808273ffffffffffffffffffffffffffffffffffffffff16600073ffffffffffffffffffffffffffffffffffffffff167fddf252ad1be2c89b69c2b068fc378daa952ba7f163c4a11628f55a4df523b3ef60405160405180910390a45050565b60006124ab8473ffffffffffffffffffffffffffffffffffffffff16612653565b15612604578373ffffffffffffffffffffffffffffffffffffffff1663150b7a026124d4611acb565b8786866040518563ffffffff1660e01b81526004016124f69493929190613b9e565b6020604051808303816000875af192505050801561253257506040513d601f19601f8201168201806040525081019061252f9190613bff565b60015b6125b4573d8060008114612562576040519150601f19603f3d011682016040523d82523d6000602084013e612567565b606091505b5060008151036125ac576040517f08c379a00000000000000000000000000000000000000000000000000000000081526004016125a390613a5d565b60405180910390fd5b805181602001fd5b63150b7a0260e01b7bffffffffffffffffffffffffffffffffffffffffffffffffffffffff1916817bffffffffffffffffffffffffffffffffffffffffffffffffffffffff191614915050612609565b600190505b949350505050565b60006001436126209190613c2c565b4082604051602001612633929190613cac565b6040516020818303038152906040528051906020012060001c9050919050565b600080823b905060008111915050919050565b6000604051905090565b600080fd5b600080fd5b600073ffffffffffffffffffffffffffffffffffffffff82169050919050565b60006126a58261267a565b9050919050565b60006126b78261269a565b9050919050565b6126c7816126ac565b81146126d257600080fd5b50565b6000813590506126e4816126be565b92915050565b600060208284031215612700576126ff612670565b5b600061270e848285016126d5565b91505092915050565b60007fffffffff0000000000000000000000000000000000000000000000000000000082169050919050565b61274c81612717565b811461275757600080fd5b50565b60008135905061276981612743565b92915050565b60006020828403121561278557612784612670565b5b60006127938482850161275a565b91505092915050565b60008115159050919050565b6127b18161279c565b82525050565b60006020820190506127cc60008301846127a8565b92915050565b600081519050919050565b600082825260208201905092915050565b60005b8381101561280c5780820151818401526020810190506127f1565b60008484015250505050565b6000601f19601f8301169050919050565b6000612834826127d2565b61283e81856127dd565b935061284e8185602086016127ee565b61285781612818565b840191505092915050565b6000602082019050818103600083015261287c8184612829565b905092915050565b6000819050919050565b61289781612884565b81146128a257600080fd5b50565b6000813590506128b48161288e565b92915050565b6000602082840312156128d0576128cf612670565b5b60006128de848285016128a5565b91505092915050565b6128f08161269a565b82525050565b600060208201905061290b60008301846128e7565b92915050565b61291a8161269a565b811461292557600080fd5b50565b60008135905061293781612911565b92915050565b6000806040838503121561295457612953612670565b5b600061296285828601612928565b9250506020612973858286016128a5565b9150509250929050565b6000806040838503121561299457612993612670565b5b60006129a2858286016128a5565b92505060206129b3858286016128a5565b9150509250929050565b6129c681612884565b82525050565b60006020820190506129e160008301846129bd565b92915050565b600080600060608486031215612a00576129ff612670565b5b6000612a0e86828701612928565b9350506020612a1f86828701612928565b9250506040612a30868287016128a5565b9150509250925092565b6000819050919050565b6000612a5f612a5a612a558461267a565b612a3a565b61267a565b9050919050565b6000612a7182612a44565b9050919050565b6000612a8382612a66565b9050919050565b612a9381612a78565b82525050565b6000602082019050612aae6000830184612a8a565b92915050565b600060208284031215612aca57612ac9612670565b5b6000612ad884828501612928565b91505092915050565b612aea8161279c565b8114612af557600080fd5b50565b600081359050612b0781612ae1565b92915050565b60008060408385031215612b2457612b23612670565b5b6000612b3285828601612928565b9250506020612b4385828601612af8565b9150509250929050565b600060208284031215612b6357612b62612670565b5b6000612b7184828501612af8565b91505092915050565b600080fd5b600080fd5b7f4e487b7100000000000000000000000000000000000000000000000000000000600052604160045260246000fd5b612bbc82612818565b810181811067ffffffffffffffff82111715612bdb57612bda612b84565b5b80604052505050565b6000612bee612666565b9050612bfa8282612bb3565b919050565b600067ffffffffffffffff821115612c1a57612c19612b84565b5b612c2382612818565b9050602081019050919050565b82818337600083830152505050565b6000612c52612c4d84612bff565b612be4565b905082815260208101848484011115612c6e57612c6d612b7f565b5b612c79848285612c30565b509392505050565b600082601f830112612c9657612c95612b7a565b5b8135612ca6848260208601612c3f565b91505092915050565b60008060008060808587031215612cc957612cc8612670565b5b6000612cd787828801612928565b9450506020612ce887828801612928565b9350506040612cf9878288016128a5565b925050606085013567ffffffffffffffff811115612d1a57612d19612675565b5b612d2687828801612c81565b91505092959194509250565b60008060408385031215612d4957612d48612670565b5b6000612d5785828601612928565b9250506020612d6885828601612928565b9150509250929050565b7f4e487b7100000000000000000000000000000000000000000000000000000000600052602260045260246000fd5b60006002820490506001821680612db957607f821691505b602082108103612dcc57612dcb612d72565b5b50919050565b7f4552433732313a20696e76616c696420746f6b656e2049440000000000000000600082015250565b6000612e086018836127dd565b9150612e1382612dd2565b602082019050919050565b60006020820190508181036000830152612e3781612dfb565b9050919050565b7f4552433732313a20617070726f76616c20746f2063757272656e74206f776e6560008201527f7200000000000000000000000000000000000000000000000000000000000000602082015250565b6000612e9a6021836127dd565b9150612ea582612e3e565b604082019050919050565b60006020820190508181036000830152612ec981612e8d565b9050919050565b7f4552433732313a20617070726f76652063616c6c6572206973206e6f74206f7760008201527f6e6572206e6f7220617070726f76656420666f7220616c6c0000000000000000602082015250565b6000612f2c6038836127dd565b9150612f3782612ed0565b604082019050919050565b60006020820190508181036000830152612f5b81612f1f565b9050919050565b7f43616e6e6f742073657420746865207365656400000000000000000000000000600082015250565b6000612f986013836127dd565b9150612fa382612f62565b602082019050919050565b60006020820190508181036000830152612fc781612f8b565b9050919050565b7f4552433732313a2063616c6c6572206973206e6f7420746f6b656e206f776e6560008201527f72206f7220617070726f76656400000000000000000000000000000000000000602082015250565b600061302a602d836127dd565b915061303582612fce565b604082019050919050565b600060208201905081810360008301526130598161301d565b9050919050565b7f455243373231456e756d657261626c653a206f776e657220696e646578206f7560008201527f74206f6620626f756e6473000000000000000000000000000000000000000000602082015250565b60006130bc602b836127dd565b91506130c782613060565b604082019050919050565b600060208201905081810360008301526130eb816130af565b9050919050565b7f4e487b7100000000000000000000000000000000000000000000000000000000600052603260045260246000fd5b7f4e6f7420617070726f76656420746f206275726e2e0000000000000000000000600082015250565b60006131576015836127dd565b915061316282613121565b602082019050919050565b600060208201905081810360008301526131868161314a565b9050919050565b7f455243373231456e756d657261626c653a20676c6f62616c20696e646578206f60008201527f7574206f6620626f756e64730000000000000000000000000000000000000000602082015250565b60006131e9602c836127dd565b91506131f48261318d565b604082019050919050565b60006020820190508181036000830152613218816131dc565b9050919050565b7f4552433732313a2061646472657373207a65726f206973206e6f74206120766160008201527f6c6964206f776e65720000000000000000000000000000000000000000000000602082015250565b600061327b6029836127dd565b91506132868261321f565b604082019050919050565b600060208201905081810360008301526132aa8161326e565b9050919050565b7f496e76616c6964206d696e7420616d6f756e7421000000000000000000000000600082015250565b60006132e76014836127dd565b91506132f2826132b1565b602082019050919050565b60006020820190508181036000830152613316816132da565b9050919050565b7f4e487b7100000000000000000000000000000000000000000000000000000000600052601160045260246000fd5b600061335782612884565b915061336283612884565b925082820190508082111561337a5761337961331d565b5b92915050565b7f57696c6c20657863656564206d6178696d756d20737570706c79210000000000600082015250565b60006133b6601b836127dd565b91506133c182613380565b602082019050919050565b600060208201905081810360008301526133e5816133a9565b9050919050565b7f4d696e74696e672066756e6374696f6e2069732064697361626c65642e000000600082015250565b6000613422601d836127dd565b915061342d826133ec565b602082019050919050565b6000602082019050818103600083015261345181613415565b9050919050565b600061346382612884565b915061346e83612884565b925082820261347c81612884565b915082820484148315176134935761349261331d565b5b5092915050565b7f496e73756666696369656e742066756e64732100000000000000000000000000600082015250565b60006134d06013836127dd565b91506134db8261349a565b602082019050919050565b600060208201905081810360008301526134ff816134c3565b9050919050565b7f5075626c6963206d696e74206c696d6974206578636565646564000000000000600082015250565b600061353c601a836127dd565b915061354782613506565b602082019050919050565b6000602082019050818103600083015261356b8161352f565b9050919050565b7f4552433732313a20617070726f766520746f2063616c6c657200000000000000600082015250565b60006135a86019836127dd565b91506135b382613572565b602082019050919050565b600060208201905081810360008301526135d78161359b565b9050919050565b7f546f6b656e20494420646f6573206e6f742065786973742e0000000000000000600082015250565b60006136146018836127dd565b915061361f826135de565b602082019050919050565b6000602082019050818103600083015261364381613607565b9050919050565b600060408201905061365f60008301856129bd565b61366c60208301846129bd565b9392505050565b600067ffffffffffffffff82111561368e5761368d612b84565b5b61369782612818565b9050602081019050919050565b60006136b76136b284613673565b612be4565b9050828152602081018484840111156136d3576136d2612b7f565b5b6136de8482856127ee565b509392505050565b600082601f8301126136fb576136fa612b7a565b5b815161370b8482602086016136a4565b91505092915050565b60006020828403121561372a57613729612670565b5b600082015167ffffffffffffffff81111561374857613747612675565b5b613754848285016136e6565b91505092915050565b7f4f776e61626c653a206e6577206f776e657220697320746865207a65726f206160008201527f6464726573730000000000000000000000000000000000000000000000000000602082015250565b60006137b96026836127dd565b91506137c48261375d565b604082019050919050565b600060208201905081810360008301526137e8816137ac565b9050919050565b7f4f776e61626c653a2063616c6c6572206973206e6f7420746865206f776e6572600082015250565b60006138256020836127dd565b9150613830826137ef565b602082019050919050565b6000602082019050818103600083015261385481613818565b9050919050565b7f4552433732313a207472616e736665722066726f6d20696e636f72726563742060008201527f6f776e6572000000000000000000000000000000000000000000000000000000602082015250565b60006138b76025836127dd565b91506138c28261385b565b604082019050919050565b600060208201905081810360008301526138e6816138aa565b9050919050565b7f4552433732313a207472616e7366657220746f20746865207a65726f2061646460008201527f7265737300000000000000000000000000000000000000000000000000000000602082015250565b60006139496024836127dd565b9150613954826138ed565b604082019050919050565b600060208201905081810360008301526139788161393c565b9050919050565b7f45786365656473206d617820737570706c792e00000000000000000000000000600082015250565b60006139b56013836127dd565b91506139c08261397f565b602082019050919050565b600060208201905081810360008301526139e4816139a8565b9050919050565b7f4552433732313a207472616e7366657220746f206e6f6e20455243373231526560008201527f63656976657220696d706c656d656e7465720000000000000000000000000000602082015250565b6000613a476032836127dd565b9150613a52826139eb565b604082019050919050565b60006020820190508181036000830152613a7681613a3a565b9050919050565b7f4e487b7100000000000000000000000000000000000000000000000000000000600052601260045260246000fd5b6000613ab782612884565b9150613ac283612884565b925082613ad257613ad1613a7d565b5b828206905092915050565b7f4552433732313a20746f6b656e20616c7265616479206d696e74656400000000600082015250565b6000613b13601c836127dd565b9150613b1e82613add565b602082019050919050565b60006020820190508181036000830152613b4281613b06565b9050919050565b600081519050919050565b600082825260208201905092915050565b6000613b7082613b49565b613b7a8185613b54565b9350613b8a8185602086016127ee565b613b9381612818565b840191505092915050565b6000608082019050613bb360008301876128e7565b613bc060208301866128e7565b613bcd60408301856129bd565b8181036060830152613bdf8184613b65565b905095945050505050565b600081519050613bf981612743565b92915050565b600060208284031215613c1557613c14612670565b5b6000613c2384828501613bea565b91505092915050565b6000613c3782612884565b9150613c4283612884565b9250828203905081811115613c5a57613c5961331d565b5b92915050565b6000819050919050565b6000819050919050565b613c85613c8082613c60565b613c6a565b82525050565b6000819050919050565b613ca6613ca182612884565b613c8b565b82525050565b6000613cb88285613c74565b602082019150613cc88284613c95565b602082019150819050939250505056fea2646970667358221220b059af7db9bdaf2bffa7950df06ba45ee4e8aacaac8046b5bb19d91aef2b494b64736f6c63430008110033",
  "linkReferences": {},
  "deployedLinkReferences": {}
}