{
  "_format": "hh-sol-artifact-1",
  "contractName": "FlappyOwlV1",
  "sourceName": "contracts/ERC-721/FlappyOwlV1.sol",
  "abi": [
    {
      "inputs": [
        {
          "internalType": "contract ITokenDescriptor",
          "name": "newDescriptor",
          "type": "address"
        }
      ],
      "stateMutability": "nonpayable",
      "type": "constructor"
    },
    {
      "inputs": [],
      "name": "ApprovalCallerNotOwnerNorApproved",
      "type": "error"
    },
    {
      "inputs": [],
      "name": "ApprovalQueryForNonexistentToken",
      "type": "error"
    },
    {
      "inputs": [],
      "name": "BalanceQueryForZeroAddress",
      "type": "error"
    },
    {
      "inputs": [],
      "name": "MintERC2309QuantityExceedsLimit",
      "type": "error"
    },
    {
      "inputs": [],
      "name": "MintToZeroAddress",
      "type": "error"
    },
    {
      "inputs": [],
      "name": "MintZeroQuantity",
      "type": "error"
    },
    {
      "inputs": [
        {
          "internalType": "address",
          "name": "operator",
          "type": "address"
        }
      ],
      "name": "OperatorNotAllowed",
      "type": "error"
    },
    {
      "inputs": [],
      "name": "OwnerQueryForNonexistentToken",
      "type": "error"
    },
    {
      "inputs": [],
      "name": "OwnershipNotInitializedForExtraData",
      "type": "error"
    },
    {
      "inputs": [],
      "name": "TransferCallerNotOwnerNorApproved",
      "type": "error"
    },
    {
      "inputs": [],
      "name": "TransferFromIncorrectOwner",
      "type": "error"
    },
    {
      "inputs": [],
      "name": "TransferToNonERC721ReceiverImplementer",
      "type": "error"
    },
    {
      "inputs": [],
      "name": "TransferToZeroAddress",
      "type": "error"
    },
    {
      "inputs": [],
      "name": "URIQueryForNonexistentToken",
      "type": "error"
    },
    {
      "anonymous": false,
      "inputs": [
        {
          "indexed": true,
          "internalType": "address",
          "name": "owner",
          "type": "address"
        },
        {
          "indexed": true,
          "internalType": "address",
          "name": "approved",
          "type": "address"
        },
        {
          "indexed": true,
          "internalType": "uint256",
          "name": "tokenId",
          "type": "uint256"
        }
      ],
      "name": "Approval",
      "type": "event"
    },
    {
      "anonymous": false,
      "inputs": [
        {
          "indexed": true,
          "internalType": "address",
          "name": "owner",
          "type": "address"
        },
        {
          "indexed": true,
          "internalType": "address",
          "name": "operator",
          "type": "address"
        },
        {
          "indexed": false,
          "internalType": "bool",
          "name": "approved",
          "type": "bool"
        }
      ],
      "name": "ApprovalForAll",
      "type": "event"
    },
    {
      "anonymous": false,
      "inputs": [
        {
          "indexed": true,
          "internalType": "uint256",
          "name": "fromTokenId",
          "type": "uint256"
        },
        {
          "indexed": false,
          "internalType": "uint256",
          "name": "toTokenId",
          "type": "uint256"
        },
        {
          "indexed": true,
          "internalType": "address",
          "name": "from",
          "type": "address"
        },
        {
          "indexed": true,
          "internalType": "address",
          "name": "to",
          "type": "address"
        }
      ],
      "name": "ConsecutiveTransfer",
      "type": "event"
    },
    {
      "anonymous": false,
      "inputs": [
        {
          "indexed": true,
          "internalType": "address",
          "name": "previousOwner",
          "type": "address"
        },
        {
          "indexed": true,
          "internalType": "address",
          "name": "newOwner",
          "type": "address"
        }
      ],
      "name": "OwnershipTransferred",
      "type": "event"
    },
    {
      "anonymous": false,
      "inputs": [
        {
          "indexed": true,
          "internalType": "uint256",
          "name": "tokenId",
          "type": "uint256"
        },
        {
          "indexed": false,
          "internalType": "uint256",
          "name": "seed",
          "type": "uint256"
        }
      ],
      "name": "SeedUpdated",
      "type": "event"
    },
    {
      "anonymous": false,
      "inputs": [
        {
          "indexed": true,
          "internalType": "address",
          "name": "from",
          "type": "address"
        },
        {
          "indexed": true,
          "internalType": "address",
          "name": "to",
          "type": "address"
        },
        {
          "indexed": true,
          "internalType": "uint256",
          "name": "tokenId",
          "type": "uint256"
        }
      ],
      "name": "Transfer",
      "type": "event"
    },
    {
      "inputs": [],
      "name": "OPERATOR_FILTER_REGISTRY",
      "outputs": [
        {
          "internalType": "contract IOperatorFilterRegistry",
          "name": "",
          "type": "address"
        }
      ],
      "stateMutability": "view",
      "type": "function"
    },
    {
      "inputs": [
        {
          "internalType": "address[]",
          "name": "_receiver",
          "type": "address[]"
        },
        {
          "internalType": "uint256",
          "name": "_amount",
          "type": "uint256"
        }
      ],
      "name": "airdrop",
      "outputs": [],
      "stateMutability": "nonpayable",
      "type": "function"
    },
    {
      "inputs": [
        {
          "internalType": "address",
          "name": "to",
          "type": "address"
        },
        {
          "internalType": "uint256",
          "name": "tokenId",
          "type": "uint256"
        }
      ],
      "name": "approve",
      "outputs": [],
      "stateMutability": "payable",
      "type": "function"
    },
    {
      "inputs": [
        {
          "internalType": "address",
          "name": "owner",
          "type": "address"
        }
      ],
      "name": "balanceOf",
      "outputs": [
        {
          "internalType": "uint256",
          "name": "",
          "type": "uint256"
        }
      ],
      "stateMutability": "view",
      "type": "function"
    },
    {
      "inputs": [],
      "name": "beneficiaryAddr",
      "outputs": [
        {
          "internalType": "address",
          "name": "",
          "type": "address"
        }
      ],
      "stateMutability": "view",
      "type": "function"
    },
    {
      "inputs": [],
      "name": "descriptor",
      "outputs": [
        {
          "internalType": "contract ITokenDescriptor",
          "name": "",
          "type": "address"
        }
      ],
      "stateMutability": "view",
      "type": "function"
    },
    {
      "inputs": [],
      "name": "disableSeedUpdate",
      "outputs": [],
      "stateMutability": "nonpayable",
      "type": "function"
    },
    {
      "inputs": [],
      "name": "feeNumerator",
      "outputs": [
        {
          "internalType": "uint256",
          "name": "",
          "type": "uint256"
        }
      ],
      "stateMutability": "view",
      "type": "function"
    },
    {
      "inputs": [
        {
          "internalType": "uint256",
          "name": "tokenId",
          "type": "uint256"
        }
      ],
      "name": "getApproved",
      "outputs": [
        {
          "internalType": "address",
          "name": "",
          "type": "address"
        }
      ],
      "stateMutability": "view",
      "type": "function"
    },
    {
      "inputs": [
        {
          "internalType": "uint256",
          "name": "tokenId",
          "type": "uint256"
        }
      ],
      "name": "getSeed",
      "outputs": [
        {
          "internalType": "uint256",
          "name": "",
          "type": "uint256"
        }
      ],
      "stateMutability": "view",
      "type": "function"
    },
    {
      "inputs": [],
      "name": "getmintCount",
      "outputs": [
        {
          "internalType": "uint256",
          "name": "",
          "type": "uint256"
        }
      ],
      "stateMutability": "view",
      "type": "function"
    },
    {
      "inputs": [
        {
          "internalType": "address",
          "name": "owner",
          "type": "address"
        },
        {
          "internalType": "address",
          "name": "operator",
          "type": "address"
        }
      ],
      "name": "isApprovedForAll",
      "outputs": [
        {
          "internalType": "bool",
          "name": "",
          "type": "bool"
        }
      ],
      "stateMutability": "view",
      "type": "function"
    },
    {
      "inputs": [],
      "name": "maxMintAmountPerTx",
      "outputs": [
        {
          "internalType": "uint256",
          "name": "",
          "type": "uint256"
        }
      ],
      "stateMutability": "view",
      "type": "function"
    },
    {
      "inputs": [],
      "name": "maxSupply",
      "outputs": [
        {
          "internalType": "uint256",
          "name": "",
          "type": "uint256"
        }
      ],
      "stateMutability": "view",
      "type": "function"
    },
    {
      "inputs": [
        {
          "internalType": "uint256",
          "name": "_mintAmount",
          "type": "uint256"
        }
      ],
      "name": "mint",
      "outputs": [],
      "stateMutability": "payable",
      "type": "function"
    },
    {
      "inputs": [],
      "name": "mintCost",
      "outputs": [
        {
          "internalType": "uint256",
          "name": "",
          "type": "uint256"
        }
      ],
      "stateMutability": "view",
      "type": "function"
    },
    {
      "inputs": [
        {
          "internalType": "address",
          "name": "",
          "type": "address"
        }
      ],
      "name": "mintCount",
      "outputs": [
        {
          "internalType": "uint256",
          "name": "",
          "type": "uint256"
        }
      ],
      "stateMutability": "view",
      "type": "function"
    },
    {
      "inputs": [],
      "name": "minting",
      "outputs": [
        {
          "internalType": "bool",
          "name": "",
          "type": "bool"
        }
      ],
      "stateMutability": "view",
      "type": "function"
    },
    {
      "inputs": [],
      "name": "name",
      "outputs": [
        {
          "internalType": "string",
          "name": "",
          "type": "string"
        }
      ],
      "stateMutability": "view",
      "type": "function"
    },
    {
      "inputs": [],
      "name": "owner",
      "outputs": [
        {
          "internalType": "address",
          "name": "",
          "type": "address"
        }
      ],
      "stateMutability": "view",
      "type": "function"
    },
    {
      "inputs": [
        {
          "internalType": "uint256",
          "name": "tokenId",
          "type": "uint256"
        }
      ],
      "name": "ownerOf",
      "outputs": [
        {
          "internalType": "address",
          "name": "",
          "type": "address"
        }
      ],
      "stateMutability": "view",
      "type": "function"
    },
    {
      "inputs": [],
      "name": "renounceOwnership",
      "outputs": [],
      "stateMutability": "nonpayable",
      "type": "function"
    },
    {
      "inputs": [
        {
          "internalType": "uint256",
          "name": "tokenId",
          "type": "uint256"
        },
        {
          "internalType": "uint256",
          "name": "salePrice",
          "type": "uint256"
        }
      ],
      "name": "royaltyInfo",
      "outputs": [
        {
          "internalType": "address",
          "name": "receiver",
          "type": "address"
        },
        {
          "internalType": "uint256",
          "name": "royaltyAmount",
          "type": "uint256"
        }
      ],
      "stateMutability": "view",
      "type": "function"
    },
    {
      "inputs": [
        {
          "internalType": "address",
          "name": "from",
          "type": "address"
        },
        {
          "internalType": "address",
          "name": "to",
          "type": "address"
        },
        {
          "internalType": "uint256",
          "name": "tokenId",
          "type": "uint256"
        }
      ],
      "name": "safeTransferFrom",
      "outputs": [],
      "stateMutability": "payable",
      "type": "function"
    },
    {
      "inputs": [
        {
          "internalType": "address",
          "name": "from",
          "type": "address"
        },
        {
          "internalType": "address",
          "name": "to",
          "type": "address"
        },
        {
          "internalType": "uint256",
          "name": "tokenId",
          "type": "uint256"
        },
        {
          "internalType": "bytes",
          "name": "data",
          "type": "bytes"
        }
      ],
      "name": "safeTransferFrom",
      "outputs": [],
      "stateMutability": "payable",
      "type": "function"
    },
    {
      "inputs": [
        {
          "internalType": "address",
          "name": "operator",
          "type": "address"
        },
        {
          "internalType": "bool",
          "name": "approved",
          "type": "bool"
        }
      ],
      "name": "setApprovalForAll",
      "outputs": [],
      "stateMutability": "nonpayable",
      "type": "function"
    },
    {
      "inputs": [
        {
          "internalType": "contract ITokenDescriptor",
          "name": "newDescriptor",
          "type": "address"
        }
      ],
      "name": "setDescriptor",
      "outputs": [],
      "stateMutability": "nonpayable",
      "type": "function"
    },
    {
      "inputs": [
        {
          "internalType": "bool",
          "name": "value",
          "type": "bool"
        }
      ],
      "name": "setMinting",
      "outputs": [],
      "stateMutability": "nonpayable",
      "type": "function"
    },
    {
      "inputs": [
        {
          "internalType": "bytes4",
          "name": "interfaceId",
          "type": "bytes4"
        }
      ],
      "name": "supportsInterface",
      "outputs": [
        {
          "internalType": "bool",
          "name": "",
          "type": "bool"
        }
      ],
      "stateMutability": "view",
      "type": "function"
    },
    {
      "inputs": [],
      "name": "symbol",
      "outputs": [
        {
          "internalType": "string",
          "name": "",
          "type": "string"
        }
      ],
      "stateMutability": "view",
      "type": "function"
    },
    {
      "inputs": [
        {
          "internalType": "uint256",
          "name": "tokenId",
          "type": "uint256"
        }
      ],
      "name": "tokenURI",
      "outputs": [
        {
          "internalType": "string",
          "name": "",
          "type": "string"
        }
      ],
      "stateMutability": "view",
      "type": "function"
    },
    {
      "inputs": [],
      "name": "totalSupply",
      "outputs": [
        {
          "internalType": "uint256",
          "name": "",
          "type": "uint256"
        }
      ],
      "stateMutability": "view",
      "type": "function"
    },
    {
      "inputs": [
        {
          "internalType": "address",
          "name": "from",
          "type": "address"
        },
        {
          "internalType": "address",
          "name": "to",
          "type": "address"
        },
        {
          "internalType": "uint256",
          "name": "tokenId",
          "type": "uint256"
        }
      ],
      "name": "transferFrom",
      "outputs": [],
      "stateMutability": "payable",
      "type": "function"
    },
    {
      "inputs": [
        {
          "internalType": "address",
          "name": "newOwner",
          "type": "address"
        }
      ],
      "name": "transferOwnership",
      "outputs": [],
      "stateMutability": "nonpayable",
      "type": "function"
    },
    {
      "inputs": [],
      "name": "updatableSeed",
      "outputs": [
        {
          "internalType": "bool",
          "name": "",
          "type": "bool"
        }
      ],
      "stateMutability": "view",
      "type": "function"
    },
    {
      "inputs": [
        {
          "internalType": "uint256",
          "name": "_royalties",
          "type": "uint256"
        }
      ],
      "name": "updateRoyalties",
      "outputs": [],
      "stateMutability": "nonpayable",
      "type": "function"
    },
    {
      "inputs": [
        {
          "internalType": "uint256",
          "name": "tokenId",
          "type": "uint256"
        },
        {
          "internalType": "uint256",
          "name": "seed",
          "type": "uint256"
        }
      ],
      "name": "updateSeed",
      "outputs": [],
      "stateMutability": "nonpayable",
      "type": "function"
    }
  ],
  "bytecode": "0x60806040526618838370f34000600d55615208600e55600a600f55600a60105560056011556001601260006101000a81548160ff0219169083151502179055506001601260016101000a81548160ff0219169083151502179055503480156200006757600080fd5b50604051620044633803806200446383398181016040528101906200008d91906200057e565b733cc6cdda760b79bafa08df41ecfa224f810dceb660016040518060400160405280600b81526020017f466c617070794f776c56320000000000000000000000000000000000000000008152506040518060400160405280600481526020017f464f56320000000000000000000000000000000000000000000000000000000081525081600290816200012191906200082a565b5080600390816200013391906200082a565b50620001446200040360201b60201c565b600081905550505060006daaeb6d7670e522a718067333cd4e73ffffffffffffffffffffffffffffffffffffffff163b11156200034157801562000207576daaeb6d7670e522a718067333cd4e73ffffffffffffffffffffffffffffffffffffffff16637d3e3dbe30846040518363ffffffff1660e01b8152600401620001cd92919062000922565b600060405180830381600087803b158015620001e857600080fd5b505af1158015620001fd573d6000803e3d6000fd5b5050505062000340565b600073ffffffffffffffffffffffffffffffffffffffff168273ffffffffffffffffffffffffffffffffffffffff1614620002c1576daaeb6d7670e522a718067333cd4e73ffffffffffffffffffffffffffffffffffffffff1663a0af290330846040518363ffffffff1660e01b81526004016200028792919062000922565b600060405180830381600087803b158015620002a257600080fd5b505af1158015620002b7573d6000803e3d6000fd5b505050506200033f565b6daaeb6d7670e522a718067333cd4e73ffffffffffffffffffffffffffffffffffffffff16634420e486306040518263ffffffff1660e01b81526004016200030a91906200094f565b600060405180830381600087803b1580156200032557600080fd5b505af11580156200033a573d6000803e3d6000fd5b505050505b5b5b505062000363620003576200040860201b60201c565b6200041060201b60201c565b60016009819055506200037b620004d660201b60201c565b601260026101000a81548173ffffffffffffffffffffffffffffffffffffffff021916908373ffffffffffffffffffffffffffffffffffffffff16021790555080600c60006101000a81548173ffffffffffffffffffffffffffffffffffffffff021916908373ffffffffffffffffffffffffffffffffffffffff160217905550506200096c565b600090565b600033905090565b6000600860009054906101000a900473ffffffffffffffffffffffffffffffffffffffff16905081600860006101000a81548173ffffffffffffffffffffffffffffffffffffffff021916908373ffffffffffffffffffffffffffffffffffffffff1602179055508173ffffffffffffffffffffffffffffffffffffffff168173ffffffffffffffffffffffffffffffffffffffff167f8be0079c531659141344cd1fd0a4f28419497f9722a3daafe3b4186f6b6457e060405160405180910390a35050565b6000600860009054906101000a900473ffffffffffffffffffffffffffffffffffffffff16905090565b600080fd5b600073ffffffffffffffffffffffffffffffffffffffff82169050919050565b6000620005328262000505565b9050919050565b6000620005468262000525565b9050919050565b620005588162000539565b81146200056457600080fd5b50565b60008151905062000578816200054d565b92915050565b60006020828403121562000597576200059662000500565b5b6000620005a78482850162000567565b91505092915050565b600081519050919050565b7f4e487b7100000000000000000000000000000000000000000000000000000000600052604160045260246000fd5b7f4e487b7100000000000000000000000000000000000000000000000000000000600052602260045260246000fd5b600060028204905060018216806200063257607f821691505b602082108103620006485762000647620005ea565b5b50919050565b60008190508160005260206000209050919050565b60006020601f8301049050919050565b600082821b905092915050565b600060088302620006b27fffffffffffffffffffffffffffffffffffffffffffffffffffffffffffffffff8262000673565b620006be868362000673565b95508019841693508086168417925050509392505050565b6000819050919050565b6000819050919050565b60006200070b62000705620006ff84620006d6565b620006e0565b620006d6565b9050919050565b6000819050919050565b6200072783620006ea565b6200073f620007368262000712565b84845462000680565b825550505050565b600090565b6200075662000747565b620007638184846200071c565b505050565b5b818110156200078b576200077f6000826200074c565b60018101905062000769565b5050565b601f821115620007da57620007a4816200064e565b620007af8462000663565b81016020851015620007bf578190505b620007d7620007ce8562000663565b83018262000768565b50505b505050565b600082821c905092915050565b6000620007ff60001984600802620007df565b1980831691505092915050565b60006200081a8383620007ec565b9150826002028217905092915050565b6200083582620005b0565b67ffffffffffffffff811115620008515762000850620005bb565b5b6200085d825462000619565b6200086a8282856200078f565b600060209050601f831160018114620008a257600084156200088d578287015190505b6200089985826200080c565b86555062000909565b601f198416620008b2866200064e565b60005b82811015620008dc57848901518255600182019150602085019450602081019050620008b5565b86831015620008fc5784890151620008f8601f891682620007ec565b8355505b6001600288020188555050505b505050505050565b6200091c8162000525565b82525050565b600060408201905062000939600083018562000911565b62000948602083018462000911565b9392505050565b600060208201905062000966600083018462000911565b92915050565b613ae7806200097c6000396000f3fe60806040526004361061021a5760003560e01c80637dc2268c11610123578063b9e9aec1116100ab578063e0d4ea371161006f578063e0d4ea371461076d578063e86dea4a146107aa578063e985e9c5146107d5578063ed9ec88814610812578063f2fde38b1461084f5761021a565b8063b9e9aec114610686578063bdb4b848146106b1578063c204642c146106dc578063c87b56dd14610705578063d5abeb01146107425761021a565b80639658730b116100f25780639658730b146105d3578063a0712d68146105fc578063a22cb46514610618578063b4c7f06614610641578063b88d4fde1461066a5761021a565b80637dc2268c146105275780638da5cb5b1461055257806394354fd01461057d57806395d89b41146105a85761021a565b8063303e74df116101a65780635619f443116101755780635619f44314610440578063628767031461046b5780636352211e1461049657806370a08231146104d3578063715018a6146105105761021a565b8063303e74df146103b75780633bb2c938146103e257806341f43434146103f957806342842e0e146104245761021a565b8063095ea7b3116101ed578063095ea7b3146102ed578063176b72b41461030957806318160ddd1461033257806323b872dd1461035d5780632a55205a146103795761021a565b806301b9a3971461021f57806301ffc9a71461024857806306fdde0314610285578063081812fc146102b0575b600080fd5b34801561022b57600080fd5b50610246600480360381019061024191906128bc565b610878565b005b34801561025457600080fd5b5061026f600480360381019061026a9190612941565b6108c4565b60405161027c9190612989565b60405180910390f35b34801561029157600080fd5b5061029a610956565b6040516102a79190612a34565b60405180910390f35b3480156102bc57600080fd5b506102d760048036038101906102d29190612a8c565b6109e8565b6040516102e49190612ac8565b60405180910390f35b61030760048036038101906103029190612b0f565b610a67565b005b34801561031557600080fd5b50610330600480360381019061032b9190612b4f565b610bab565b005b34801561033e57600080fd5b50610347610c56565b6040516103549190612b9e565b60405180910390f35b61037760048036038101906103729190612bb9565b610c6d565b005b34801561038557600080fd5b506103a0600480360381019061039b9190612b4f565b610cbc565b6040516103ae929190612c0c565b60405180910390f35b3480156103c357600080fd5b506103cc610cec565b6040516103d99190612c94565b60405180910390f35b3480156103ee57600080fd5b506103f7610d12565b005b34801561040557600080fd5b5061040e610d37565b60405161041b9190612cd0565b60405180910390f35b61043e60048036038101906104399190612bb9565b610d49565b005b34801561044c57600080fd5b50610455610d98565b6040516104629190612b9e565b60405180910390f35b34801561047757600080fd5b50610480610ddf565b60405161048d9190612989565b60405180910390f35b3480156104a257600080fd5b506104bd60048036038101906104b89190612a8c565b610df2565b6040516104ca9190612ac8565b60405180910390f35b3480156104df57600080fd5b506104fa60048036038101906104f59190612ceb565b610e04565b6040516105079190612b9e565b60405180910390f35b34801561051c57600080fd5b50610525610ebc565b005b34801561053357600080fd5b5061053c610ed0565b6040516105499190612989565b60405180910390f35b34801561055e57600080fd5b50610567610ee3565b6040516105749190612ac8565b60405180910390f35b34801561058957600080fd5b50610592610f0d565b60405161059f9190612b9e565b60405180910390f35b3480156105b457600080fd5b506105bd610f13565b6040516105ca9190612a34565b60405180910390f35b3480156105df57600080fd5b506105fa60048036038101906105f59190612a8c565b610fa5565b005b61061660048036038101906106119190612a8c565b610fb7565b005b34801561062457600080fd5b5061063f600480360381019061063a9190612d44565b6113fe565b005b34801561064d57600080fd5b5061066860048036038101906106639190612d84565b611509565b005b610684600480360381019061067f9190612ee6565b61152e565b005b34801561069257600080fd5b5061069b61157f565b6040516106a89190612ac8565b60405180910390f35b3480156106bd57600080fd5b506106c66115a5565b6040516106d39190612b9e565b60405180910390f35b3480156106e857600080fd5b5061070360048036038101906106fe9190613031565b6115ab565b005b34801561071157600080fd5b5061072c60048036038101906107279190612a8c565b61167f565b6040516107399190612a34565b60405180910390f35b34801561074e57600080fd5b5061075761178c565b6040516107649190612b9e565b60405180910390f35b34801561077957600080fd5b50610794600480360381019061078f9190612a8c565b611792565b6040516107a19190612b9e565b60405180910390f35b3480156107b657600080fd5b506107bf6117f7565b6040516107cc9190612b9e565b60405180910390f35b3480156107e157600080fd5b506107fc60048036038101906107f7919061308d565b6117fd565b6040516108099190612989565b60405180910390f35b34801561081e57600080fd5b5061083960048036038101906108349190612ceb565b611891565b6040516108469190612b9e565b60405180910390f35b34801561085b57600080fd5b5061087660048036038101906108719190612ceb565b6118a9565b005b61088061192c565b80600c60006101000a81548173ffffffffffffffffffffffffffffffffffffffff021916908373ffffffffffffffffffffffffffffffffffffffff16021790555050565b60006301ffc9a760e01b827bffffffffffffffffffffffffffffffffffffffffffffffffffffffff1916148061091f57506380ac58cd60e01b827bffffffffffffffffffffffffffffffffffffffffffffffffffffffff1916145b8061094f5750635b5e139f60e01b827bffffffffffffffffffffffffffffffffffffffffffffffffffffffff1916145b9050919050565b606060028054610965906130fc565b80601f0160208091040260200160405190810160405280929190818152602001828054610991906130fc565b80156109de5780601f106109b3576101008083540402835291602001916109de565b820191906000526020600020905b8154815290600101906020018083116109c157829003601f168201915b5050505050905090565b60006109f3826119aa565b610a29576040517fcf4700e400000000000000000000000000000000000000000000000000000000815260040160405180910390fd5b6006600083815260200190815260200160002060000160009054906101000a900473ffffffffffffffffffffffffffffffffffffffff169050919050565b6000610a7282610df2565b90508073ffffffffffffffffffffffffffffffffffffffff16610a93611a09565b73ffffffffffffffffffffffffffffffffffffffff1614610af657610abf81610aba611a09565b6117fd565b610af5576040517fcfb3b94200000000000000000000000000000000000000000000000000000000815260040160405180910390fd5b5b826006600084815260200190815260200160002060000160006101000a81548173ffffffffffffffffffffffffffffffffffffffff021916908373ffffffffffffffffffffffffffffffffffffffff160217905550818373ffffffffffffffffffffffffffffffffffffffff168273ffffffffffffffffffffffffffffffffffffffff167f8c5be1e5ebec7d5bd14f71427d1e84f3dd0314c0f7b2291e5b200ac8c7c3b92560405160405180910390a4505050565b610bb361192c565b601260019054906101000a900460ff16610c02576040517f08c379a0000000000000000000000000000000000000000000000000000000008152600401610bf990613179565b60405180910390fd5b80600a600084815260200190815260200160002081905550817faabfe5e8bccf1a1352f72b557ce580211305c37f88d5783ae467a1ba5e0761e082604051610c4a9190612b9e565b60405180910390a25050565b6000610c60611a11565b6001546000540303905090565b823373ffffffffffffffffffffffffffffffffffffffff168173ffffffffffffffffffffffffffffffffffffffff1614610cab57610caa33611a16565b5b610cb6848484611b13565b50505050565b600080610cc7610ee3565b9150606483601154610cd991906131c8565b610ce39190613239565b90509250929050565b600c60009054906101000a900473ffffffffffffffffffffffffffffffffffffffff1681565b610d1a61192c565b6000601260016101000a81548160ff021916908315150217905550565b6daaeb6d7670e522a718067333cd4e81565b823373ffffffffffffffffffffffffffffffffffffffff168173ffffffffffffffffffffffffffffffffffffffff1614610d8757610d8633611a16565b5b610d92848484611e35565b50505050565b6000600b60003373ffffffffffffffffffffffffffffffffffffffff1673ffffffffffffffffffffffffffffffffffffffff16815260200190815260200160002054905090565b601260019054906101000a900460ff1681565b6000610dfd82611e55565b9050919050565b60008073ffffffffffffffffffffffffffffffffffffffff168273ffffffffffffffffffffffffffffffffffffffff1603610e6b576040517f8f4eb60400000000000000000000000000000000000000000000000000000000815260040160405180910390fd5b67ffffffffffffffff600560008473ffffffffffffffffffffffffffffffffffffffff1673ffffffffffffffffffffffffffffffffffffffff16815260200190815260200160002054169050919050565b610ec461192c565b610ece6000611f21565b565b601260009054906101000a900460ff1681565b6000600860009054906101000a900473ffffffffffffffffffffffffffffffffffffffff16905090565b600f5481565b606060038054610f22906130fc565b80601f0160208091040260200160405190810160405280929190818152602001828054610f4e906130fc565b8015610f9b5780601f10610f7057610100808354040283529160200191610f9b565b820191906000526020600020905b815481529060010190602001808311610f7e57829003601f168201915b5050505050905090565b610fad61192c565b8060118190555050565b610fbf611fe7565b803373ffffffffffffffffffffffffffffffffffffffff163273ffffffffffffffffffffffffffffffffffffffff161461102e576040517f08c379a0000000000000000000000000000000000000000000000000000000008152600401611025906132b6565b60405180910390fd5b601260009054906101000a900460ff1661107d576040517f08c379a000000000000000000000000000000000000000000000000000000000815260040161107490613322565b60405180910390fd5b81600d5461108b91906131c8565b3410156110cd576040517f08c379a00000000000000000000000000000000000000000000000000000000081526004016110c49061338e565b60405180910390fd5b60105482600b60003373ffffffffffffffffffffffffffffffffffffffff1673ffffffffffffffffffffffffffffffffffffffff1681526020019081526020016000205461111b91906133ae565b111561115c576040517f08c379a00000000000000000000000000000000000000000000000000000000081526004016111539061342e565b60405180910390fd5b6111663383612036565b81600b60003373ffffffffffffffffffffffffffffffffffffffff1673ffffffffffffffffffffffffffffffffffffffff16815260200190815260200160002060008282546111b591906133ae565b925050819055506000811180156111ce5750600f548111155b61120d576040517f08c379a00000000000000000000000000000000000000000000000000000000081526004016112049061349a565b60405180910390fd5b600e5481611219610c56565b61122391906133ae565b1115611264576040517f08c379a000000000000000000000000000000000000000000000000000000000815260040161125b90613506565b60405180910390fd5b601260009054906101000a900460ff166112b3576040517f08c379a00000000000000000000000000000000000000000000000000000000081526004016112aa90613322565b60405180910390fd5b81600d546112c191906131c8565b341015611303576040517f08c379a00000000000000000000000000000000000000000000000000000000081526004016112fa9061338e565b60405180910390fd5b60105482600b60003373ffffffffffffffffffffffffffffffffffffffff1673ffffffffffffffffffffffffffffffffffffffff1681526020019081526020016000205461135191906133ae565b1115611392576040517f08c379a00000000000000000000000000000000000000000000000000000000081526004016113899061342e565b60405180910390fd5b61139c3383612036565b81600b60003373ffffffffffffffffffffffffffffffffffffffff1673ffffffffffffffffffffffffffffffffffffffff16815260200190815260200160002060008282546113eb91906133ae565b92505081905550506113fb612119565b50565b806007600061140b611a09565b73ffffffffffffffffffffffffffffffffffffffff1673ffffffffffffffffffffffffffffffffffffffff16815260200190815260200160002060008473ffffffffffffffffffffffffffffffffffffffff1673ffffffffffffffffffffffffffffffffffffffff16815260200190815260200160002060006101000a81548160ff0219169083151502179055508173ffffffffffffffffffffffffffffffffffffffff166114b8611a09565b73ffffffffffffffffffffffffffffffffffffffff167f17307eab39ab6107e8899845ad3d59bd9653f200f220920489ca2b5937696c31836040516114fd9190612989565b60405180910390a35050565b61151161192c565b80601260006101000a81548160ff02191690831515021790555050565b833373ffffffffffffffffffffffffffffffffffffffff168173ffffffffffffffffffffffffffffffffffffffff161461156c5761156b33611a16565b5b61157885858585612123565b5050505050565b601260029054906101000a900473ffffffffffffffffffffffffffffffffffffffff1681565b600d5481565b6115b361192c565b6115bb611fe7565b60008251826115ca91906131c8565b905060006115d6610c56565b905060008111156115f0576001816115ee91906133ae565b505b60005b84518110156116335761162085828151811061161257611611613526565b5b602002602001015185612196565b808061162b90613555565b9150506115f3565b5060005b8281101561167057611648826121b4565b600a600084815260200190815260200160002081905550816001019150806001019050611637565b50505061167b612119565b5050565b606061168a826119aa565b6116c9576040517f08c379a00000000000000000000000000000000000000000000000000000000081526004016116c0906135e9565b60405180910390fd5b6000600a6000848152602001908152602001600020549050600c60009054906101000a900473ffffffffffffffffffffffffffffffffffffffff1673ffffffffffffffffffffffffffffffffffffffff166392cb829d84836040518363ffffffff1660e01b815260040161173e929190613609565b600060405180830381865afa15801561175b573d6000803e3d6000fd5b505050506040513d6000823e3d601f19601f8201168201806040525081019061178491906136d3565b915050919050565b600e5481565b600061179d826119aa565b6117dc576040517f08c379a00000000000000000000000000000000000000000000000000000000081526004016117d3906135e9565b60405180910390fd5b600a6000838152602001908152602001600020549050919050565b60115481565b6000600760008473ffffffffffffffffffffffffffffffffffffffff1673ffffffffffffffffffffffffffffffffffffffff16815260200190815260200160002060008373ffffffffffffffffffffffffffffffffffffffff1673ffffffffffffffffffffffffffffffffffffffff16815260200190815260200160002060009054906101000a900460ff16905092915050565b600b6020528060005260406000206000915090505481565b6118b161192c565b600073ffffffffffffffffffffffffffffffffffffffff168173ffffffffffffffffffffffffffffffffffffffff1603611920576040517f08c379a00000000000000000000000000000000000000000000000000000000081526004016119179061378e565b60405180910390fd5b61192981611f21565b50565b611934612363565b73ffffffffffffffffffffffffffffffffffffffff16611952610ee3565b73ffffffffffffffffffffffffffffffffffffffff16146119a8576040517f08c379a000000000000000000000000000000000000000000000000000000000815260040161199f906137fa565b60405180910390fd5b565b6000816119b5611a11565b111580156119c4575060005482105b8015611a02575060007c0100000000000000000000000000000000000000000000000000000000600460008581526020019081526020016000205416145b9050919050565b600033905090565b600090565b60006daaeb6d7670e522a718067333cd4e73ffffffffffffffffffffffffffffffffffffffff163b1115611b10576daaeb6d7670e522a718067333cd4e73ffffffffffffffffffffffffffffffffffffffff1663c617113430836040518363ffffffff1660e01b8152600401611a8d92919061381a565b602060405180830381865afa158015611aaa573d6000803e3d6000fd5b505050506040513d601f19601f82011682018060405250810190611ace9190613858565b611b0f57806040517fede71dcc000000000000000000000000000000000000000000000000000000008152600401611b069190612ac8565b60405180910390fd5b5b50565b6000611b1e82611e55565b90508373ffffffffffffffffffffffffffffffffffffffff168173ffffffffffffffffffffffffffffffffffffffff1614611b85576040517fa114810000000000000000000000000000000000000000000000000000000000815260040160405180910390fd5b600080611b918461236b565b91509150611ba78187611ba2611a09565b612392565b611bf357611bbc86611bb7611a09565b6117fd565b611bf2576040517f59c896be00000000000000000000000000000000000000000000000000000000815260040160405180910390fd5b5b600073ffffffffffffffffffffffffffffffffffffffff168573ffffffffffffffffffffffffffffffffffffffff1603611c59576040517fea553b3400000000000000000000000000000000000000000000000000000000815260040160405180910390fd5b611c6686868660016123d6565b8015611c7157600082555b600560008773ffffffffffffffffffffffffffffffffffffffff1673ffffffffffffffffffffffffffffffffffffffff168152602001908152602001600020600081546001900391905081905550600560008673ffffffffffffffffffffffffffffffffffffffff1673ffffffffffffffffffffffffffffffffffffffff1681526020019081526020016000206000815460010191905081905550611d3f85611d1b8888876123dc565b7c020000000000000000000000000000000000000000000000000000000017612404565b600460008681526020019081526020016000208190555060007c0200000000000000000000000000000000000000000000000000000000841603611dc55760006001850190506000600460008381526020019081526020016000205403611dc3576000548114611dc2578360046000838152602001908152602001600020819055505b5b505b838573ffffffffffffffffffffffffffffffffffffffff168773ffffffffffffffffffffffffffffffffffffffff167fddf252ad1be2c89b69c2b068fc378daa952ba7f163c4a11628f55a4df523b3ef60405160405180910390a4611e2d868686600161242f565b505050505050565b611e508383836040518060200160405280600081525061152e565b505050565b60008082905080611e64611a11565b11611eea57600054811015611ee95760006004600083815260200190815260200160002054905060007c0100000000000000000000000000000000000000000000000000000000821603611ee7575b60008103611edd576004600083600190039350838152602001908152602001600020549050611eb3565b8092505050611f1c565b505b5b6040517fdf2d9b4200000000000000000000000000000000000000000000000000000000815260040160405180910390fd5b919050565b6000600860009054906101000a900473ffffffffffffffffffffffffffffffffffffffff16905081600860006101000a81548173ffffffffffffffffffffffffffffffffffffffff021916908373ffffffffffffffffffffffffffffffffffffffff1602179055508173ffffffffffffffffffffffffffffffffffffffff168173ffffffffffffffffffffffffffffffffffffffff167f8be0079c531659141344cd1fd0a4f28419497f9722a3daafe3b4186f6b6457e060405160405180910390a35050565b60026009540361202c576040517f08c379a0000000000000000000000000000000000000000000000000000000008152600401612023906138d1565b60405180910390fd5b6002600981905550565b6000612040610c56565b9050600081111561205a5760018161205891906133ae565b505b60005b828110156120965761206e826121b4565b600a60008481526020019081526020016000208190555081600101915080600101905061205d565b506120a18383612196565b600047111561211457601260029054906101000a900473ffffffffffffffffffffffffffffffffffffffff1673ffffffffffffffffffffffffffffffffffffffff166108fc479081150290604051600060405180830381858888f19350505050158015612112573d6000803e3d6000fd5b505b505050565b6001600981905550565b61212e848484610c6d565b60008373ffffffffffffffffffffffffffffffffffffffff163b146121905761215984848484612435565b61218f576040517fd1a57ed600000000000000000000000000000000000000000000000000000000815260040160405180910390fd5b5b50505050565b6121b0828260405180602001604052806000815250612585565b5050565b6000806121c083612622565b90506000600a6014603084901c6121d791906138f1565b6121e191906133ae565b600a6007846121f091906138f1565b6121fa91906133ae565b606461220691906131c8565b61221091906133ae565b90506000600a6014606085901c61222791906138f1565b61223191906133ae565b600a6006606086901c61224491906138f1565b61224e91906133ae565b606461225a91906131c8565b61226491906133ae565b90506000600a6014609086901c61227b91906138f1565b61228591906133ae565b600a6007609087901c61229891906138f1565b6122a291906133ae565b60646122ae91906131c8565b6122b891906133ae565b90506000600a601460c087901c6122cf91906138f1565b6122d991906133ae565b600a600260c088901c6122ec91906138f1565b6122f691906133ae565b606461230291906131c8565b61230c91906133ae565b90508082848661271061231f91906131c8565b61232991906133ae565b61271061233691906131c8565b61234091906133ae565b61271061234d91906131c8565b61235791906133ae565b95505050505050919050565b600033905090565b60008060006006600085815260200190815260200160002090508092508254915050915091565b600073ffffffffffffffffffffffffffffffffffffffff8316925073ffffffffffffffffffffffffffffffffffffffff821691508382148383141790509392505050565b50505050565b60008060e883901c905060e86123f3868684612664565b62ffffff16901b9150509392505050565b600073ffffffffffffffffffffffffffffffffffffffff83169250814260a01b178317905092915050565b50505050565b60008373ffffffffffffffffffffffffffffffffffffffff1663150b7a0261245b611a09565b8786866040518563ffffffff1660e01b815260040161247d9493929190613977565b6020604051808303816000875af19250505080156124b957506040513d601f19601f820116820180604052508101906124b691906139d8565b60015b612532573d80600081146124e9576040519150601f19603f3d011682016040523d82523d6000602084013e6124ee565b606091505b50600081510361252a576040517fd1a57ed600000000000000000000000000000000000000000000000000000000815260040160405180910390fd5b805181602001fd5b63150b7a0260e01b7bffffffffffffffffffffffffffffffffffffffffffffffffffffffff1916817bffffffffffffffffffffffffffffffffffffffffffffffffffffffff191614915050949350505050565b61258f838361266d565b60008373ffffffffffffffffffffffffffffffffffffffff163b1461261d57600080549050600083820390505b6125cf6000868380600101945086612435565b612605576040517fd1a57ed600000000000000000000000000000000000000000000000000000000815260040160405180910390fd5b8181106125bc57816000541461261a57600080fd5b50505b505050565b60006001436126319190613a05565b4082604051602001612644929190613a85565b6040516020818303038152906040528051906020012060001c9050919050565b60009392505050565b600080549050600082036126ad576040517fb562e8dd00000000000000000000000000000000000000000000000000000000815260040160405180910390fd5b6126ba60008483856123d6565b600160406001901b178202600560008573ffffffffffffffffffffffffffffffffffffffff1673ffffffffffffffffffffffffffffffffffffffff168152602001908152602001600020600082825401925050819055506127318361272260008660006123dc565b61272b85612828565b17612404565b6004600083815260200190815260200160002081905550600080838301905073ffffffffffffffffffffffffffffffffffffffff85169150828260007fddf252ad1be2c89b69c2b068fc378daa952ba7f163c4a11628f55a4df523b3ef600080a4600183015b8181146127d257808360007fddf252ad1be2c89b69c2b068fc378daa952ba7f163c4a11628f55a4df523b3ef600080a4600181019050612797565b506000820361280d576040517f2e07630000000000000000000000000000000000000000000000000000000000815260040160405180910390fd5b806000819055505050612823600084838561242f565b505050565b60006001821460e11b9050919050565b6000604051905090565b600080fd5b600080fd5b600073ffffffffffffffffffffffffffffffffffffffff82169050919050565b60006128778261284c565b9050919050565b60006128898261286c565b9050919050565b6128998161287e565b81146128a457600080fd5b50565b6000813590506128b681612890565b92915050565b6000602082840312156128d2576128d1612842565b5b60006128e0848285016128a7565b91505092915050565b60007fffffffff0000000000000000000000000000000000000000000000000000000082169050919050565b61291e816128e9565b811461292957600080fd5b50565b60008135905061293b81612915565b92915050565b60006020828403121561295757612956612842565b5b60006129658482850161292c565b91505092915050565b60008115159050919050565b6129838161296e565b82525050565b600060208201905061299e600083018461297a565b92915050565b600081519050919050565b600082825260208201905092915050565b60005b838110156129de5780820151818401526020810190506129c3565b60008484015250505050565b6000601f19601f8301169050919050565b6000612a06826129a4565b612a1081856129af565b9350612a208185602086016129c0565b612a29816129ea565b840191505092915050565b60006020820190508181036000830152612a4e81846129fb565b905092915050565b6000819050919050565b612a6981612a56565b8114612a7457600080fd5b50565b600081359050612a8681612a60565b92915050565b600060208284031215612aa257612aa1612842565b5b6000612ab084828501612a77565b91505092915050565b612ac28161286c565b82525050565b6000602082019050612add6000830184612ab9565b92915050565b612aec8161286c565b8114612af757600080fd5b50565b600081359050612b0981612ae3565b92915050565b60008060408385031215612b2657612b25612842565b5b6000612b3485828601612afa565b9250506020612b4585828601612a77565b9150509250929050565b60008060408385031215612b6657612b65612842565b5b6000612b7485828601612a77565b9250506020612b8585828601612a77565b9150509250929050565b612b9881612a56565b82525050565b6000602082019050612bb36000830184612b8f565b92915050565b600080600060608486031215612bd257612bd1612842565b5b6000612be086828701612afa565b9350506020612bf186828701612afa565b9250506040612c0286828701612a77565b9150509250925092565b6000604082019050612c216000830185612ab9565b612c2e6020830184612b8f565b9392505050565b6000819050919050565b6000612c5a612c55612c508461284c565b612c35565b61284c565b9050919050565b6000612c6c82612c3f565b9050919050565b6000612c7e82612c61565b9050919050565b612c8e81612c73565b82525050565b6000602082019050612ca96000830184612c85565b92915050565b6000612cba82612c61565b9050919050565b612cca81612caf565b82525050565b6000602082019050612ce56000830184612cc1565b92915050565b600060208284031215612d0157612d00612842565b5b6000612d0f84828501612afa565b91505092915050565b612d218161296e565b8114612d2c57600080fd5b50565b600081359050612d3e81612d18565b92915050565b60008060408385031215612d5b57612d5a612842565b5b6000612d6985828601612afa565b9250506020612d7a85828601612d2f565b9150509250929050565b600060208284031215612d9a57612d99612842565b5b6000612da884828501612d2f565b91505092915050565b600080fd5b600080fd5b7f4e487b7100000000000000000000000000000000000000000000000000000000600052604160045260246000fd5b612df3826129ea565b810181811067ffffffffffffffff82111715612e1257612e11612dbb565b5b80604052505050565b6000612e25612838565b9050612e318282612dea565b919050565b600067ffffffffffffffff821115612e5157612e50612dbb565b5b612e5a826129ea565b9050602081019050919050565b82818337600083830152505050565b6000612e89612e8484612e36565b612e1b565b905082815260208101848484011115612ea557612ea4612db6565b5b612eb0848285612e67565b509392505050565b600082601f830112612ecd57612ecc612db1565b5b8135612edd848260208601612e76565b91505092915050565b60008060008060808587031215612f0057612eff612842565b5b6000612f0e87828801612afa565b9450506020612f1f87828801612afa565b9350506040612f3087828801612a77565b925050606085013567ffffffffffffffff811115612f5157612f50612847565b5b612f5d87828801612eb8565b91505092959194509250565b600067ffffffffffffffff821115612f8457612f83612dbb565b5b602082029050602081019050919050565b600080fd5b6000612fad612fa884612f69565b612e1b565b90508083825260208201905060208402830185811115612fd057612fcf612f95565b5b835b81811015612ff95780612fe58882612afa565b845260208401935050602081019050612fd2565b5050509392505050565b600082601f83011261301857613017612db1565b5b8135613028848260208601612f9a565b91505092915050565b6000806040838503121561304857613047612842565b5b600083013567ffffffffffffffff81111561306657613065612847565b5b61307285828601613003565b925050602061308385828601612a77565b9150509250929050565b600080604083850312156130a4576130a3612842565b5b60006130b285828601612afa565b92505060206130c385828601612afa565b9150509250929050565b7f4e487b7100000000000000000000000000000000000000000000000000000000600052602260045260246000fd5b6000600282049050600182168061311457607f821691505b602082108103613127576131266130cd565b5b50919050565b7f43616e6e6f742073657420746865207365656400000000000000000000000000600082015250565b60006131636013836129af565b915061316e8261312d565b602082019050919050565b6000602082019050818103600083015261319281613156565b9050919050565b7f4e487b7100000000000000000000000000000000000000000000000000000000600052601160045260246000fd5b60006131d382612a56565b91506131de83612a56565b92508282026131ec81612a56565b9150828204841483151761320357613202613199565b5b5092915050565b7f4e487b7100000000000000000000000000000000000000000000000000000000600052601260045260246000fd5b600061324482612a56565b915061324f83612a56565b92508261325f5761325e61320a565b5b828204905092915050565b7f5468652063616c6c657220697320616e6f7468657220636f6e74726163740000600082015250565b60006132a0601e836129af565b91506132ab8261326a565b602082019050919050565b600060208201905081810360008301526132cf81613293565b9050919050565b7f4d696e74696e672066756e6374696f6e2069732064697361626c65642e000000600082015250565b600061330c601d836129af565b9150613317826132d6565b602082019050919050565b6000602082019050818103600083015261333b816132ff565b9050919050565b7f496e73756666696369656e742066756e64732100000000000000000000000000600082015250565b60006133786013836129af565b915061338382613342565b602082019050919050565b600060208201905081810360008301526133a78161336b565b9050919050565b60006133b982612a56565b91506133c483612a56565b92508282019050808211156133dc576133db613199565b5b92915050565b7f5075626c6963206d696e74206c696d6974206578636565646564000000000000600082015250565b6000613418601a836129af565b9150613423826133e2565b602082019050919050565b600060208201905081810360008301526134478161340b565b9050919050565b7f496e76616c6964206d696e7420616d6f756e7421000000000000000000000000600082015250565b60006134846014836129af565b915061348f8261344e565b602082019050919050565b600060208201905081810360008301526134b381613477565b9050919050565b7f57696c6c20657863656564206d6178696d756d20737570706c79210000000000600082015250565b60006134f0601b836129af565b91506134fb826134ba565b602082019050919050565b6000602082019050818103600083015261351f816134e3565b9050919050565b7f4e487b7100000000000000000000000000000000000000000000000000000000600052603260045260246000fd5b600061356082612a56565b91507fffffffffffffffffffffffffffffffffffffffffffffffffffffffffffffffff820361359257613591613199565b5b600182019050919050565b7f546f6b656e20494420646f6573206e6f742065786973742e0000000000000000600082015250565b60006135d36018836129af565b91506135de8261359d565b602082019050919050565b60006020820190508181036000830152613602816135c6565b9050919050565b600060408201905061361e6000830185612b8f565b61362b6020830184612b8f565b9392505050565b600067ffffffffffffffff82111561364d5761364c612dbb565b5b613656826129ea565b9050602081019050919050565b600061367661367184613632565b612e1b565b90508281526020810184848401111561369257613691612db6565b5b61369d8482856129c0565b509392505050565b600082601f8301126136ba576136b9612db1565b5b81516136ca848260208601613663565b91505092915050565b6000602082840312156136e9576136e8612842565b5b600082015167ffffffffffffffff81111561370757613706612847565b5b613713848285016136a5565b91505092915050565b7f4f776e61626c653a206e6577206f776e657220697320746865207a65726f206160008201527f6464726573730000000000000000000000000000000000000000000000000000602082015250565b60006137786026836129af565b91506137838261371c565b604082019050919050565b600060208201905081810360008301526137a78161376b565b9050919050565b7f4f776e61626c653a2063616c6c6572206973206e6f7420746865206f776e6572600082015250565b60006137e46020836129af565b91506137ef826137ae565b602082019050919050565b60006020820190508181036000830152613813816137d7565b9050919050565b600060408201905061382f6000830185612ab9565b61383c6020830184612ab9565b9392505050565b60008151905061385281612d18565b92915050565b60006020828403121561386e5761386d612842565b5b600061387c84828501613843565b91505092915050565b7f5265656e7472616e637947756172643a207265656e7472616e742063616c6c00600082015250565b60006138bb601f836129af565b91506138c682613885565b602082019050919050565b600060208201905081810360008301526138ea816138ae565b9050919050565b60006138fc82612a56565b915061390783612a56565b9250826139175761391661320a565b5b828206905092915050565b600081519050919050565b600082825260208201905092915050565b600061394982613922565b613953818561392d565b93506139638185602086016129c0565b61396c816129ea565b840191505092915050565b600060808201905061398c6000830187612ab9565b6139996020830186612ab9565b6139a66040830185612b8f565b81810360608301526139b8818461393e565b905095945050505050565b6000815190506139d281612915565b92915050565b6000602082840312156139ee576139ed612842565b5b60006139fc848285016139c3565b91505092915050565b6000613a1082612a56565b9150613a1b83612a56565b9250828203905081811115613a3357613a32613199565b5b92915050565b6000819050919050565b6000819050919050565b613a5e613a5982613a39565b613a43565b82525050565b6000819050919050565b613a7f613a7a82612a56565b613a64565b82525050565b6000613a918285613a4d565b602082019150613aa18284613a6e565b602082019150819050939250505056fea26469706673582212203a53f842fa425e3b958b219842ee089b79f184f6ad96f1c4816a30f170cc7c8264736f6c63430008110033",
  "linkReferences": {},
  "deployedLinkReferences": {}
}