{
  "_format": "hh-sol-artifact-1",
  "contractName": "ContractId0",
  "sourceName": "contracts/ERC-721/Contract-start-id-0.sol",
  "abi": [
    {
      "inputs": [
        {
          "internalType": "string",
          "name": "tokenName",
          "type": "string"
        },
        {
          "internalType": "string",
          "name": "tokenSymbol",
          "type": "string"
        },
        {
          "internalType": "string",
          "name": "_initialBaseURI",
          "type": "string"
        }
      ],
      "stateMutability": "nonpayable",
      "type": "constructor"
    },
    {
      "anonymous": false,
      "inputs": [
        {
          "indexed": true,
          "internalType": "address",
          "name": "owner",
          "type": "address"
        },
        {
          "indexed": true,
          "internalType": "address",
          "name": "approved",
          "type": "address"
        },
        {
          "indexed": true,
          "internalType": "uint256",
          "name": "tokenId",
          "type": "uint256"
        }
      ],
      "name": "Approval",
      "type": "event"
    },
    {
      "anonymous": false,
      "inputs": [
        {
          "indexed": true,
          "internalType": "address",
          "name": "owner",
          "type": "address"
        },
        {
          "indexed": true,
          "internalType": "address",
          "name": "operator",
          "type": "address"
        },
        {
          "indexed": false,
          "internalType": "bool",
          "name": "approved",
          "type": "bool"
        }
      ],
      "name": "ApprovalForAll",
      "type": "event"
    },
    {
      "anonymous": false,
      "inputs": [
        {
          "indexed": true,
          "internalType": "address",
          "name": "previousOwner",
          "type": "address"
        },
        {
          "indexed": true,
          "internalType": "address",
          "name": "newOwner",
          "type": "address"
        }
      ],
      "name": "OwnershipTransferred",
      "type": "event"
    },
    {
      "anonymous": false,
      "inputs": [
        {
          "indexed": true,
          "internalType": "address",
          "name": "from",
          "type": "address"
        },
        {
          "indexed": true,
          "internalType": "address",
          "name": "to",
          "type": "address"
        },
        {
          "indexed": true,
          "internalType": "uint256",
          "name": "tokenId",
          "type": "uint256"
        }
      ],
      "name": "Transfer",
      "type": "event"
    },
    {
      "inputs": [
        {
          "internalType": "address[]",
          "name": "_recipients",
          "type": "address[]"
        },
        {
          "internalType": "uint256",
          "name": "_amount",
          "type": "uint256"
        }
      ],
      "name": "airdrop",
      "outputs": [],
      "stateMutability": "nonpayable",
      "type": "function"
    },
    {
      "inputs": [
        {
          "internalType": "address",
          "name": "to",
          "type": "address"
        },
        {
          "internalType": "uint256",
          "name": "tokenId",
          "type": "uint256"
        }
      ],
      "name": "approve",
      "outputs": [],
      "stateMutability": "nonpayable",
      "type": "function"
    },
    {
      "inputs": [
        {
          "internalType": "address",
          "name": "owner",
          "type": "address"
        }
      ],
      "name": "balanceOf",
      "outputs": [
        {
          "internalType": "uint256",
          "name": "",
          "type": "uint256"
        }
      ],
      "stateMutability": "view",
      "type": "function"
    },
    {
      "inputs": [],
      "name": "beneficiaryAddr",
      "outputs": [
        {
          "internalType": "address",
          "name": "",
          "type": "address"
        }
      ],
      "stateMutability": "view",
      "type": "function"
    },
    {
      "inputs": [
        {
          "internalType": "uint256",
          "name": "tokenId",
          "type": "uint256"
        }
      ],
      "name": "getApproved",
      "outputs": [
        {
          "internalType": "address",
          "name": "",
          "type": "address"
        }
      ],
      "stateMutability": "view",
      "type": "function"
    },
    {
      "inputs": [],
      "name": "getmintCount",
      "outputs": [
        {
          "internalType": "uint256",
          "name": "",
          "type": "uint256"
        }
      ],
      "stateMutability": "view",
      "type": "function"
    },
    {
      "inputs": [
        {
          "internalType": "address",
          "name": "owner",
          "type": "address"
        },
        {
          "internalType": "address",
          "name": "operator",
          "type": "address"
        }
      ],
      "name": "isApprovedForAll",
      "outputs": [
        {
          "internalType": "bool",
          "name": "",
          "type": "bool"
        }
      ],
      "stateMutability": "view",
      "type": "function"
    },
    {
      "inputs": [],
      "name": "maxMintAmountPerTx",
      "outputs": [
        {
          "internalType": "uint256",
          "name": "",
          "type": "uint256"
        }
      ],
      "stateMutability": "view",
      "type": "function"
    },
    {
      "inputs": [],
      "name": "maxSupply",
      "outputs": [
        {
          "internalType": "uint256",
          "name": "",
          "type": "uint256"
        }
      ],
      "stateMutability": "view",
      "type": "function"
    },
    {
      "inputs": [
        {
          "internalType": "uint256",
          "name": "_mintAmount",
          "type": "uint256"
        }
      ],
      "name": "mint",
      "outputs": [],
      "stateMutability": "payable",
      "type": "function"
    },
    {
      "inputs": [],
      "name": "mintCost",
      "outputs": [
        {
          "internalType": "uint256",
          "name": "",
          "type": "uint256"
        }
      ],
      "stateMutability": "view",
      "type": "function"
    },
    {
      "inputs": [
        {
          "internalType": "address",
          "name": "",
          "type": "address"
        }
      ],
      "name": "mintCount",
      "outputs": [
        {
          "internalType": "uint256",
          "name": "",
          "type": "uint256"
        }
      ],
      "stateMutability": "view",
      "type": "function"
    },
    {
      "inputs": [],
      "name": "name",
      "outputs": [
        {
          "internalType": "string",
          "name": "",
          "type": "string"
        }
      ],
      "stateMutability": "view",
      "type": "function"
    },
    {
      "inputs": [],
      "name": "owner",
      "outputs": [
        {
          "internalType": "address",
          "name": "",
          "type": "address"
        }
      ],
      "stateMutability": "view",
      "type": "function"
    },
    {
      "inputs": [
        {
          "internalType": "uint256",
          "name": "tokenId",
          "type": "uint256"
        }
      ],
      "name": "ownerOf",
      "outputs": [
        {
          "internalType": "address",
          "name": "",
          "type": "address"
        }
      ],
      "stateMutability": "view",
      "type": "function"
    },
    {
      "inputs": [],
      "name": "renounceOwnership",
      "outputs": [],
      "stateMutability": "nonpayable",
      "type": "function"
    },
    {
      "inputs": [],
      "name": "royalties",
      "outputs": [
        {
          "internalType": "uint256",
          "name": "",
          "type": "uint256"
        }
      ],
      "stateMutability": "view",
      "type": "function"
    },
    {
      "inputs": [
        {
          "internalType": "uint256",
          "name": "_tokenId",
          "type": "uint256"
        },
        {
          "internalType": "uint256",
          "name": "_salePrice",
          "type": "uint256"
        }
      ],
      "name": "royaltyInfo",
      "outputs": [
        {
          "internalType": "address",
          "name": "receiver",
          "type": "address"
        },
        {
          "internalType": "uint256",
          "name": "royaltyAmount",
          "type": "uint256"
        }
      ],
      "stateMutability": "view",
      "type": "function"
    },
    {
      "inputs": [
        {
          "internalType": "address",
          "name": "from",
          "type": "address"
        },
        {
          "internalType": "address",
          "name": "to",
          "type": "address"
        },
        {
          "internalType": "uint256",
          "name": "tokenId",
          "type": "uint256"
        }
      ],
      "name": "safeTransferFrom",
      "outputs": [],
      "stateMutability": "nonpayable",
      "type": "function"
    },
    {
      "inputs": [
        {
          "internalType": "address",
          "name": "from",
          "type": "address"
        },
        {
          "internalType": "address",
          "name": "to",
          "type": "address"
        },
        {
          "internalType": "uint256",
          "name": "tokenId",
          "type": "uint256"
        },
        {
          "internalType": "bytes",
          "name": "data",
          "type": "bytes"
        }
      ],
      "name": "safeTransferFrom",
      "outputs": [],
      "stateMutability": "nonpayable",
      "type": "function"
    },
    {
      "inputs": [
        {
          "internalType": "address",
          "name": "operator",
          "type": "address"
        },
        {
          "internalType": "bool",
          "name": "approved",
          "type": "bool"
        }
      ],
      "name": "setApprovalForAll",
      "outputs": [],
      "stateMutability": "nonpayable",
      "type": "function"
    },
    {
      "inputs": [
        {
          "internalType": "string",
          "name": "uri",
          "type": "string"
        }
      ],
      "name": "setBaseURI",
      "outputs": [],
      "stateMutability": "nonpayable",
      "type": "function"
    },
    {
      "inputs": [
        {
          "internalType": "string",
          "name": "newData",
          "type": "string"
        }
      ],
      "name": "setUriSuffix",
      "outputs": [],
      "stateMutability": "nonpayable",
      "type": "function"
    },
    {
      "inputs": [
        {
          "internalType": "bytes4",
          "name": "interfaceId",
          "type": "bytes4"
        }
      ],
      "name": "supportsInterface",
      "outputs": [
        {
          "internalType": "bool",
          "name": "",
          "type": "bool"
        }
      ],
      "stateMutability": "view",
      "type": "function"
    },
    {
      "inputs": [],
      "name": "symbol",
      "outputs": [
        {
          "internalType": "string",
          "name": "",
          "type": "string"
        }
      ],
      "stateMutability": "view",
      "type": "function"
    },
    {
      "inputs": [
        {
          "internalType": "uint256",
          "name": "_tokenId",
          "type": "uint256"
        }
      ],
      "name": "tokenURI",
      "outputs": [
        {
          "internalType": "string",
          "name": "",
          "type": "string"
        }
      ],
      "stateMutability": "view",
      "type": "function"
    },
    {
      "inputs": [],
      "name": "totalSupply",
      "outputs": [
        {
          "internalType": "uint256",
          "name": "",
          "type": "uint256"
        }
      ],
      "stateMutability": "view",
      "type": "function"
    },
    {
      "inputs": [
        {
          "internalType": "address",
          "name": "from",
          "type": "address"
        },
        {
          "internalType": "address",
          "name": "to",
          "type": "address"
        },
        {
          "internalType": "uint256",
          "name": "tokenId",
          "type": "uint256"
        }
      ],
      "name": "transferFrom",
      "outputs": [],
      "stateMutability": "nonpayable",
      "type": "function"
    },
    {
      "inputs": [
        {
          "internalType": "address",
          "name": "newOwner",
          "type": "address"
        }
      ],
      "name": "transferOwnership",
      "outputs": [],
      "stateMutability": "nonpayable",
      "type": "function"
    },
    {
      "inputs": [
        {
          "internalType": "address",
          "name": "_isAddress",
          "type": "address"
        }
      ],
      "name": "updateBeneficiaryAddr",
      "outputs": [],
      "stateMutability": "nonpayable",
      "type": "function"
    },
    {
      "inputs": [],
      "name": "uriPrefix",
      "outputs": [
        {
          "internalType": "string",
          "name": "",
          "type": "string"
        }
      ],
      "stateMutability": "view",
      "type": "function"
    },
    {
      "inputs": [],
      "name": "uriSuffix",
      "outputs": [
        {
          "internalType": "string",
          "name": "",
          "type": "string"
        }
      ],
      "stateMutability": "view",
      "type": "function"
    },
    {
      "inputs": [
        {
          "internalType": "address",
          "name": "_owner",
          "type": "address"
        }
      ],
      "name": "walletOfOwner",
      "outputs": [
        {
          "internalType": "uint256[]",
          "name": "",
          "type": "uint256[]"
        }
      ],
      "stateMutability": "view",
      "type": "function"
    }
  ],
  "bytecode": "0x60806040526040518060200160405280600081525060089081620000249190620004be565b506040518060200160405280600081525060099081620000459190620004be565b5066470de4df820000600a55613cc3600b556002600c556002600d5560056010553480156200007357600080fd5b506040516200461538038062004615833981810160405281019062000099919062000709565b82828160009081620000ac9190620004be565b508060019081620000be9190620004be565b505050620000e1620000d56200014c60201b60201c565b6200015460201b60201c565b620000f16200021a60201b60201c565b600f60006101000a81548173ffffffffffffffffffffffffffffffffffffffff021916908373ffffffffffffffffffffffffffffffffffffffff1602179055508060089081620001429190620004be565b50505050620007c2565b600033905090565b6000600660009054906101000a900473ffffffffffffffffffffffffffffffffffffffff16905081600660006101000a81548173ffffffffffffffffffffffffffffffffffffffff021916908373ffffffffffffffffffffffffffffffffffffffff1602179055508173ffffffffffffffffffffffffffffffffffffffff168173ffffffffffffffffffffffffffffffffffffffff167f8be0079c531659141344cd1fd0a4f28419497f9722a3daafe3b4186f6b6457e060405160405180910390a35050565b6000600660009054906101000a900473ffffffffffffffffffffffffffffffffffffffff16905090565b600081519050919050565b7f4e487b7100000000000000000000000000000000000000000000000000000000600052604160045260246000fd5b7f4e487b7100000000000000000000000000000000000000000000000000000000600052602260045260246000fd5b60006002820490506001821680620002c657607f821691505b602082108103620002dc57620002db6200027e565b5b50919050565b60008190508160005260206000209050919050565b60006020601f8301049050919050565b600082821b905092915050565b600060088302620003467fffffffffffffffffffffffffffffffffffffffffffffffffffffffffffffffff8262000307565b62000352868362000307565b95508019841693508086168417925050509392505050565b6000819050919050565b6000819050919050565b60006200039f6200039962000393846200036a565b62000374565b6200036a565b9050919050565b6000819050919050565b620003bb836200037e565b620003d3620003ca82620003a6565b84845462000314565b825550505050565b600090565b620003ea620003db565b620003f7818484620003b0565b505050565b5b818110156200041f5762000413600082620003e0565b600181019050620003fd565b5050565b601f8211156200046e576200043881620002e2565b6200044384620002f7565b8101602085101562000453578190505b6200046b6200046285620002f7565b830182620003fc565b50505b505050565b600082821c905092915050565b6000620004936000198460080262000473565b1980831691505092915050565b6000620004ae838362000480565b9150826002028217905092915050565b620004c98262000244565b67ffffffffffffffff811115620004e557620004e46200024f565b5b620004f18254620002ad565b620004fe82828562000423565b600060209050601f83116001811462000536576000841562000521578287015190505b6200052d8582620004a0565b8655506200059d565b601f1984166200054686620002e2565b60005b82811015620005705784890151825560018201915060208501945060208101905062000549565b868310156200059057848901516200058c601f89168262000480565b8355505b6001600288020188555050505b505050505050565b6000604051905090565b600080fd5b600080fd5b600080fd5b600080fd5b6000601f19601f8301169050919050565b620005df82620005c3565b810181811067ffffffffffffffff821117156200060157620006006200024f565b5b80604052505050565b600062000616620005a5565b9050620006248282620005d4565b919050565b600067ffffffffffffffff8211156200064757620006466200024f565b5b6200065282620005c3565b9050602081019050919050565b60005b838110156200067f57808201518184015260208101905062000662565b60008484015250505050565b6000620006a26200069c8462000629565b6200060a565b905082815260208101848484011115620006c157620006c0620005be565b5b620006ce8482856200065f565b509392505050565b600082601f830112620006ee57620006ed620005b9565b5b8151620007008482602086016200068b565b91505092915050565b600080600060608486031215620007255762000724620005af565b5b600084015167ffffffffffffffff811115620007465762000745620005b4565b5b6200075486828701620006d6565b935050602084015167ffffffffffffffff811115620007785762000777620005b4565b5b6200078686828701620006d6565b925050604084015167ffffffffffffffff811115620007aa57620007a9620005b4565b5b620007b886828701620006d6565b9150509250925092565b613e4380620007d26000396000f3fe6080604052600436106101ee5760003560e01c8063715018a61161010d578063bdb4b848116100a0578063e37b34561161006f578063e37b3456146106f3578063e985e9c51461071c578063ed9ec88814610759578063f053dc5c14610796578063f2fde38b146107c1576101ee565b8063bdb4b84814610637578063c204642c14610662578063c87b56dd1461068b578063d5abeb01146106c8576101ee565b8063a0712d68116100dc578063a0712d681461059e578063a22cb465146105ba578063b88d4fde146105e3578063b9e9aec11461060c576101ee565b8063715018a6146105065780638da5cb5b1461051d57806394354fd01461054857806395d89b4114610573576101ee565b806342842e0e116101855780635619f443116101545780635619f4431461043657806362b99ad4146104615780636352211e1461048c57806370a08231146104c9576101ee565b806342842e0e1461037c578063438b6300146103a55780635503a0e8146103e257806355f804b31461040d576101ee565b806316ba10e0116101c157806316ba10e0146102c157806318160ddd146102ea57806323b872dd146103155780632a55205a1461033e576101ee565b806301ffc9a7146101f357806306fdde0314610230578063081812fc1461025b578063095ea7b314610298575b600080fd5b3480156101ff57600080fd5b5061021a6004803603810190610215919061264d565b6107ea565b6040516102279190612695565b60405180910390f35b34801561023c57600080fd5b506102456108cc565b6040516102529190612740565b60405180910390f35b34801561026757600080fd5b50610282600480360381019061027d9190612798565b61095e565b60405161028f9190612806565b60405180910390f35b3480156102a457600080fd5b506102bf60048036038101906102ba919061284d565b6109a4565b005b3480156102cd57600080fd5b506102e860048036038101906102e391906129c2565b610abb565b005b3480156102f657600080fd5b506102ff610ad6565b60405161030c9190612a1a565b60405180910390f35b34801561032157600080fd5b5061033c60048036038101906103379190612a35565b610ae7565b005b34801561034a57600080fd5b5061036560048036038101906103609190612a88565b610b47565b604051610373929190612ac8565b60405180910390f35b34801561038857600080fd5b506103a3600480360381019061039e9190612a35565b610b77565b005b3480156103b157600080fd5b506103cc60048036038101906103c79190612af1565b610b97565b6040516103d99190612bdc565b60405180910390f35b3480156103ee57600080fd5b506103f7610ca1565b6040516104049190612740565b60405180910390f35b34801561041957600080fd5b50610434600480360381019061042f91906129c2565b610d2f565b005b34801561044257600080fd5b5061044b610d4a565b6040516104589190612a1a565b60405180910390f35b34801561046d57600080fd5b50610476610d91565b6040516104839190612740565b60405180910390f35b34801561049857600080fd5b506104b360048036038101906104ae9190612798565b610e1f565b6040516104c09190612806565b60405180910390f35b3480156104d557600080fd5b506104f060048036038101906104eb9190612af1565b610ea5565b6040516104fd9190612a1a565b60405180910390f35b34801561051257600080fd5b5061051b610f5c565b005b34801561052957600080fd5b50610532610f70565b60405161053f9190612806565b60405180910390f35b34801561055457600080fd5b5061055d610f9a565b60405161056a9190612a1a565b60405180910390f35b34801561057f57600080fd5b50610588610fa0565b6040516105959190612740565b60405180910390f35b6105b860048036038101906105b39190612798565b611032565b005b3480156105c657600080fd5b506105e160048036038101906105dc9190612c2a565b611220565b005b3480156105ef57600080fd5b5061060a60048036038101906106059190612d0b565b611236565b005b34801561061857600080fd5b50610621611298565b60405161062e9190612806565b60405180910390f35b34801561064357600080fd5b5061064c6112be565b6040516106599190612a1a565b60405180910390f35b34801561066e57600080fd5b5061068960048036038101906106849190612e56565b6112c4565b005b34801561069757600080fd5b506106b260048036038101906106ad9190612798565b61134c565b6040516106bf9190612740565b60405180910390f35b3480156106d457600080fd5b506106dd6113f6565b6040516106ea9190612a1a565b60405180910390f35b3480156106ff57600080fd5b5061071a60048036038101906107159190612af1565b6113fc565b005b34801561072857600080fd5b50610743600480360381019061073e9190612eb2565b611448565b6040516107509190612695565b60405180910390f35b34801561076557600080fd5b50610780600480360381019061077b9190612af1565b6114dc565b60405161078d9190612a1a565b60405180910390f35b3480156107a257600080fd5b506107ab6114f4565b6040516107b89190612a1a565b60405180910390f35b3480156107cd57600080fd5b506107e860048036038101906107e39190612af1565b6114fa565b005b60007f80ac58cd000000000000000000000000000000000000000000000000000000007bffffffffffffffffffffffffffffffffffffffffffffffffffffffff1916827bffffffffffffffffffffffffffffffffffffffffffffffffffffffff191614806108b557507f5b5e139f000000000000000000000000000000000000000000000000000000007bffffffffffffffffffffffffffffffffffffffffffffffffffffffff1916827bffffffffffffffffffffffffffffffffffffffffffffffffffffffff1916145b806108c557506108c48261157d565b5b9050919050565b6060600080546108db90612f21565b80601f016020809104026020016040519081016040528092919081815260200182805461090790612f21565b80156109545780601f1061092957610100808354040283529160200191610954565b820191906000526020600020905b81548152906001019060200180831161093757829003601f168201915b5050505050905090565b6000610969826115e7565b6004600083815260200190815260200160002060009054906101000a900473ffffffffffffffffffffffffffffffffffffffff169050919050565b60006109af82610e1f565b90508073ffffffffffffffffffffffffffffffffffffffff168373ffffffffffffffffffffffffffffffffffffffff1603610a1f576040517f08c379a0000000000000000000000000000000000000000000000000000000008152600401610a1690612fc4565b60405180910390fd5b8073ffffffffffffffffffffffffffffffffffffffff16610a3e611632565b73ffffffffffffffffffffffffffffffffffffffff161480610a6d5750610a6c81610a67611632565b611448565b5b610aac576040517f08c379a0000000000000000000000000000000000000000000000000000000008152600401610aa390613056565b60405180910390fd5b610ab6838361163a565b505050565b610ac36116f3565b8060099081610ad29190613222565b5050565b6000610ae26007611771565b905090565b610af8610af2611632565b8261177f565b610b37576040517f08c379a0000000000000000000000000000000000000000000000000000000008152600401610b2e90613366565b60405180910390fd5b610b42838383611814565b505050565b600080610b52610f70565b9150606483601054610b6491906133b5565b610b6e9190613426565b90509250929050565b610b9283838360405180602001604052806000815250611236565b505050565b60606000610ba483610ea5565b905060008167ffffffffffffffff811115610bc257610bc1612897565b5b604051908082528060200260200182016040528015610bf05781602001602082028036833780820191505090505b50905060006001905060005b8381108015610c0d5750600b548211155b15610c95576000610c1d83610e1f565b90508673ffffffffffffffffffffffffffffffffffffffff168173ffffffffffffffffffffffffffffffffffffffff1603610c815782848381518110610c6657610c65613457565b5b6020026020010181815250508180610c7d90613486565b9250505b8280610c8c90613486565b93505050610bfc565b82945050505050919050565b60098054610cae90612f21565b80601f0160208091040260200160405190810160405280929190818152602001828054610cda90612f21565b8015610d275780601f10610cfc57610100808354040283529160200191610d27565b820191906000526020600020905b815481529060010190602001808311610d0a57829003601f168201915b505050505081565b610d376116f3565b8060089081610d469190613222565b5050565b6000600e60003373ffffffffffffffffffffffffffffffffffffffff1673ffffffffffffffffffffffffffffffffffffffff16815260200190815260200160002054905090565b60088054610d9e90612f21565b80601f0160208091040260200160405190810160405280929190818152602001828054610dca90612f21565b8015610e175780601f10610dec57610100808354040283529160200191610e17565b820191906000526020600020905b815481529060010190602001808311610dfa57829003601f168201915b505050505081565b600080610e2b83611b0d565b9050600073ffffffffffffffffffffffffffffffffffffffff168173ffffffffffffffffffffffffffffffffffffffff1603610e9c576040517f08c379a0000000000000000000000000000000000000000000000000000000008152600401610e939061351a565b60405180910390fd5b80915050919050565b60008073ffffffffffffffffffffffffffffffffffffffff168273ffffffffffffffffffffffffffffffffffffffff1603610f15576040517f08c379a0000000000000000000000000000000000000000000000000000000008152600401610f0c906135ac565b60405180910390fd5b600360008373ffffffffffffffffffffffffffffffffffffffff1673ffffffffffffffffffffffffffffffffffffffff168152602001908152602001600020549050919050565b610f646116f3565b610f6e6000611b4a565b565b6000600660009054906101000a900473ffffffffffffffffffffffffffffffffffffffff16905090565b600c5481565b606060018054610faf90612f21565b80601f0160208091040260200160405190810160405280929190818152602001828054610fdb90612f21565b80156110285780601f10610ffd57610100808354040283529160200191611028565b820191906000526020600020905b81548152906001019060200180831161100b57829003601f168201915b5050505050905090565b806000811180156110455750600c548111155b611084576040517f08c379a000000000000000000000000000000000000000000000000000000000815260040161107b90613618565b60405180910390fd5b600b54816110926007611771565b61109c9190613638565b11156110dd576040517f08c379a00000000000000000000000000000000000000000000000000000000081526004016110d4906136b8565b60405180910390fd5b81600a546110eb91906133b5565b34101561112d576040517f08c379a000000000000000000000000000000000000000000000000000000000815260040161112490613724565b60405180910390fd5b600d5482600e60003373ffffffffffffffffffffffffffffffffffffffff1673ffffffffffffffffffffffffffffffffffffffff1681526020019081526020016000205461117b9190613638565b11156111bc576040517f08c379a00000000000000000000000000000000000000000000000000000000081526004016111b390613790565b60405180910390fd5b6111c63383611c10565b81600e60003373ffffffffffffffffffffffffffffffffffffffff1673ffffffffffffffffffffffffffffffffffffffff16815260200190815260200160002060008282546112159190613638565b925050819055505050565b61123261122b611632565b8383611cc3565b5050565b611247611241611632565b8361177f565b611286576040517f08c379a000000000000000000000000000000000000000000000000000000000815260040161127d90613366565b60405180910390fd5b61129284848484611e2f565b50505050565b600f60009054906101000a900473ffffffffffffffffffffffffffffffffffffffff1681565b600a5481565b6112cc6116f3565b60008251905060005b818110156113465760005b83811015611332576113158583815181106112fe576112fd613457565b5b60200260200101516113106007611771565b611e8b565b61131f6007611ea9565b808061132a90613486565b9150506112e0565b50808061133e90613486565b9150506112d5565b50505050565b606061135782611ebf565b611396576040517f08c379a000000000000000000000000000000000000000000000000000000000815260040161138d90613822565b60405180910390fd5b60006113a0611f00565b905060008151116113c057604051806020016040528060008152506113ee565b806113ca84611f92565b60096040516020016113de93929190613901565b6040516020818303038152906040525b915050919050565b600b5481565b6114046116f3565b80600f60006101000a81548173ffffffffffffffffffffffffffffffffffffffff021916908373ffffffffffffffffffffffffffffffffffffffff16021790555050565b6000600560008473ffffffffffffffffffffffffffffffffffffffff1673ffffffffffffffffffffffffffffffffffffffff16815260200190815260200160002060008373ffffffffffffffffffffffffffffffffffffffff1673ffffffffffffffffffffffffffffffffffffffff16815260200190815260200160002060009054906101000a900460ff16905092915050565b600e6020528060005260406000206000915090505481565b60105481565b6115026116f3565b600073ffffffffffffffffffffffffffffffffffffffff168173ffffffffffffffffffffffffffffffffffffffff1603611571576040517f08c379a0000000000000000000000000000000000000000000000000000000008152600401611568906139a4565b60405180910390fd5b61157a81611b4a565b50565b60007f01ffc9a7000000000000000000000000000000000000000000000000000000007bffffffffffffffffffffffffffffffffffffffffffffffffffffffff1916827bffffffffffffffffffffffffffffffffffffffffffffffffffffffff1916149050919050565b6115f081611ebf565b61162f576040517f08c379a00000000000000000000000000000000000000000000000000000000081526004016116269061351a565b60405180910390fd5b50565b600033905090565b816004600083815260200190815260200160002060006101000a81548173ffffffffffffffffffffffffffffffffffffffff021916908373ffffffffffffffffffffffffffffffffffffffff160217905550808273ffffffffffffffffffffffffffffffffffffffff166116ad83610e1f565b73ffffffffffffffffffffffffffffffffffffffff167f8c5be1e5ebec7d5bd14f71427d1e84f3dd0314c0f7b2291e5b200ac8c7c3b92560405160405180910390a45050565b6116fb611632565b73ffffffffffffffffffffffffffffffffffffffff16611719610f70565b73ffffffffffffffffffffffffffffffffffffffff161461176f576040517f08c379a000000000000000000000000000000000000000000000000000000000815260040161176690613a10565b60405180910390fd5b565b600081600001549050919050565b60008061178b83610e1f565b90508073ffffffffffffffffffffffffffffffffffffffff168473ffffffffffffffffffffffffffffffffffffffff1614806117cd57506117cc8185611448565b5b8061180b57508373ffffffffffffffffffffffffffffffffffffffff166117f38461095e565b73ffffffffffffffffffffffffffffffffffffffff16145b91505092915050565b8273ffffffffffffffffffffffffffffffffffffffff1661183482610e1f565b73ffffffffffffffffffffffffffffffffffffffff161461188a576040517f08c379a000000000000000000000000000000000000000000000000000000000815260040161188190613aa2565b60405180910390fd5b600073ffffffffffffffffffffffffffffffffffffffff168273ffffffffffffffffffffffffffffffffffffffff16036118f9576040517f08c379a00000000000000000000000000000000000000000000000000000000081526004016118f090613b34565b60405180910390fd5b6119068383836001612060565b8273ffffffffffffffffffffffffffffffffffffffff1661192682610e1f565b73ffffffffffffffffffffffffffffffffffffffff161461197c576040517f08c379a000000000000000000000000000000000000000000000000000000000815260040161197390613aa2565b60405180910390fd5b6004600082815260200190815260200160002060006101000a81549073ffffffffffffffffffffffffffffffffffffffff02191690556001600360008573ffffffffffffffffffffffffffffffffffffffff1673ffffffffffffffffffffffffffffffffffffffff168152602001908152602001600020600082825403925050819055506001600360008473ffffffffffffffffffffffffffffffffffffffff1673ffffffffffffffffffffffffffffffffffffffff16815260200190815260200160002060008282540192505081905550816002600083815260200190815260200160002060006101000a81548173ffffffffffffffffffffffffffffffffffffffff021916908373ffffffffffffffffffffffffffffffffffffffff160217905550808273ffffffffffffffffffffffffffffffffffffffff168473ffffffffffffffffffffffffffffffffffffffff167fddf252ad1be2c89b69c2b068fc378daa952ba7f163c4a11628f55a4df523b3ef60405160405180910390a4611b088383836001612066565b505050565b60006002600083815260200190815260200160002060009054906101000a900473ffffffffffffffffffffffffffffffffffffffff169050919050565b6000600660009054906101000a900473ffffffffffffffffffffffffffffffffffffffff16905081600660006101000a81548173ffffffffffffffffffffffffffffffffffffffff021916908373ffffffffffffffffffffffffffffffffffffffff1602179055508173ffffffffffffffffffffffffffffffffffffffff168173ffffffffffffffffffffffffffffffffffffffff167f8be0079c531659141344cd1fd0a4f28419497f9722a3daafe3b4186f6b6457e060405160405180910390a35050565b60005b81811015611c4b57611c2e83611c296007611771565b611e8b565b611c386007611ea9565b8080611c4390613486565b915050611c13565b506000471115611cbf57600f60009054906101000a900473ffffffffffffffffffffffffffffffffffffffff1673ffffffffffffffffffffffffffffffffffffffff166108fc479081150290604051600060405180830381858888f19350505050158015611cbd573d6000803e3d6000fd5b505b5050565b8173ffffffffffffffffffffffffffffffffffffffff168373ffffffffffffffffffffffffffffffffffffffff1603611d31576040517f08c379a0000000000000000000000000000000000000000000000000000000008152600401611d2890613ba0565b60405180910390fd5b80600560008573ffffffffffffffffffffffffffffffffffffffff1673ffffffffffffffffffffffffffffffffffffffff16815260200190815260200160002060008473ffffffffffffffffffffffffffffffffffffffff1673ffffffffffffffffffffffffffffffffffffffff16815260200190815260200160002060006101000a81548160ff0219169083151502179055508173ffffffffffffffffffffffffffffffffffffffff168373ffffffffffffffffffffffffffffffffffffffff167f17307eab39ab6107e8899845ad3d59bd9653f200f220920489ca2b5937696c3183604051611e229190612695565b60405180910390a3505050565b611e3a848484611814565b611e468484848461206c565b611e85576040517f08c379a0000000000000000000000000000000000000000000000000000000008152600401611e7c90613c32565b60405180910390fd5b50505050565b611ea58282604051806020016040528060008152506121f3565b5050565b6001816000016000828254019250508190555050565b60008073ffffffffffffffffffffffffffffffffffffffff16611ee183611b0d565b73ffffffffffffffffffffffffffffffffffffffff1614159050919050565b606060088054611f0f90612f21565b80601f0160208091040260200160405190810160405280929190818152602001828054611f3b90612f21565b8015611f885780601f10611f5d57610100808354040283529160200191611f88565b820191906000526020600020905b815481529060010190602001808311611f6b57829003601f168201915b5050505050905090565b606060006001611fa18461224e565b01905060008167ffffffffffffffff811115611fc057611fbf612897565b5b6040519080825280601f01601f191660200182016040528015611ff25781602001600182028036833780820191505090505b509050600082602001820190505b600115612055578080600190039150507f3031323334353637383961626364656600000000000000000000000000000000600a86061a8153600a8581612049576120486133f7565b5b04945060008503612000575b819350505050919050565b50505050565b50505050565b600061208d8473ffffffffffffffffffffffffffffffffffffffff166123a1565b156121e6578373ffffffffffffffffffffffffffffffffffffffff1663150b7a026120b6611632565b8786866040518563ffffffff1660e01b81526004016120d89493929190613ca7565b6020604051808303816000875af192505050801561211457506040513d601f19601f820116820180604052508101906121119190613d08565b60015b612196573d8060008114612144576040519150601f19603f3d011682016040523d82523d6000602084013e612149565b606091505b50600081510361218e576040517f08c379a000000000000000000000000000000000000000000000000000000000815260040161218590613c32565b60405180910390fd5b805181602001fd5b63150b7a0260e01b7bffffffffffffffffffffffffffffffffffffffffffffffffffffffff1916817bffffffffffffffffffffffffffffffffffffffffffffffffffffffff1916149150506121eb565b600190505b949350505050565b6121fd83836123c4565b61220a600084848461206c565b612249576040517f08c379a000000000000000000000000000000000000000000000000000000000815260040161224090613c32565b60405180910390fd5b505050565b600080600090507a184f03e93ff9f4daa797ed6e38ed64bf6a1f01000000000000000083106122ac577a184f03e93ff9f4daa797ed6e38ed64bf6a1f01000000000000000083816122a2576122a16133f7565b5b0492506040810190505b6d04ee2d6d415b85acef810000000083106122e9576d04ee2d6d415b85acef810000000083816122df576122de6133f7565b5b0492506020810190505b662386f26fc10000831061231857662386f26fc10000838161230e5761230d6133f7565b5b0492506010810190505b6305f5e1008310612341576305f5e1008381612337576123366133f7565b5b0492506008810190505b612710831061236657612710838161235c5761235b6133f7565b5b0492506004810190505b60648310612389576064838161237f5761237e6133f7565b5b0492506002810190505b600a8310612398576001810190505b80915050919050565b6000808273ffffffffffffffffffffffffffffffffffffffff163b119050919050565b600073ffffffffffffffffffffffffffffffffffffffff168273ffffffffffffffffffffffffffffffffffffffff1603612433576040517f08c379a000000000000000000000000000000000000000000000000000000000815260040161242a90613d81565b60405180910390fd5b61243c81611ebf565b1561247c576040517f08c379a000000000000000000000000000000000000000000000000000000000815260040161247390613ded565b60405180910390fd5b61248a600083836001612060565b61249381611ebf565b156124d3576040517f08c379a00000000000000000000000000000000000000000000000000000000081526004016124ca90613ded565b60405180910390fd5b6001600360008473ffffffffffffffffffffffffffffffffffffffff1673ffffffffffffffffffffffffffffffffffffffff16815260200190815260200160002060008282540192505081905550816002600083815260200190815260200160002060006101000a81548173ffffffffffffffffffffffffffffffffffffffff021916908373ffffffffffffffffffffffffffffffffffffffff160217905550808273ffffffffffffffffffffffffffffffffffffffff16600073ffffffffffffffffffffffffffffffffffffffff167fddf252ad1be2c89b69c2b068fc378daa952ba7f163c4a11628f55a4df523b3ef60405160405180910390a46125dd600083836001612066565b5050565b6000604051905090565b600080fd5b600080fd5b60007fffffffff0000000000000000000000000000000000000000000000000000000082169050919050565b61262a816125f5565b811461263557600080fd5b50565b60008135905061264781612621565b92915050565b600060208284031215612663576126626125eb565b5b600061267184828501612638565b91505092915050565b60008115159050919050565b61268f8161267a565b82525050565b60006020820190506126aa6000830184612686565b92915050565b600081519050919050565b600082825260208201905092915050565b60005b838110156126ea5780820151818401526020810190506126cf565b60008484015250505050565b6000601f19601f8301169050919050565b6000612712826126b0565b61271c81856126bb565b935061272c8185602086016126cc565b612735816126f6565b840191505092915050565b6000602082019050818103600083015261275a8184612707565b905092915050565b6000819050919050565b61277581612762565b811461278057600080fd5b50565b6000813590506127928161276c565b92915050565b6000602082840312156127ae576127ad6125eb565b5b60006127bc84828501612783565b91505092915050565b600073ffffffffffffffffffffffffffffffffffffffff82169050919050565b60006127f0826127c5565b9050919050565b612800816127e5565b82525050565b600060208201905061281b60008301846127f7565b92915050565b61282a816127e5565b811461283557600080fd5b50565b60008135905061284781612821565b92915050565b60008060408385031215612864576128636125eb565b5b600061287285828601612838565b925050602061288385828601612783565b9150509250929050565b600080fd5b600080fd5b7f4e487b7100000000000000000000000000000000000000000000000000000000600052604160045260246000fd5b6128cf826126f6565b810181811067ffffffffffffffff821117156128ee576128ed612897565b5b80604052505050565b60006129016125e1565b905061290d82826128c6565b919050565b600067ffffffffffffffff82111561292d5761292c612897565b5b612936826126f6565b9050602081019050919050565b82818337600083830152505050565b600061296561296084612912565b6128f7565b90508281526020810184848401111561298157612980612892565b5b61298c848285612943565b509392505050565b600082601f8301126129a9576129a861288d565b5b81356129b9848260208601612952565b91505092915050565b6000602082840312156129d8576129d76125eb565b5b600082013567ffffffffffffffff8111156129f6576129f56125f0565b5b612a0284828501612994565b91505092915050565b612a1481612762565b82525050565b6000602082019050612a2f6000830184612a0b565b92915050565b600080600060608486031215612a4e57612a4d6125eb565b5b6000612a5c86828701612838565b9350506020612a6d86828701612838565b9250506040612a7e86828701612783565b9150509250925092565b60008060408385031215612a9f57612a9e6125eb565b5b6000612aad85828601612783565b9250506020612abe85828601612783565b9150509250929050565b6000604082019050612add60008301856127f7565b612aea6020830184612a0b565b9392505050565b600060208284031215612b0757612b066125eb565b5b6000612b1584828501612838565b91505092915050565b600081519050919050565b600082825260208201905092915050565b6000819050602082019050919050565b612b5381612762565b82525050565b6000612b658383612b4a565b60208301905092915050565b6000602082019050919050565b6000612b8982612b1e565b612b938185612b29565b9350612b9e83612b3a565b8060005b83811015612bcf578151612bb68882612b59565b9750612bc183612b71565b925050600181019050612ba2565b5085935050505092915050565b60006020820190508181036000830152612bf68184612b7e565b905092915050565b612c078161267a565b8114612c1257600080fd5b50565b600081359050612c2481612bfe565b92915050565b60008060408385031215612c4157612c406125eb565b5b6000612c4f85828601612838565b9250506020612c6085828601612c15565b9150509250929050565b600067ffffffffffffffff821115612c8557612c84612897565b5b612c8e826126f6565b9050602081019050919050565b6000612cae612ca984612c6a565b6128f7565b905082815260208101848484011115612cca57612cc9612892565b5b612cd5848285612943565b509392505050565b600082601f830112612cf257612cf161288d565b5b8135612d02848260208601612c9b565b91505092915050565b60008060008060808587031215612d2557612d246125eb565b5b6000612d3387828801612838565b9450506020612d4487828801612838565b9350506040612d5587828801612783565b925050606085013567ffffffffffffffff811115612d7657612d756125f0565b5b612d8287828801612cdd565b91505092959194509250565b600067ffffffffffffffff821115612da957612da8612897565b5b602082029050602081019050919050565b600080fd5b6000612dd2612dcd84612d8e565b6128f7565b90508083825260208201905060208402830185811115612df557612df4612dba565b5b835b81811015612e1e5780612e0a8882612838565b845260208401935050602081019050612df7565b5050509392505050565b600082601f830112612e3d57612e3c61288d565b5b8135612e4d848260208601612dbf565b91505092915050565b60008060408385031215612e6d57612e6c6125eb565b5b600083013567ffffffffffffffff811115612e8b57612e8a6125f0565b5b612e9785828601612e28565b9250506020612ea885828601612783565b9150509250929050565b60008060408385031215612ec957612ec86125eb565b5b6000612ed785828601612838565b9250506020612ee885828601612838565b9150509250929050565b7f4e487b7100000000000000000000000000000000000000000000000000000000600052602260045260246000fd5b60006002820490506001821680612f3957607f821691505b602082108103612f4c57612f4b612ef2565b5b50919050565b7f4552433732313a20617070726f76616c20746f2063757272656e74206f776e6560008201527f7200000000000000000000000000000000000000000000000000000000000000602082015250565b6000612fae6021836126bb565b9150612fb982612f52565b604082019050919050565b60006020820190508181036000830152612fdd81612fa1565b9050919050565b7f4552433732313a20617070726f76652063616c6c6572206973206e6f7420746f60008201527f6b656e206f776e6572206f7220617070726f76656420666f7220616c6c000000602082015250565b6000613040603d836126bb565b915061304b82612fe4565b604082019050919050565b6000602082019050818103600083015261306f81613033565b9050919050565b60008190508160005260206000209050919050565b60006020601f8301049050919050565b600082821b905092915050565b6000600883026130d87fffffffffffffffffffffffffffffffffffffffffffffffffffffffffffffffff8261309b565b6130e2868361309b565b95508019841693508086168417925050509392505050565b6000819050919050565b600061311f61311a61311584612762565b6130fa565b612762565b9050919050565b6000819050919050565b61313983613104565b61314d61314582613126565b8484546130a8565b825550505050565b600090565b613162613155565b61316d818484613130565b505050565b5b818110156131915761318660008261315a565b600181019050613173565b5050565b601f8211156131d6576131a781613076565b6131b08461308b565b810160208510156131bf578190505b6131d36131cb8561308b565b830182613172565b50505b505050565b600082821c905092915050565b60006131f9600019846008026131db565b1980831691505092915050565b600061321283836131e8565b9150826002028217905092915050565b61322b826126b0565b67ffffffffffffffff81111561324457613243612897565b5b61324e8254612f21565b613259828285613195565b600060209050601f83116001811461328c576000841561327a578287015190505b6132848582613206565b8655506132ec565b601f19841661329a86613076565b60005b828110156132c25784890151825560018201915060208501945060208101905061329d565b868310156132df57848901516132db601f8916826131e8565b8355505b6001600288020188555050505b505050505050565b7f4552433732313a2063616c6c6572206973206e6f7420746f6b656e206f776e6560008201527f72206f7220617070726f76656400000000000000000000000000000000000000602082015250565b6000613350602d836126bb565b915061335b826132f4565b604082019050919050565b6000602082019050818103600083015261337f81613343565b9050919050565b7f4e487b7100000000000000000000000000000000000000000000000000000000600052601160045260246000fd5b60006133c082612762565b91506133cb83612762565b92508282026133d981612762565b915082820484148315176133f0576133ef613386565b5b5092915050565b7f4e487b7100000000000000000000000000000000000000000000000000000000600052601260045260246000fd5b600061343182612762565b915061343c83612762565b92508261344c5761344b6133f7565b5b828204905092915050565b7f4e487b7100000000000000000000000000000000000000000000000000000000600052603260045260246000fd5b600061349182612762565b91507fffffffffffffffffffffffffffffffffffffffffffffffffffffffffffffffff82036134c3576134c2613386565b5b600182019050919050565b7f4552433732313a20696e76616c696420746f6b656e2049440000000000000000600082015250565b60006135046018836126bb565b915061350f826134ce565b602082019050919050565b60006020820190508181036000830152613533816134f7565b9050919050565b7f4552433732313a2061646472657373207a65726f206973206e6f74206120766160008201527f6c6964206f776e65720000000000000000000000000000000000000000000000602082015250565b60006135966029836126bb565b91506135a18261353a565b604082019050919050565b600060208201905081810360008301526135c581613589565b9050919050565b7f496e76616c6964206d696e7420616d6f756e7421000000000000000000000000600082015250565b60006136026014836126bb565b915061360d826135cc565b602082019050919050565b60006020820190508181036000830152613631816135f5565b9050919050565b600061364382612762565b915061364e83612762565b925082820190508082111561366657613665613386565b5b92915050565b7f57696c6c20657863656564206d6178696d756d20737570706c79210000000000600082015250565b60006136a2601b836126bb565b91506136ad8261366c565b602082019050919050565b600060208201905081810360008301526136d181613695565b9050919050565b7f496e73756666696369656e742066756e64732100000000000000000000000000600082015250565b600061370e6013836126bb565b9150613719826136d8565b602082019050919050565b6000602082019050818103600083015261373d81613701565b9050919050565b7f7075626c6963206d696e74206c696d6974206578636565646564000000000000600082015250565b600061377a601a836126bb565b915061378582613744565b602082019050919050565b600060208201905081810360008301526137a98161376d565b9050919050565b7f4552433732314d657461646174613a2055524920717565727920666f72206e6f60008201527f6e6578697374656e7420746f6b656e0000000000000000000000000000000000602082015250565b600061380c602f836126bb565b9150613817826137b0565b604082019050919050565b6000602082019050818103600083015261383b816137ff565b9050919050565b600081905092915050565b6000613858826126b0565b6138628185613842565b93506138728185602086016126cc565b80840191505092915050565b6000815461388b81612f21565b6138958186613842565b945060018216600081146138b057600181146138c5576138f8565b60ff19831686528115158202860193506138f8565b6138ce85613076565b60005b838110156138f0578154818901526001820191506020810190506138d1565b838801955050505b50505092915050565b600061390d828661384d565b9150613919828561384d565b9150613925828461387e565b9150819050949350505050565b7f4f776e61626c653a206e6577206f776e657220697320746865207a65726f206160008201527f6464726573730000000000000000000000000000000000000000000000000000602082015250565b600061398e6026836126bb565b915061399982613932565b604082019050919050565b600060208201905081810360008301526139bd81613981565b9050919050565b7f4f776e61626c653a2063616c6c6572206973206e6f7420746865206f776e6572600082015250565b60006139fa6020836126bb565b9150613a05826139c4565b602082019050919050565b60006020820190508181036000830152613a29816139ed565b9050919050565b7f4552433732313a207472616e736665722066726f6d20696e636f72726563742060008201527f6f776e6572000000000000000000000000000000000000000000000000000000602082015250565b6000613a8c6025836126bb565b9150613a9782613a30565b604082019050919050565b60006020820190508181036000830152613abb81613a7f565b9050919050565b7f4552433732313a207472616e7366657220746f20746865207a65726f2061646460008201527f7265737300000000000000000000000000000000000000000000000000000000602082015250565b6000613b1e6024836126bb565b9150613b2982613ac2565b604082019050919050565b60006020820190508181036000830152613b4d81613b11565b9050919050565b7f4552433732313a20617070726f766520746f2063616c6c657200000000000000600082015250565b6000613b8a6019836126bb565b9150613b9582613b54565b602082019050919050565b60006020820190508181036000830152613bb981613b7d565b9050919050565b7f4552433732313a207472616e7366657220746f206e6f6e20455243373231526560008201527f63656976657220696d706c656d656e7465720000000000000000000000000000602082015250565b6000613c1c6032836126bb565b9150613c2782613bc0565b604082019050919050565b60006020820190508181036000830152613c4b81613c0f565b9050919050565b600081519050919050565b600082825260208201905092915050565b6000613c7982613c52565b613c838185613c5d565b9350613c938185602086016126cc565b613c9c816126f6565b840191505092915050565b6000608082019050613cbc60008301876127f7565b613cc960208301866127f7565b613cd66040830185612a0b565b8181036060830152613ce88184613c6e565b905095945050505050565b600081519050613d0281612621565b92915050565b600060208284031215613d1e57613d1d6125eb565b5b6000613d2c84828501613cf3565b91505092915050565b7f4552433732313a206d696e7420746f20746865207a65726f2061646472657373600082015250565b6000613d6b6020836126bb565b9150613d7682613d35565b602082019050919050565b60006020820190508181036000830152613d9a81613d5e565b9050919050565b7f4552433732313a20746f6b656e20616c7265616479206d696e74656400000000600082015250565b6000613dd7601c836126bb565b9150613de282613da1565b602082019050919050565b60006020820190508181036000830152613e0681613dca565b905091905056fea2646970667358221220e702b9a023223f7fa168c34b9e2b97a484ec2f3b130a970005ccad2f6b42a2e364736f6c63430008110033",
  "linkReferences": {},
  "deployedLinkReferences": {}
}