{
  "_format": "hh-sol-artifact-1",
  "contractName": "ContractId1",
  "sourceName": "contracts/ERC-721/Contract-id-start-1.sol",
  "abi": [
    {
      "inputs": [
        {
          "internalType": "string",
          "name": "tokenName",
          "type": "string"
        },
        {
          "internalType": "string",
          "name": "tokenSymbol",
          "type": "string"
        },
        {
          "internalType": "string",
          "name": "_initialBaseURI",
          "type": "string"
        }
      ],
      "stateMutability": "nonpayable",
      "type": "constructor"
    },
    {
      "anonymous": false,
      "inputs": [
        {
          "indexed": true,
          "internalType": "address",
          "name": "owner",
          "type": "address"
        },
        {
          "indexed": true,
          "internalType": "address",
          "name": "approved",
          "type": "address"
        },
        {
          "indexed": true,
          "internalType": "uint256",
          "name": "tokenId",
          "type": "uint256"
        }
      ],
      "name": "Approval",
      "type": "event"
    },
    {
      "anonymous": false,
      "inputs": [
        {
          "indexed": true,
          "internalType": "address",
          "name": "owner",
          "type": "address"
        },
        {
          "indexed": true,
          "internalType": "address",
          "name": "operator",
          "type": "address"
        },
        {
          "indexed": false,
          "internalType": "bool",
          "name": "approved",
          "type": "bool"
        }
      ],
      "name": "ApprovalForAll",
      "type": "event"
    },
    {
      "anonymous": false,
      "inputs": [
        {
          "indexed": true,
          "internalType": "address",
          "name": "previousOwner",
          "type": "address"
        },
        {
          "indexed": true,
          "internalType": "address",
          "name": "newOwner",
          "type": "address"
        }
      ],
      "name": "OwnershipTransferred",
      "type": "event"
    },
    {
      "anonymous": false,
      "inputs": [
        {
          "indexed": true,
          "internalType": "address",
          "name": "from",
          "type": "address"
        },
        {
          "indexed": true,
          "internalType": "address",
          "name": "to",
          "type": "address"
        },
        {
          "indexed": true,
          "internalType": "uint256",
          "name": "tokenId",
          "type": "uint256"
        }
      ],
      "name": "Transfer",
      "type": "event"
    },
    {
      "inputs": [
        {
          "internalType": "address[]",
          "name": "_recipients",
          "type": "address[]"
        },
        {
          "internalType": "uint256",
          "name": "_amount",
          "type": "uint256"
        }
      ],
      "name": "airdrop",
      "outputs": [],
      "stateMutability": "nonpayable",
      "type": "function"
    },
    {
      "inputs": [
        {
          "internalType": "address",
          "name": "to",
          "type": "address"
        },
        {
          "internalType": "uint256",
          "name": "tokenId",
          "type": "uint256"
        }
      ],
      "name": "approve",
      "outputs": [],
      "stateMutability": "nonpayable",
      "type": "function"
    },
    {
      "inputs": [
        {
          "internalType": "address",
          "name": "owner",
          "type": "address"
        }
      ],
      "name": "balanceOf",
      "outputs": [
        {
          "internalType": "uint256",
          "name": "",
          "type": "uint256"
        }
      ],
      "stateMutability": "view",
      "type": "function"
    },
    {
      "inputs": [],
      "name": "beneficiaryAddr",
      "outputs": [
        {
          "internalType": "address",
          "name": "",
          "type": "address"
        }
      ],
      "stateMutability": "view",
      "type": "function"
    },
    {
      "inputs": [
        {
          "internalType": "uint256",
          "name": "tokenId",
          "type": "uint256"
        }
      ],
      "name": "getApproved",
      "outputs": [
        {
          "internalType": "address",
          "name": "",
          "type": "address"
        }
      ],
      "stateMutability": "view",
      "type": "function"
    },
    {
      "inputs": [],
      "name": "getmintCount",
      "outputs": [
        {
          "internalType": "uint256",
          "name": "",
          "type": "uint256"
        }
      ],
      "stateMutability": "view",
      "type": "function"
    },
    {
      "inputs": [
        {
          "internalType": "address",
          "name": "owner",
          "type": "address"
        },
        {
          "internalType": "address",
          "name": "operator",
          "type": "address"
        }
      ],
      "name": "isApprovedForAll",
      "outputs": [
        {
          "internalType": "bool",
          "name": "",
          "type": "bool"
        }
      ],
      "stateMutability": "view",
      "type": "function"
    },
    {
      "inputs": [],
      "name": "maxMintAmountPerTx",
      "outputs": [
        {
          "internalType": "uint256",
          "name": "",
          "type": "uint256"
        }
      ],
      "stateMutability": "view",
      "type": "function"
    },
    {
      "inputs": [],
      "name": "maxSupply",
      "outputs": [
        {
          "internalType": "uint256",
          "name": "",
          "type": "uint256"
        }
      ],
      "stateMutability": "view",
      "type": "function"
    },
    {
      "inputs": [
        {
          "internalType": "uint256",
          "name": "_mintAmount",
          "type": "uint256"
        }
      ],
      "name": "mint",
      "outputs": [],
      "stateMutability": "payable",
      "type": "function"
    },
    {
      "inputs": [],
      "name": "mintCost",
      "outputs": [
        {
          "internalType": "uint256",
          "name": "",
          "type": "uint256"
        }
      ],
      "stateMutability": "view",
      "type": "function"
    },
    {
      "inputs": [
        {
          "internalType": "address",
          "name": "",
          "type": "address"
        }
      ],
      "name": "mintCount",
      "outputs": [
        {
          "internalType": "uint256",
          "name": "",
          "type": "uint256"
        }
      ],
      "stateMutability": "view",
      "type": "function"
    },
    {
      "inputs": [],
      "name": "name",
      "outputs": [
        {
          "internalType": "string",
          "name": "",
          "type": "string"
        }
      ],
      "stateMutability": "view",
      "type": "function"
    },
    {
      "inputs": [],
      "name": "owner",
      "outputs": [
        {
          "internalType": "address",
          "name": "",
          "type": "address"
        }
      ],
      "stateMutability": "view",
      "type": "function"
    },
    {
      "inputs": [
        {
          "internalType": "uint256",
          "name": "tokenId",
          "type": "uint256"
        }
      ],
      "name": "ownerOf",
      "outputs": [
        {
          "internalType": "address",
          "name": "",
          "type": "address"
        }
      ],
      "stateMutability": "view",
      "type": "function"
    },
    {
      "inputs": [],
      "name": "renounceOwnership",
      "outputs": [],
      "stateMutability": "nonpayable",
      "type": "function"
    },
    {
      "inputs": [],
      "name": "royalties",
      "outputs": [
        {
          "internalType": "uint256",
          "name": "",
          "type": "uint256"
        }
      ],
      "stateMutability": "view",
      "type": "function"
    },
    {
      "inputs": [
        {
          "internalType": "uint256",
          "name": "_tokenId",
          "type": "uint256"
        },
        {
          "internalType": "uint256",
          "name": "_salePrice",
          "type": "uint256"
        }
      ],
      "name": "royaltyInfo",
      "outputs": [
        {
          "internalType": "address",
          "name": "receiver",
          "type": "address"
        },
        {
          "internalType": "uint256",
          "name": "royaltyAmount",
          "type": "uint256"
        }
      ],
      "stateMutability": "view",
      "type": "function"
    },
    {
      "inputs": [
        {
          "internalType": "address",
          "name": "from",
          "type": "address"
        },
        {
          "internalType": "address",
          "name": "to",
          "type": "address"
        },
        {
          "internalType": "uint256",
          "name": "tokenId",
          "type": "uint256"
        }
      ],
      "name": "safeTransferFrom",
      "outputs": [],
      "stateMutability": "nonpayable",
      "type": "function"
    },
    {
      "inputs": [
        {
          "internalType": "address",
          "name": "from",
          "type": "address"
        },
        {
          "internalType": "address",
          "name": "to",
          "type": "address"
        },
        {
          "internalType": "uint256",
          "name": "tokenId",
          "type": "uint256"
        },
        {
          "internalType": "bytes",
          "name": "data",
          "type": "bytes"
        }
      ],
      "name": "safeTransferFrom",
      "outputs": [],
      "stateMutability": "nonpayable",
      "type": "function"
    },
    {
      "inputs": [
        {
          "internalType": "address",
          "name": "operator",
          "type": "address"
        },
        {
          "internalType": "bool",
          "name": "approved",
          "type": "bool"
        }
      ],
      "name": "setApprovalForAll",
      "outputs": [],
      "stateMutability": "nonpayable",
      "type": "function"
    },
    {
      "inputs": [
        {
          "internalType": "string",
          "name": "uri",
          "type": "string"
        }
      ],
      "name": "setBaseURI",
      "outputs": [],
      "stateMutability": "nonpayable",
      "type": "function"
    },
    {
      "inputs": [
        {
          "internalType": "string",
          "name": "newData",
          "type": "string"
        }
      ],
      "name": "setUriSuffix",
      "outputs": [],
      "stateMutability": "nonpayable",
      "type": "function"
    },
    {
      "inputs": [
        {
          "internalType": "bytes4",
          "name": "interfaceId",
          "type": "bytes4"
        }
      ],
      "name": "supportsInterface",
      "outputs": [
        {
          "internalType": "bool",
          "name": "",
          "type": "bool"
        }
      ],
      "stateMutability": "view",
      "type": "function"
    },
    {
      "inputs": [],
      "name": "symbol",
      "outputs": [
        {
          "internalType": "string",
          "name": "",
          "type": "string"
        }
      ],
      "stateMutability": "view",
      "type": "function"
    },
    {
      "inputs": [
        {
          "internalType": "uint256",
          "name": "_tokenId",
          "type": "uint256"
        }
      ],
      "name": "tokenURI",
      "outputs": [
        {
          "internalType": "string",
          "name": "",
          "type": "string"
        }
      ],
      "stateMutability": "view",
      "type": "function"
    },
    {
      "inputs": [],
      "name": "totalSupply",
      "outputs": [
        {
          "internalType": "uint256",
          "name": "",
          "type": "uint256"
        }
      ],
      "stateMutability": "view",
      "type": "function"
    },
    {
      "inputs": [
        {
          "internalType": "address",
          "name": "from",
          "type": "address"
        },
        {
          "internalType": "address",
          "name": "to",
          "type": "address"
        },
        {
          "internalType": "uint256",
          "name": "tokenId",
          "type": "uint256"
        }
      ],
      "name": "transferFrom",
      "outputs": [],
      "stateMutability": "nonpayable",
      "type": "function"
    },
    {
      "inputs": [
        {
          "internalType": "address",
          "name": "newOwner",
          "type": "address"
        }
      ],
      "name": "transferOwnership",
      "outputs": [],
      "stateMutability": "nonpayable",
      "type": "function"
    },
    {
      "inputs": [
        {
          "internalType": "address",
          "name": "_isAddress",
          "type": "address"
        }
      ],
      "name": "updateBeneficiaryAddr",
      "outputs": [],
      "stateMutability": "nonpayable",
      "type": "function"
    },
    {
      "inputs": [],
      "name": "uriPrefix",
      "outputs": [
        {
          "internalType": "string",
          "name": "",
          "type": "string"
        }
      ],
      "stateMutability": "view",
      "type": "function"
    },
    {
      "inputs": [],
      "name": "uriSuffix",
      "outputs": [
        {
          "internalType": "string",
          "name": "",
          "type": "string"
        }
      ],
      "stateMutability": "view",
      "type": "function"
    },
    {
      "inputs": [
        {
          "internalType": "address",
          "name": "_owner",
          "type": "address"
        }
      ],
      "name": "walletOfOwner",
      "outputs": [
        {
          "internalType": "uint256[]",
          "name": "",
          "type": "uint256[]"
        }
      ],
      "stateMutability": "view",
      "type": "function"
    }
  ],
  "bytecode": "0x60806040526040518060200160405280600081525060089081620000249190620004be565b506040518060200160405280600081525060099081620000459190620004be565b5066470de4df820000600a55613cc3600b556002600c556002600d5560056010553480156200007357600080fd5b506040516200463538038062004635833981810160405281019062000099919062000709565b82828160009081620000ac9190620004be565b508060019081620000be9190620004be565b505050620000e1620000d56200014c60201b60201c565b6200015460201b60201c565b620000f16200021a60201b60201c565b600f60006101000a81548173ffffffffffffffffffffffffffffffffffffffff021916908373ffffffffffffffffffffffffffffffffffffffff1602179055508060089081620001429190620004be565b50505050620007c2565b600033905090565b6000600660009054906101000a900473ffffffffffffffffffffffffffffffffffffffff16905081600660006101000a81548173ffffffffffffffffffffffffffffffffffffffff021916908373ffffffffffffffffffffffffffffffffffffffff1602179055508173ffffffffffffffffffffffffffffffffffffffff168173ffffffffffffffffffffffffffffffffffffffff167f8be0079c531659141344cd1fd0a4f28419497f9722a3daafe3b4186f6b6457e060405160405180910390a35050565b6000600660009054906101000a900473ffffffffffffffffffffffffffffffffffffffff16905090565b600081519050919050565b7f4e487b7100000000000000000000000000000000000000000000000000000000600052604160045260246000fd5b7f4e487b7100000000000000000000000000000000000000000000000000000000600052602260045260246000fd5b60006002820490506001821680620002c657607f821691505b602082108103620002dc57620002db6200027e565b5b50919050565b60008190508160005260206000209050919050565b60006020601f8301049050919050565b600082821b905092915050565b600060088302620003467fffffffffffffffffffffffffffffffffffffffffffffffffffffffffffffffff8262000307565b62000352868362000307565b95508019841693508086168417925050509392505050565b6000819050919050565b6000819050919050565b60006200039f6200039962000393846200036a565b62000374565b6200036a565b9050919050565b6000819050919050565b620003bb836200037e565b620003d3620003ca82620003a6565b84845462000314565b825550505050565b600090565b620003ea620003db565b620003f7818484620003b0565b505050565b5b818110156200041f5762000413600082620003e0565b600181019050620003fd565b5050565b601f8211156200046e576200043881620002e2565b6200044384620002f7565b8101602085101562000453578190505b6200046b6200046285620002f7565b830182620003fc565b50505b505050565b600082821c905092915050565b6000620004936000198460080262000473565b1980831691505092915050565b6000620004ae838362000480565b9150826002028217905092915050565b620004c98262000244565b67ffffffffffffffff811115620004e557620004e46200024f565b5b620004f18254620002ad565b620004fe82828562000423565b600060209050601f83116001811462000536576000841562000521578287015190505b6200052d8582620004a0565b8655506200059d565b601f1984166200054686620002e2565b60005b82811015620005705784890151825560018201915060208501945060208101905062000549565b868310156200059057848901516200058c601f89168262000480565b8355505b6001600288020188555050505b505050505050565b6000604051905090565b600080fd5b600080fd5b600080fd5b600080fd5b6000601f19601f8301169050919050565b620005df82620005c3565b810181811067ffffffffffffffff821117156200060157620006006200024f565b5b80604052505050565b600062000616620005a5565b9050620006248282620005d4565b919050565b600067ffffffffffffffff8211156200064757620006466200024f565b5b6200065282620005c3565b9050602081019050919050565b60005b838110156200067f57808201518184015260208101905062000662565b60008484015250505050565b6000620006a26200069c8462000629565b6200060a565b905082815260208101848484011115620006c157620006c0620005be565b5b620006ce8482856200065f565b509392505050565b600082601f830112620006ee57620006ed620005b9565b5b8151620007008482602086016200068b565b91505092915050565b600080600060608486031215620007255762000724620005af565b5b600084015167ffffffffffffffff811115620007465762000745620005b4565b5b6200075486828701620006d6565b935050602084015167ffffffffffffffff811115620007785762000777620005b4565b5b6200078686828701620006d6565b925050604084015167ffffffffffffffff811115620007aa57620007a9620005b4565b5b620007b886828701620006d6565b9150509250925092565b613e6380620007d26000396000f3fe6080604052600436106101ee5760003560e01c8063715018a61161010d578063bdb4b848116100a0578063e37b34561161006f578063e37b3456146106f3578063e985e9c51461071c578063ed9ec88814610759578063f053dc5c14610796578063f2fde38b146107c1576101ee565b8063bdb4b84814610637578063c204642c14610662578063c87b56dd1461068b578063d5abeb01146106c8576101ee565b8063a0712d68116100dc578063a0712d681461059e578063a22cb465146105ba578063b88d4fde146105e3578063b9e9aec11461060c576101ee565b8063715018a6146105065780638da5cb5b1461051d57806394354fd01461054857806395d89b4114610573576101ee565b806342842e0e116101855780635619f443116101545780635619f4431461043657806362b99ad4146104615780636352211e1461048c57806370a08231146104c9576101ee565b806342842e0e1461037c578063438b6300146103a55780635503a0e8146103e257806355f804b31461040d576101ee565b806316ba10e0116101c157806316ba10e0146102c157806318160ddd146102ea57806323b872dd146103155780632a55205a1461033e576101ee565b806301ffc9a7146101f357806306fdde0314610230578063081812fc1461025b578063095ea7b314610298575b600080fd5b3480156101ff57600080fd5b5061021a6004803603810190610215919061266d565b6107ea565b60405161022791906126b5565b60405180910390f35b34801561023c57600080fd5b506102456108cc565b6040516102529190612760565b60405180910390f35b34801561026757600080fd5b50610282600480360381019061027d91906127b8565b61095e565b60405161028f9190612826565b60405180910390f35b3480156102a457600080fd5b506102bf60048036038101906102ba919061286d565b6109a4565b005b3480156102cd57600080fd5b506102e860048036038101906102e391906129e2565b610abb565b005b3480156102f657600080fd5b506102ff610ad6565b60405161030c9190612a3a565b60405180910390f35b34801561032157600080fd5b5061033c60048036038101906103379190612a55565b610ae7565b005b34801561034a57600080fd5b5061036560048036038101906103609190612aa8565b610b47565b604051610373929190612ae8565b60405180910390f35b34801561038857600080fd5b506103a3600480360381019061039e9190612a55565b610b77565b005b3480156103b157600080fd5b506103cc60048036038101906103c79190612b11565b610b97565b6040516103d99190612bfc565b60405180910390f35b3480156103ee57600080fd5b506103f7610ca1565b6040516104049190612760565b60405180910390f35b34801561041957600080fd5b50610434600480360381019061042f91906129e2565b610d2f565b005b34801561044257600080fd5b5061044b610d4a565b6040516104589190612a3a565b60405180910390f35b34801561046d57600080fd5b50610476610d91565b6040516104839190612760565b60405180910390f35b34801561049857600080fd5b506104b360048036038101906104ae91906127b8565b610e1f565b6040516104c09190612826565b60405180910390f35b3480156104d557600080fd5b506104f060048036038101906104eb9190612b11565b610ea5565b6040516104fd9190612a3a565b60405180910390f35b34801561051257600080fd5b5061051b610f5c565b005b34801561052957600080fd5b50610532610f70565b60405161053f9190612826565b60405180910390f35b34801561055457600080fd5b5061055d610f9a565b60405161056a9190612a3a565b60405180910390f35b34801561057f57600080fd5b50610588610fa0565b6040516105959190612760565b60405180910390f35b6105b860048036038101906105b391906127b8565b611032565b005b3480156105c657600080fd5b506105e160048036038101906105dc9190612c4a565b611220565b005b3480156105ef57600080fd5b5061060a60048036038101906106059190612d2b565b611236565b005b34801561061857600080fd5b50610621611298565b60405161062e9190612826565b60405180910390f35b34801561064357600080fd5b5061064c6112be565b6040516106599190612a3a565b60405180910390f35b34801561066e57600080fd5b5061068960048036038101906106849190612e76565b6112c4565b005b34801561069757600080fd5b506106b260048036038101906106ad91906127b8565b61135c565b6040516106bf9190612760565b60405180910390f35b3480156106d457600080fd5b506106dd611406565b6040516106ea9190612a3a565b60405180910390f35b3480156106ff57600080fd5b5061071a60048036038101906107159190612b11565b61140c565b005b34801561072857600080fd5b50610743600480360381019061073e9190612ed2565b611458565b60405161075091906126b5565b60405180910390f35b34801561076557600080fd5b50610780600480360381019061077b9190612b11565b6114ec565b60405161078d9190612a3a565b60405180910390f35b3480156107a257600080fd5b506107ab611504565b6040516107b89190612a3a565b60405180910390f35b3480156107cd57600080fd5b506107e860048036038101906107e39190612b11565b61150a565b005b60007f80ac58cd000000000000000000000000000000000000000000000000000000007bffffffffffffffffffffffffffffffffffffffffffffffffffffffff1916827bffffffffffffffffffffffffffffffffffffffffffffffffffffffff191614806108b557507f5b5e139f000000000000000000000000000000000000000000000000000000007bffffffffffffffffffffffffffffffffffffffffffffffffffffffff1916827bffffffffffffffffffffffffffffffffffffffffffffffffffffffff1916145b806108c557506108c48261158d565b5b9050919050565b6060600080546108db90612f41565b80601f016020809104026020016040519081016040528092919081815260200182805461090790612f41565b80156109545780601f1061092957610100808354040283529160200191610954565b820191906000526020600020905b81548152906001019060200180831161093757829003601f168201915b5050505050905090565b6000610969826115f7565b6004600083815260200190815260200160002060009054906101000a900473ffffffffffffffffffffffffffffffffffffffff169050919050565b60006109af82610e1f565b90508073ffffffffffffffffffffffffffffffffffffffff168373ffffffffffffffffffffffffffffffffffffffff1603610a1f576040517f08c379a0000000000000000000000000000000000000000000000000000000008152600401610a1690612fe4565b60405180910390fd5b8073ffffffffffffffffffffffffffffffffffffffff16610a3e611642565b73ffffffffffffffffffffffffffffffffffffffff161480610a6d5750610a6c81610a67611642565b611458565b5b610aac576040517f08c379a0000000000000000000000000000000000000000000000000000000008152600401610aa390613076565b60405180910390fd5b610ab6838361164a565b505050565b610ac3611703565b8060099081610ad29190613242565b5050565b6000610ae26007611781565b905090565b610af8610af2611642565b8261178f565b610b37576040517f08c379a0000000000000000000000000000000000000000000000000000000008152600401610b2e90613386565b60405180910390fd5b610b42838383611824565b505050565b600080610b52610f70565b9150606483601054610b6491906133d5565b610b6e9190613446565b90509250929050565b610b9283838360405180602001604052806000815250611236565b505050565b60606000610ba483610ea5565b905060008167ffffffffffffffff811115610bc257610bc16128b7565b5b604051908082528060200260200182016040528015610bf05781602001602082028036833780820191505090505b50905060006001905060005b8381108015610c0d5750600b548211155b15610c95576000610c1d83610e1f565b90508673ffffffffffffffffffffffffffffffffffffffff168173ffffffffffffffffffffffffffffffffffffffff1603610c815782848381518110610c6657610c65613477565b5b6020026020010181815250508180610c7d906134a6565b9250505b8280610c8c906134a6565b93505050610bfc565b82945050505050919050565b60098054610cae90612f41565b80601f0160208091040260200160405190810160405280929190818152602001828054610cda90612f41565b8015610d275780601f10610cfc57610100808354040283529160200191610d27565b820191906000526020600020905b815481529060010190602001808311610d0a57829003601f168201915b505050505081565b610d37611703565b8060089081610d469190613242565b5050565b6000600e60003373ffffffffffffffffffffffffffffffffffffffff1673ffffffffffffffffffffffffffffffffffffffff16815260200190815260200160002054905090565b60088054610d9e90612f41565b80601f0160208091040260200160405190810160405280929190818152602001828054610dca90612f41565b8015610e175780601f10610dec57610100808354040283529160200191610e17565b820191906000526020600020905b815481529060010190602001808311610dfa57829003601f168201915b505050505081565b600080610e2b83611b1d565b9050600073ffffffffffffffffffffffffffffffffffffffff168173ffffffffffffffffffffffffffffffffffffffff1603610e9c576040517f08c379a0000000000000000000000000000000000000000000000000000000008152600401610e939061353a565b60405180910390fd5b80915050919050565b60008073ffffffffffffffffffffffffffffffffffffffff168273ffffffffffffffffffffffffffffffffffffffff1603610f15576040517f08c379a0000000000000000000000000000000000000000000000000000000008152600401610f0c906135cc565b60405180910390fd5b600360008373ffffffffffffffffffffffffffffffffffffffff1673ffffffffffffffffffffffffffffffffffffffff168152602001908152602001600020549050919050565b610f64611703565b610f6e6000611b5a565b565b6000600660009054906101000a900473ffffffffffffffffffffffffffffffffffffffff16905090565b600c5481565b606060018054610faf90612f41565b80601f0160208091040260200160405190810160405280929190818152602001828054610fdb90612f41565b80156110285780601f10610ffd57610100808354040283529160200191611028565b820191906000526020600020905b81548152906001019060200180831161100b57829003601f168201915b5050505050905090565b806000811180156110455750600c548111155b611084576040517f08c379a000000000000000000000000000000000000000000000000000000000815260040161107b90613638565b60405180910390fd5b600b54816110926007611781565b61109c9190613658565b11156110dd576040517f08c379a00000000000000000000000000000000000000000000000000000000081526004016110d4906136d8565b60405180910390fd5b81600a546110eb91906133d5565b34101561112d576040517f08c379a000000000000000000000000000000000000000000000000000000000815260040161112490613744565b60405180910390fd5b600d5482600e60003373ffffffffffffffffffffffffffffffffffffffff1673ffffffffffffffffffffffffffffffffffffffff1681526020019081526020016000205461117b9190613658565b11156111bc576040517f08c379a00000000000000000000000000000000000000000000000000000000081526004016111b3906137b0565b60405180910390fd5b6111c63383611c20565b81600e60003373ffffffffffffffffffffffffffffffffffffffff1673ffffffffffffffffffffffffffffffffffffffff16815260200190815260200160002060008282546112159190613658565b925050819055505050565b61123261122b611642565b8383611ce3565b5050565b611247611241611642565b8361178f565b611286576040517f08c379a000000000000000000000000000000000000000000000000000000000815260040161127d90613386565b60405180910390fd5b61129284848484611e4f565b50505050565b600f60009054906101000a900473ffffffffffffffffffffffffffffffffffffffff1681565b600a5481565b6112cc611703565b60008251905060005b818110156113565760005b8381101561134257600060016112f4610ad6565b6112fe9190613658565b905061132486848151811061131657611315613477565b5b602002602001015182611eab565b61132e6007611ec9565b50808061133a906134a6565b9150506112e0565b50808061134e906134a6565b9150506112d5565b50505050565b606061136782611edf565b6113a6576040517f08c379a000000000000000000000000000000000000000000000000000000000815260040161139d90613842565b60405180910390fd5b60006113b0611f20565b905060008151116113d057604051806020016040528060008152506113fe565b806113da84611fb2565b60096040516020016113ee93929190613921565b6040516020818303038152906040525b915050919050565b600b5481565b611414611703565b80600f60006101000a81548173ffffffffffffffffffffffffffffffffffffffff021916908373ffffffffffffffffffffffffffffffffffffffff16021790555050565b6000600560008473ffffffffffffffffffffffffffffffffffffffff1673ffffffffffffffffffffffffffffffffffffffff16815260200190815260200160002060008373ffffffffffffffffffffffffffffffffffffffff1673ffffffffffffffffffffffffffffffffffffffff16815260200190815260200160002060009054906101000a900460ff16905092915050565b600e6020528060005260406000206000915090505481565b60105481565b611512611703565b600073ffffffffffffffffffffffffffffffffffffffff168173ffffffffffffffffffffffffffffffffffffffff1603611581576040517f08c379a0000000000000000000000000000000000000000000000000000000008152600401611578906139c4565b60405180910390fd5b61158a81611b5a565b50565b60007f01ffc9a7000000000000000000000000000000000000000000000000000000007bffffffffffffffffffffffffffffffffffffffffffffffffffffffff1916827bffffffffffffffffffffffffffffffffffffffffffffffffffffffff1916149050919050565b61160081611edf565b61163f576040517f08c379a00000000000000000000000000000000000000000000000000000000081526004016116369061353a565b60405180910390fd5b50565b600033905090565b816004600083815260200190815260200160002060006101000a81548173ffffffffffffffffffffffffffffffffffffffff021916908373ffffffffffffffffffffffffffffffffffffffff160217905550808273ffffffffffffffffffffffffffffffffffffffff166116bd83610e1f565b73ffffffffffffffffffffffffffffffffffffffff167f8c5be1e5ebec7d5bd14f71427d1e84f3dd0314c0f7b2291e5b200ac8c7c3b92560405160405180910390a45050565b61170b611642565b73ffffffffffffffffffffffffffffffffffffffff16611729610f70565b73ffffffffffffffffffffffffffffffffffffffff161461177f576040517f08c379a000000000000000000000000000000000000000000000000000000000815260040161177690613a30565b60405180910390fd5b565b600081600001549050919050565b60008061179b83610e1f565b90508073ffffffffffffffffffffffffffffffffffffffff168473ffffffffffffffffffffffffffffffffffffffff1614806117dd57506117dc8185611458565b5b8061181b57508373ffffffffffffffffffffffffffffffffffffffff166118038461095e565b73ffffffffffffffffffffffffffffffffffffffff16145b91505092915050565b8273ffffffffffffffffffffffffffffffffffffffff1661184482610e1f565b73ffffffffffffffffffffffffffffffffffffffff161461189a576040517f08c379a000000000000000000000000000000000000000000000000000000000815260040161189190613ac2565b60405180910390fd5b600073ffffffffffffffffffffffffffffffffffffffff168273ffffffffffffffffffffffffffffffffffffffff1603611909576040517f08c379a000000000000000000000000000000000000000000000000000000000815260040161190090613b54565b60405180910390fd5b6119168383836001612080565b8273ffffffffffffffffffffffffffffffffffffffff1661193682610e1f565b73ffffffffffffffffffffffffffffffffffffffff161461198c576040517f08c379a000000000000000000000000000000000000000000000000000000000815260040161198390613ac2565b60405180910390fd5b6004600082815260200190815260200160002060006101000a81549073ffffffffffffffffffffffffffffffffffffffff02191690556001600360008573ffffffffffffffffffffffffffffffffffffffff1673ffffffffffffffffffffffffffffffffffffffff168152602001908152602001600020600082825403925050819055506001600360008473ffffffffffffffffffffffffffffffffffffffff1673ffffffffffffffffffffffffffffffffffffffff16815260200190815260200160002060008282540192505081905550816002600083815260200190815260200160002060006101000a81548173ffffffffffffffffffffffffffffffffffffffff021916908373ffffffffffffffffffffffffffffffffffffffff160217905550808273ffffffffffffffffffffffffffffffffffffffff168473ffffffffffffffffffffffffffffffffffffffff167fddf252ad1be2c89b69c2b068fc378daa952ba7f163c4a11628f55a4df523b3ef60405160405180910390a4611b188383836001612086565b505050565b60006002600083815260200190815260200160002060009054906101000a900473ffffffffffffffffffffffffffffffffffffffff169050919050565b6000600660009054906101000a900473ffffffffffffffffffffffffffffffffffffffff16905081600660006101000a81548173ffffffffffffffffffffffffffffffffffffffff021916908373ffffffffffffffffffffffffffffffffffffffff1602179055508173ffffffffffffffffffffffffffffffffffffffff168173ffffffffffffffffffffffffffffffffffffffff167f8be0079c531659141344cd1fd0a4f28419497f9722a3daafe3b4186f6b6457e060405160405180910390a35050565b60005b81811015611c6b5760006001611c37610ad6565b611c419190613658565b9050611c4d8482611eab565b611c576007611ec9565b508080611c63906134a6565b915050611c23565b506000471115611cdf57600f60009054906101000a900473ffffffffffffffffffffffffffffffffffffffff1673ffffffffffffffffffffffffffffffffffffffff166108fc479081150290604051600060405180830381858888f19350505050158015611cdd573d6000803e3d6000fd5b505b5050565b8173ffffffffffffffffffffffffffffffffffffffff168373ffffffffffffffffffffffffffffffffffffffff1603611d51576040517f08c379a0000000000000000000000000000000000000000000000000000000008152600401611d4890613bc0565b60405180910390fd5b80600560008573ffffffffffffffffffffffffffffffffffffffff1673ffffffffffffffffffffffffffffffffffffffff16815260200190815260200160002060008473ffffffffffffffffffffffffffffffffffffffff1673ffffffffffffffffffffffffffffffffffffffff16815260200190815260200160002060006101000a81548160ff0219169083151502179055508173ffffffffffffffffffffffffffffffffffffffff168373ffffffffffffffffffffffffffffffffffffffff167f17307eab39ab6107e8899845ad3d59bd9653f200f220920489ca2b5937696c3183604051611e4291906126b5565b60405180910390a3505050565b611e5a848484611824565b611e668484848461208c565b611ea5576040517f08c379a0000000000000000000000000000000000000000000000000000000008152600401611e9c90613c52565b60405180910390fd5b50505050565b611ec5828260405180602001604052806000815250612213565b5050565b6001816000016000828254019250508190555050565b60008073ffffffffffffffffffffffffffffffffffffffff16611f0183611b1d565b73ffffffffffffffffffffffffffffffffffffffff1614159050919050565b606060088054611f2f90612f41565b80601f0160208091040260200160405190810160405280929190818152602001828054611f5b90612f41565b8015611fa85780601f10611f7d57610100808354040283529160200191611fa8565b820191906000526020600020905b815481529060010190602001808311611f8b57829003601f168201915b5050505050905090565b606060006001611fc18461226e565b01905060008167ffffffffffffffff811115611fe057611fdf6128b7565b5b6040519080825280601f01601f1916602001820160405280156120125781602001600182028036833780820191505090505b509050600082602001820190505b600115612075578080600190039150507f3031323334353637383961626364656600000000000000000000000000000000600a86061a8153600a858161206957612068613417565b5b04945060008503612020575b819350505050919050565b50505050565b50505050565b60006120ad8473ffffffffffffffffffffffffffffffffffffffff166123c1565b15612206578373ffffffffffffffffffffffffffffffffffffffff1663150b7a026120d6611642565b8786866040518563ffffffff1660e01b81526004016120f89493929190613cc7565b6020604051808303816000875af192505050801561213457506040513d601f19601f820116820180604052508101906121319190613d28565b60015b6121b6573d8060008114612164576040519150601f19603f3d011682016040523d82523d6000602084013e612169565b606091505b5060008151036121ae576040517f08c379a00000000000000000000000000000000000000000000000000000000081526004016121a590613c52565b60405180910390fd5b805181602001fd5b63150b7a0260e01b7bffffffffffffffffffffffffffffffffffffffffffffffffffffffff1916817bffffffffffffffffffffffffffffffffffffffffffffffffffffffff19161491505061220b565b600190505b949350505050565b61221d83836123e4565b61222a600084848461208c565b612269576040517f08c379a000000000000000000000000000000000000000000000000000000000815260040161226090613c52565b60405180910390fd5b505050565b600080600090507a184f03e93ff9f4daa797ed6e38ed64bf6a1f01000000000000000083106122cc577a184f03e93ff9f4daa797ed6e38ed64bf6a1f01000000000000000083816122c2576122c1613417565b5b0492506040810190505b6d04ee2d6d415b85acef81000000008310612309576d04ee2d6d415b85acef810000000083816122ff576122fe613417565b5b0492506020810190505b662386f26fc10000831061233857662386f26fc10000838161232e5761232d613417565b5b0492506010810190505b6305f5e1008310612361576305f5e100838161235757612356613417565b5b0492506008810190505b612710831061238657612710838161237c5761237b613417565b5b0492506004810190505b606483106123a9576064838161239f5761239e613417565b5b0492506002810190505b600a83106123b8576001810190505b80915050919050565b6000808273ffffffffffffffffffffffffffffffffffffffff163b119050919050565b600073ffffffffffffffffffffffffffffffffffffffff168273ffffffffffffffffffffffffffffffffffffffff1603612453576040517f08c379a000000000000000000000000000000000000000000000000000000000815260040161244a90613da1565b60405180910390fd5b61245c81611edf565b1561249c576040517f08c379a000000000000000000000000000000000000000000000000000000000815260040161249390613e0d565b60405180910390fd5b6124aa600083836001612080565b6124b381611edf565b156124f3576040517f08c379a00000000000000000000000000000000000000000000000000000000081526004016124ea90613e0d565b60405180910390fd5b6001600360008473ffffffffffffffffffffffffffffffffffffffff1673ffffffffffffffffffffffffffffffffffffffff16815260200190815260200160002060008282540192505081905550816002600083815260200190815260200160002060006101000a81548173ffffffffffffffffffffffffffffffffffffffff021916908373ffffffffffffffffffffffffffffffffffffffff160217905550808273ffffffffffffffffffffffffffffffffffffffff16600073ffffffffffffffffffffffffffffffffffffffff167fddf252ad1be2c89b69c2b068fc378daa952ba7f163c4a11628f55a4df523b3ef60405160405180910390a46125fd600083836001612086565b5050565b6000604051905090565b600080fd5b600080fd5b60007fffffffff0000000000000000000000000000000000000000000000000000000082169050919050565b61264a81612615565b811461265557600080fd5b50565b60008135905061266781612641565b92915050565b6000602082840312156126835761268261260b565b5b600061269184828501612658565b91505092915050565b60008115159050919050565b6126af8161269a565b82525050565b60006020820190506126ca60008301846126a6565b92915050565b600081519050919050565b600082825260208201905092915050565b60005b8381101561270a5780820151818401526020810190506126ef565b60008484015250505050565b6000601f19601f8301169050919050565b6000612732826126d0565b61273c81856126db565b935061274c8185602086016126ec565b61275581612716565b840191505092915050565b6000602082019050818103600083015261277a8184612727565b905092915050565b6000819050919050565b61279581612782565b81146127a057600080fd5b50565b6000813590506127b28161278c565b92915050565b6000602082840312156127ce576127cd61260b565b5b60006127dc848285016127a3565b91505092915050565b600073ffffffffffffffffffffffffffffffffffffffff82169050919050565b6000612810826127e5565b9050919050565b61282081612805565b82525050565b600060208201905061283b6000830184612817565b92915050565b61284a81612805565b811461285557600080fd5b50565b60008135905061286781612841565b92915050565b600080604083850312156128845761288361260b565b5b600061289285828601612858565b92505060206128a3858286016127a3565b9150509250929050565b600080fd5b600080fd5b7f4e487b7100000000000000000000000000000000000000000000000000000000600052604160045260246000fd5b6128ef82612716565b810181811067ffffffffffffffff8211171561290e5761290d6128b7565b5b80604052505050565b6000612921612601565b905061292d82826128e6565b919050565b600067ffffffffffffffff82111561294d5761294c6128b7565b5b61295682612716565b9050602081019050919050565b82818337600083830152505050565b600061298561298084612932565b612917565b9050828152602081018484840111156129a1576129a06128b2565b5b6129ac848285612963565b509392505050565b600082601f8301126129c9576129c86128ad565b5b81356129d9848260208601612972565b91505092915050565b6000602082840312156129f8576129f761260b565b5b600082013567ffffffffffffffff811115612a1657612a15612610565b5b612a22848285016129b4565b91505092915050565b612a3481612782565b82525050565b6000602082019050612a4f6000830184612a2b565b92915050565b600080600060608486031215612a6e57612a6d61260b565b5b6000612a7c86828701612858565b9350506020612a8d86828701612858565b9250506040612a9e868287016127a3565b9150509250925092565b60008060408385031215612abf57612abe61260b565b5b6000612acd858286016127a3565b9250506020612ade858286016127a3565b9150509250929050565b6000604082019050612afd6000830185612817565b612b0a6020830184612a2b565b9392505050565b600060208284031215612b2757612b2661260b565b5b6000612b3584828501612858565b91505092915050565b600081519050919050565b600082825260208201905092915050565b6000819050602082019050919050565b612b7381612782565b82525050565b6000612b858383612b6a565b60208301905092915050565b6000602082019050919050565b6000612ba982612b3e565b612bb38185612b49565b9350612bbe83612b5a565b8060005b83811015612bef578151612bd68882612b79565b9750612be183612b91565b925050600181019050612bc2565b5085935050505092915050565b60006020820190508181036000830152612c168184612b9e565b905092915050565b612c278161269a565b8114612c3257600080fd5b50565b600081359050612c4481612c1e565b92915050565b60008060408385031215612c6157612c6061260b565b5b6000612c6f85828601612858565b9250506020612c8085828601612c35565b9150509250929050565b600067ffffffffffffffff821115612ca557612ca46128b7565b5b612cae82612716565b9050602081019050919050565b6000612cce612cc984612c8a565b612917565b905082815260208101848484011115612cea57612ce96128b2565b5b612cf5848285612963565b509392505050565b600082601f830112612d1257612d116128ad565b5b8135612d22848260208601612cbb565b91505092915050565b60008060008060808587031215612d4557612d4461260b565b5b6000612d5387828801612858565b9450506020612d6487828801612858565b9350506040612d75878288016127a3565b925050606085013567ffffffffffffffff811115612d9657612d95612610565b5b612da287828801612cfd565b91505092959194509250565b600067ffffffffffffffff821115612dc957612dc86128b7565b5b602082029050602081019050919050565b600080fd5b6000612df2612ded84612dae565b612917565b90508083825260208201905060208402830185811115612e1557612e14612dda565b5b835b81811015612e3e5780612e2a8882612858565b845260208401935050602081019050612e17565b5050509392505050565b600082601f830112612e5d57612e5c6128ad565b5b8135612e6d848260208601612ddf565b91505092915050565b60008060408385031215612e8d57612e8c61260b565b5b600083013567ffffffffffffffff811115612eab57612eaa612610565b5b612eb785828601612e48565b9250506020612ec8858286016127a3565b9150509250929050565b60008060408385031215612ee957612ee861260b565b5b6000612ef785828601612858565b9250506020612f0885828601612858565b9150509250929050565b7f4e487b7100000000000000000000000000000000000000000000000000000000600052602260045260246000fd5b60006002820490506001821680612f5957607f821691505b602082108103612f6c57612f6b612f12565b5b50919050565b7f4552433732313a20617070726f76616c20746f2063757272656e74206f776e6560008201527f7200000000000000000000000000000000000000000000000000000000000000602082015250565b6000612fce6021836126db565b9150612fd982612f72565b604082019050919050565b60006020820190508181036000830152612ffd81612fc1565b9050919050565b7f4552433732313a20617070726f76652063616c6c6572206973206e6f7420746f60008201527f6b656e206f776e6572206f7220617070726f76656420666f7220616c6c000000602082015250565b6000613060603d836126db565b915061306b82613004565b604082019050919050565b6000602082019050818103600083015261308f81613053565b9050919050565b60008190508160005260206000209050919050565b60006020601f8301049050919050565b600082821b905092915050565b6000600883026130f87fffffffffffffffffffffffffffffffffffffffffffffffffffffffffffffffff826130bb565b61310286836130bb565b95508019841693508086168417925050509392505050565b6000819050919050565b600061313f61313a61313584612782565b61311a565b612782565b9050919050565b6000819050919050565b61315983613124565b61316d61316582613146565b8484546130c8565b825550505050565b600090565b613182613175565b61318d818484613150565b505050565b5b818110156131b1576131a660008261317a565b600181019050613193565b5050565b601f8211156131f6576131c781613096565b6131d0846130ab565b810160208510156131df578190505b6131f36131eb856130ab565b830182613192565b50505b505050565b600082821c905092915050565b6000613219600019846008026131fb565b1980831691505092915050565b60006132328383613208565b9150826002028217905092915050565b61324b826126d0565b67ffffffffffffffff811115613264576132636128b7565b5b61326e8254612f41565b6132798282856131b5565b600060209050601f8311600181146132ac576000841561329a578287015190505b6132a48582613226565b86555061330c565b601f1984166132ba86613096565b60005b828110156132e2578489015182556001820191506020850194506020810190506132bd565b868310156132ff57848901516132fb601f891682613208565b8355505b6001600288020188555050505b505050505050565b7f4552433732313a2063616c6c6572206973206e6f7420746f6b656e206f776e6560008201527f72206f7220617070726f76656400000000000000000000000000000000000000602082015250565b6000613370602d836126db565b915061337b82613314565b604082019050919050565b6000602082019050818103600083015261339f81613363565b9050919050565b7f4e487b7100000000000000000000000000000000000000000000000000000000600052601160045260246000fd5b60006133e082612782565b91506133eb83612782565b92508282026133f981612782565b915082820484148315176134105761340f6133a6565b5b5092915050565b7f4e487b7100000000000000000000000000000000000000000000000000000000600052601260045260246000fd5b600061345182612782565b915061345c83612782565b92508261346c5761346b613417565b5b828204905092915050565b7f4e487b7100000000000000000000000000000000000000000000000000000000600052603260045260246000fd5b60006134b182612782565b91507fffffffffffffffffffffffffffffffffffffffffffffffffffffffffffffffff82036134e3576134e26133a6565b5b600182019050919050565b7f4552433732313a20696e76616c696420746f6b656e2049440000000000000000600082015250565b60006135246018836126db565b915061352f826134ee565b602082019050919050565b6000602082019050818103600083015261355381613517565b9050919050565b7f4552433732313a2061646472657373207a65726f206973206e6f74206120766160008201527f6c6964206f776e65720000000000000000000000000000000000000000000000602082015250565b60006135b66029836126db565b91506135c18261355a565b604082019050919050565b600060208201905081810360008301526135e5816135a9565b9050919050565b7f496e76616c6964206d696e7420616d6f756e7421000000000000000000000000600082015250565b60006136226014836126db565b915061362d826135ec565b602082019050919050565b6000602082019050818103600083015261365181613615565b9050919050565b600061366382612782565b915061366e83612782565b9250828201905080821115613686576136856133a6565b5b92915050565b7f57696c6c20657863656564206d6178696d756d20737570706c79210000000000600082015250565b60006136c2601b836126db565b91506136cd8261368c565b602082019050919050565b600060208201905081810360008301526136f1816136b5565b9050919050565b7f496e73756666696369656e742066756e64732100000000000000000000000000600082015250565b600061372e6013836126db565b9150613739826136f8565b602082019050919050565b6000602082019050818103600083015261375d81613721565b9050919050565b7f7075626c6963206d696e74206c696d6974206578636565646564000000000000600082015250565b600061379a601a836126db565b91506137a582613764565b602082019050919050565b600060208201905081810360008301526137c98161378d565b9050919050565b7f4552433732314d657461646174613a2055524920717565727920666f72206e6f60008201527f6e6578697374656e7420746f6b656e0000000000000000000000000000000000602082015250565b600061382c602f836126db565b9150613837826137d0565b604082019050919050565b6000602082019050818103600083015261385b8161381f565b9050919050565b600081905092915050565b6000613878826126d0565b6138828185613862565b93506138928185602086016126ec565b80840191505092915050565b600081546138ab81612f41565b6138b58186613862565b945060018216600081146138d057600181146138e557613918565b60ff1983168652811515820286019350613918565b6138ee85613096565b60005b83811015613910578154818901526001820191506020810190506138f1565b838801955050505b50505092915050565b600061392d828661386d565b9150613939828561386d565b9150613945828461389e565b9150819050949350505050565b7f4f776e61626c653a206e6577206f776e657220697320746865207a65726f206160008201527f6464726573730000000000000000000000000000000000000000000000000000602082015250565b60006139ae6026836126db565b91506139b982613952565b604082019050919050565b600060208201905081810360008301526139dd816139a1565b9050919050565b7f4f776e61626c653a2063616c6c6572206973206e6f7420746865206f776e6572600082015250565b6000613a1a6020836126db565b9150613a25826139e4565b602082019050919050565b60006020820190508181036000830152613a4981613a0d565b9050919050565b7f4552433732313a207472616e736665722066726f6d20696e636f72726563742060008201527f6f776e6572000000000000000000000000000000000000000000000000000000602082015250565b6000613aac6025836126db565b9150613ab782613a50565b604082019050919050565b60006020820190508181036000830152613adb81613a9f565b9050919050565b7f4552433732313a207472616e7366657220746f20746865207a65726f2061646460008201527f7265737300000000000000000000000000000000000000000000000000000000602082015250565b6000613b3e6024836126db565b9150613b4982613ae2565b604082019050919050565b60006020820190508181036000830152613b6d81613b31565b9050919050565b7f4552433732313a20617070726f766520746f2063616c6c657200000000000000600082015250565b6000613baa6019836126db565b9150613bb582613b74565b602082019050919050565b60006020820190508181036000830152613bd981613b9d565b9050919050565b7f4552433732313a207472616e7366657220746f206e6f6e20455243373231526560008201527f63656976657220696d706c656d656e7465720000000000000000000000000000602082015250565b6000613c3c6032836126db565b9150613c4782613be0565b604082019050919050565b60006020820190508181036000830152613c6b81613c2f565b9050919050565b600081519050919050565b600082825260208201905092915050565b6000613c9982613c72565b613ca38185613c7d565b9350613cb38185602086016126ec565b613cbc81612716565b840191505092915050565b6000608082019050613cdc6000830187612817565b613ce96020830186612817565b613cf66040830185612a2b565b8181036060830152613d088184613c8e565b905095945050505050565b600081519050613d2281612641565b92915050565b600060208284031215613d3e57613d3d61260b565b5b6000613d4c84828501613d13565b91505092915050565b7f4552433732313a206d696e7420746f20746865207a65726f2061646472657373600082015250565b6000613d8b6020836126db565b9150613d9682613d55565b602082019050919050565b60006020820190508181036000830152613dba81613d7e565b9050919050565b7f4552433732313a20746f6b656e20616c7265616479206d696e74656400000000600082015250565b6000613df7601c836126db565b9150613e0282613dc1565b602082019050919050565b60006020820190508181036000830152613e2681613dea565b905091905056fea264697066735822122089d2606d65ae7ff5d198dd85f18c7395888992b1bcd7cbed53bdaeda7edf362f64736f6c63430008110033",
  "linkReferences": {},
  "deployedLinkReferences": {}
}