{
  "_format": "hh-sol-artifact-1",
  "contractName": "FlappyOwl",
  "sourceName": "contracts/ERC721/FlappyOwl.sol",
  "abi": [
    {
      "inputs": [],
      "stateMutability": "nonpayable",
      "type": "constructor"
    },
    {
      "inputs": [],
      "name": "ApprovalCallerNotOwnerNorApproved",
      "type": "error"
    },
    {
      "inputs": [],
      "name": "ApprovalQueryForNonexistentToken",
      "type": "error"
    },
    {
      "inputs": [],
      "name": "BalanceQueryForZeroAddress",
      "type": "error"
    },
    {
      "inputs": [],
      "name": "MintERC2309QuantityExceedsLimit",
      "type": "error"
    },
    {
      "inputs": [],
      "name": "MintToZeroAddress",
      "type": "error"
    },
    {
      "inputs": [],
      "name": "MintZeroQuantity",
      "type": "error"
    },
    {
      "inputs": [
        {
          "internalType": "address",
          "name": "operator",
          "type": "address"
        }
      ],
      "name": "OperatorNotAllowed",
      "type": "error"
    },
    {
      "inputs": [],
      "name": "OwnerQueryForNonexistentToken",
      "type": "error"
    },
    {
      "inputs": [],
      "name": "OwnershipNotInitializedForExtraData",
      "type": "error"
    },
    {
      "inputs": [],
      "name": "TransferCallerNotOwnerNorApproved",
      "type": "error"
    },
    {
      "inputs": [],
      "name": "TransferFromIncorrectOwner",
      "type": "error"
    },
    {
      "inputs": [],
      "name": "TransferToNonERC721ReceiverImplementer",
      "type": "error"
    },
    {
      "inputs": [],
      "name": "TransferToZeroAddress",
      "type": "error"
    },
    {
      "inputs": [],
      "name": "URIQueryForNonexistentToken",
      "type": "error"
    },
    {
      "anonymous": false,
      "inputs": [
        {
          "indexed": true,
          "internalType": "address",
          "name": "owner",
          "type": "address"
        },
        {
          "indexed": true,
          "internalType": "address",
          "name": "approved",
          "type": "address"
        },
        {
          "indexed": true,
          "internalType": "uint256",
          "name": "tokenId",
          "type": "uint256"
        }
      ],
      "name": "Approval",
      "type": "event"
    },
    {
      "anonymous": false,
      "inputs": [
        {
          "indexed": true,
          "internalType": "address",
          "name": "owner",
          "type": "address"
        },
        {
          "indexed": true,
          "internalType": "address",
          "name": "operator",
          "type": "address"
        },
        {
          "indexed": false,
          "internalType": "bool",
          "name": "approved",
          "type": "bool"
        }
      ],
      "name": "ApprovalForAll",
      "type": "event"
    },
    {
      "anonymous": false,
      "inputs": [
        {
          "indexed": true,
          "internalType": "uint256",
          "name": "fromTokenId",
          "type": "uint256"
        },
        {
          "indexed": false,
          "internalType": "uint256",
          "name": "toTokenId",
          "type": "uint256"
        },
        {
          "indexed": true,
          "internalType": "address",
          "name": "from",
          "type": "address"
        },
        {
          "indexed": true,
          "internalType": "address",
          "name": "to",
          "type": "address"
        }
      ],
      "name": "ConsecutiveTransfer",
      "type": "event"
    },
    {
      "anonymous": false,
      "inputs": [
        {
          "indexed": true,
          "internalType": "address",
          "name": "previousOwner",
          "type": "address"
        },
        {
          "indexed": true,
          "internalType": "address",
          "name": "newOwner",
          "type": "address"
        }
      ],
      "name": "OwnershipTransferred",
      "type": "event"
    },
    {
      "anonymous": false,
      "inputs": [
        {
          "indexed": true,
          "internalType": "address",
          "name": "from",
          "type": "address"
        },
        {
          "indexed": true,
          "internalType": "address",
          "name": "to",
          "type": "address"
        },
        {
          "indexed": true,
          "internalType": "uint256",
          "name": "tokenId",
          "type": "uint256"
        }
      ],
      "name": "Transfer",
      "type": "event"
    },
    {
      "inputs": [],
      "name": "OPERATOR_FILTER_REGISTRY",
      "outputs": [
        {
          "internalType": "contract IOperatorFilterRegistry",
          "name": "",
          "type": "address"
        }
      ],
      "stateMutability": "view",
      "type": "function"
    },
    {
      "inputs": [
        {
          "internalType": "address[]",
          "name": "_recipients",
          "type": "address[]"
        },
        {
          "internalType": "uint256",
          "name": "_mintAmount",
          "type": "uint256"
        }
      ],
      "name": "airdrop",
      "outputs": [],
      "stateMutability": "nonpayable",
      "type": "function"
    },
    {
      "inputs": [
        {
          "internalType": "address",
          "name": "to",
          "type": "address"
        },
        {
          "internalType": "uint256",
          "name": "tokenId",
          "type": "uint256"
        }
      ],
      "name": "approve",
      "outputs": [],
      "stateMutability": "payable",
      "type": "function"
    },
    {
      "inputs": [
        {
          "internalType": "address",
          "name": "owner",
          "type": "address"
        }
      ],
      "name": "balanceOf",
      "outputs": [
        {
          "internalType": "uint256",
          "name": "",
          "type": "uint256"
        }
      ],
      "stateMutability": "view",
      "type": "function"
    },
    {
      "inputs": [],
      "name": "beneficiaryAddress",
      "outputs": [
        {
          "internalType": "address",
          "name": "",
          "type": "address"
        }
      ],
      "stateMutability": "view",
      "type": "function"
    },
    {
      "inputs": [],
      "name": "freePerWallet",
      "outputs": [
        {
          "internalType": "uint8",
          "name": "",
          "type": "uint8"
        }
      ],
      "stateMutability": "view",
      "type": "function"
    },
    {
      "inputs": [
        {
          "internalType": "uint256",
          "name": "tokenId",
          "type": "uint256"
        }
      ],
      "name": "getApproved",
      "outputs": [
        {
          "internalType": "address",
          "name": "",
          "type": "address"
        }
      ],
      "stateMutability": "view",
      "type": "function"
    },
    {
      "inputs": [
        {
          "internalType": "uint256",
          "name": "tokenId",
          "type": "uint256"
        }
      ],
      "name": "getSeed",
      "outputs": [
        {
          "internalType": "uint256",
          "name": "",
          "type": "uint256"
        }
      ],
      "stateMutability": "view",
      "type": "function"
    },
    {
      "inputs": [],
      "name": "getmintCount",
      "outputs": [
        {
          "internalType": "uint256",
          "name": "",
          "type": "uint256"
        }
      ],
      "stateMutability": "view",
      "type": "function"
    },
    {
      "inputs": [
        {
          "internalType": "address",
          "name": "owner",
          "type": "address"
        },
        {
          "internalType": "address",
          "name": "operator",
          "type": "address"
        }
      ],
      "name": "isApprovedForAll",
      "outputs": [
        {
          "internalType": "bool",
          "name": "",
          "type": "bool"
        }
      ],
      "stateMutability": "view",
      "type": "function"
    },
    {
      "inputs": [],
      "name": "isPublicMint",
      "outputs": [
        {
          "internalType": "bool",
          "name": "",
          "type": "bool"
        }
      ],
      "stateMutability": "view",
      "type": "function"
    },
    {
      "inputs": [],
      "name": "maxMintPerWallet",
      "outputs": [
        {
          "internalType": "uint8",
          "name": "",
          "type": "uint8"
        }
      ],
      "stateMutability": "view",
      "type": "function"
    },
    {
      "inputs": [],
      "name": "maxSupply",
      "outputs": [
        {
          "internalType": "uint24",
          "name": "",
          "type": "uint24"
        }
      ],
      "stateMutability": "view",
      "type": "function"
    },
    {
      "inputs": [
        {
          "internalType": "uint256",
          "name": "_mintAmount",
          "type": "uint256"
        }
      ],
      "name": "mint",
      "outputs": [],
      "stateMutability": "payable",
      "type": "function"
    },
    {
      "inputs": [],
      "name": "mintCost",
      "outputs": [
        {
          "internalType": "uint96",
          "name": "",
          "type": "uint96"
        }
      ],
      "stateMutability": "view",
      "type": "function"
    },
    {
      "inputs": [
        {
          "internalType": "address",
          "name": "",
          "type": "address"
        }
      ],
      "name": "mintCount",
      "outputs": [
        {
          "internalType": "uint256",
          "name": "",
          "type": "uint256"
        }
      ],
      "stateMutability": "view",
      "type": "function"
    },
    {
      "inputs": [],
      "name": "name",
      "outputs": [
        {
          "internalType": "string",
          "name": "",
          "type": "string"
        }
      ],
      "stateMutability": "view",
      "type": "function"
    },
    {
      "inputs": [],
      "name": "owner",
      "outputs": [
        {
          "internalType": "address",
          "name": "",
          "type": "address"
        }
      ],
      "stateMutability": "view",
      "type": "function"
    },
    {
      "inputs": [
        {
          "internalType": "uint256",
          "name": "tokenId",
          "type": "uint256"
        }
      ],
      "name": "ownerOf",
      "outputs": [
        {
          "internalType": "address",
          "name": "",
          "type": "address"
        }
      ],
      "stateMutability": "view",
      "type": "function"
    },
    {
      "inputs": [],
      "name": "renounceOwnership",
      "outputs": [],
      "stateMutability": "nonpayable",
      "type": "function"
    },
    {
      "inputs": [],
      "name": "royaltyAddress",
      "outputs": [
        {
          "internalType": "address",
          "name": "",
          "type": "address"
        }
      ],
      "stateMutability": "view",
      "type": "function"
    },
    {
      "inputs": [
        {
          "internalType": "uint256",
          "name": "_tokenId",
          "type": "uint256"
        },
        {
          "internalType": "uint256",
          "name": "_salePrice",
          "type": "uint256"
        }
      ],
      "name": "royaltyInfo",
      "outputs": [
        {
          "internalType": "address",
          "name": "receiver",
          "type": "address"
        },
        {
          "internalType": "uint256",
          "name": "royaltyAmount",
          "type": "uint256"
        }
      ],
      "stateMutability": "view",
      "type": "function"
    },
    {
      "inputs": [
        {
          "internalType": "address",
          "name": "from",
          "type": "address"
        },
        {
          "internalType": "address",
          "name": "to",
          "type": "address"
        },
        {
          "internalType": "uint256",
          "name": "tokenId",
          "type": "uint256"
        }
      ],
      "name": "safeTransferFrom",
      "outputs": [],
      "stateMutability": "payable",
      "type": "function"
    },
    {
      "inputs": [
        {
          "internalType": "address",
          "name": "from",
          "type": "address"
        },
        {
          "internalType": "address",
          "name": "to",
          "type": "address"
        },
        {
          "internalType": "uint256",
          "name": "tokenId",
          "type": "uint256"
        },
        {
          "internalType": "bytes",
          "name": "data",
          "type": "bytes"
        }
      ],
      "name": "safeTransferFrom",
      "outputs": [],
      "stateMutability": "payable",
      "type": "function"
    },
    {
      "inputs": [
        {
          "internalType": "address",
          "name": "operator",
          "type": "address"
        },
        {
          "internalType": "bool",
          "name": "approved",
          "type": "bool"
        }
      ],
      "name": "setApprovalForAll",
      "outputs": [],
      "stateMutability": "nonpayable",
      "type": "function"
    },
    {
      "inputs": [
        {
          "internalType": "bool",
          "name": "value",
          "type": "bool"
        }
      ],
      "name": "setSoldOut",
      "outputs": [],
      "stateMutability": "nonpayable",
      "type": "function"
    },
    {
      "inputs": [
        {
          "internalType": "bytes4",
          "name": "interfaceId",
          "type": "bytes4"
        }
      ],
      "name": "supportsInterface",
      "outputs": [
        {
          "internalType": "bool",
          "name": "",
          "type": "bool"
        }
      ],
      "stateMutability": "view",
      "type": "function"
    },
    {
      "inputs": [],
      "name": "symbol",
      "outputs": [
        {
          "internalType": "string",
          "name": "",
          "type": "string"
        }
      ],
      "stateMutability": "view",
      "type": "function"
    },
    {
      "inputs": [
        {
          "internalType": "uint256",
          "name": "tokenId",
          "type": "uint256"
        }
      ],
      "name": "tokenURI",
      "outputs": [
        {
          "internalType": "string",
          "name": "",
          "type": "string"
        }
      ],
      "stateMutability": "view",
      "type": "function"
    },
    {
      "inputs": [],
      "name": "totalSupply",
      "outputs": [
        {
          "internalType": "uint256",
          "name": "",
          "type": "uint256"
        }
      ],
      "stateMutability": "view",
      "type": "function"
    },
    {
      "inputs": [
        {
          "internalType": "address",
          "name": "from",
          "type": "address"
        },
        {
          "internalType": "address",
          "name": "to",
          "type": "address"
        },
        {
          "internalType": "uint256",
          "name": "tokenId",
          "type": "uint256"
        }
      ],
      "name": "transferFrom",
      "outputs": [],
      "stateMutability": "payable",
      "type": "function"
    },
    {
      "inputs": [
        {
          "internalType": "address",
          "name": "newOwner",
          "type": "address"
        }
      ],
      "name": "transferOwnership",
      "outputs": [],
      "stateMutability": "nonpayable",
      "type": "function"
    },
    {
      "inputs": [
        {
          "internalType": "address",
          "name": "_beneficiaryReceiver",
          "type": "address"
        },
        {
          "internalType": "address",
          "name": "_royaltiesReceiver",
          "type": "address"
        }
      ],
      "name": "updateFoundationAddress",
      "outputs": [],
      "stateMutability": "nonpayable",
      "type": "function"
    },
    {
      "inputs": [
        {
          "internalType": "uint8",
          "name": "_royalties",
          "type": "uint8"
        }
      ],
      "name": "updateRoyalties",
      "outputs": [],
      "stateMutability": "nonpayable",
      "type": "function"
    }
  ],
  "bytecode": "0x60a06040526001600c60006101000a81548160ff02191690831515021790555061520862ffffff1660809062ffffff168152506611c37937e08000600c60016101000a8154816bffffffffffffffffffffffff02191690836bffffffffffffffffffffffff1602179055506015600c600d6101000a81548160ff021916908360ff1602179055506001600c600e6101000a81548160ff021916908360ff1602179055506005600c600f6101000a81548160ff021916908360ff160217905550620000ce6200045060201b60201c565b600d60006101000a81548173ffffffffffffffffffffffffffffffffffffffff021916908373ffffffffffffffffffffffffffffffffffffffff1602179055506200011e6200045060201b60201c565b600e60006101000a81548173ffffffffffffffffffffffffffffffffffffffff021916908373ffffffffffffffffffffffffffffffffffffffff1602179055503480156200016b57600080fd5b50733cc6cdda760b79bafa08df41ecfa224f810dceb660016040518060400160405280601381526020017f466c617070794f776c53696e676c6546696c65000000000000000000000000008152506040518060400160405280600381526020017f464f5300000000000000000000000000000000000000000000000000000000008152508160029081620002009190620007c7565b508060039081620002129190620007c7565b50620002236200047a60201b60201c565b600081905550505060006daaeb6d7670e522a718067333cd4e73ffffffffffffffffffffffffffffffffffffffff163b111562000420578015620002e6576daaeb6d7670e522a718067333cd4e73ffffffffffffffffffffffffffffffffffffffff16637d3e3dbe30846040518363ffffffff1660e01b8152600401620002ac929190620008f3565b600060405180830381600087803b158015620002c757600080fd5b505af1158015620002dc573d6000803e3d6000fd5b505050506200041f565b600073ffffffffffffffffffffffffffffffffffffffff168273ffffffffffffffffffffffffffffffffffffffff1614620003a0576daaeb6d7670e522a718067333cd4e73ffffffffffffffffffffffffffffffffffffffff1663a0af290330846040518363ffffffff1660e01b815260040162000366929190620008f3565b600060405180830381600087803b1580156200038157600080fd5b505af115801562000396573d6000803e3d6000fd5b505050506200041e565b6daaeb6d7670e522a718067333cd4e73ffffffffffffffffffffffffffffffffffffffff16634420e486306040518263ffffffff1660e01b8152600401620003e9919062000920565b600060405180830381600087803b1580156200040457600080fd5b505af115801562000419573d6000803e3d6000fd5b505050505b5b5b505062000442620004366200047f60201b60201c565b6200048760201b60201c565b60016009819055506200093d565b6000600860009054906101000a900473ffffffffffffffffffffffffffffffffffffffff16905090565b600090565b600033905090565b6000600860009054906101000a900473ffffffffffffffffffffffffffffffffffffffff16905081600860006101000a81548173ffffffffffffffffffffffffffffffffffffffff021916908373ffffffffffffffffffffffffffffffffffffffff1602179055508173ffffffffffffffffffffffffffffffffffffffff168173ffffffffffffffffffffffffffffffffffffffff167f8be0079c531659141344cd1fd0a4f28419497f9722a3daafe3b4186f6b6457e060405160405180910390a35050565b600081519050919050565b7f4e487b7100000000000000000000000000000000000000000000000000000000600052604160045260246000fd5b7f4e487b7100000000000000000000000000000000000000000000000000000000600052602260045260246000fd5b60006002820490506001821680620005cf57607f821691505b602082108103620005e557620005e462000587565b5b50919050565b60008190508160005260206000209050919050565b60006020601f8301049050919050565b600082821b905092915050565b6000600883026200064f7fffffffffffffffffffffffffffffffffffffffffffffffffffffffffffffffff8262000610565b6200065b868362000610565b95508019841693508086168417925050509392505050565b6000819050919050565b6000819050919050565b6000620006a8620006a26200069c8462000673565b6200067d565b62000673565b9050919050565b6000819050919050565b620006c48362000687565b620006dc620006d382620006af565b8484546200061d565b825550505050565b600090565b620006f3620006e4565b62000700818484620006b9565b505050565b5b8181101562000728576200071c600082620006e9565b60018101905062000706565b5050565b601f82111562000777576200074181620005eb565b6200074c8462000600565b810160208510156200075c578190505b620007746200076b8562000600565b83018262000705565b50505b505050565b600082821c905092915050565b60006200079c600019846008026200077c565b1980831691505092915050565b6000620007b7838362000789565b9150826002028217905092915050565b620007d2826200054d565b67ffffffffffffffff811115620007ee57620007ed62000558565b5b620007fa8254620005b6565b620008078282856200072c565b600060209050601f8311600181146200083f57600084156200082a578287015190505b620008368582620007a9565b865550620008a6565b601f1984166200084f86620005eb565b60005b82811015620008795784890151825560018201915060208501945060208101905062000852565b8683101562000899578489015162000895601f89168262000789565b8355505b6001600288020188555050505b505050505050565b600073ffffffffffffffffffffffffffffffffffffffff82169050919050565b6000620008db82620008ae565b9050919050565b620008ed81620008ce565b82525050565b60006040820190506200090a6000830185620008e2565b620009196020830184620008e2565b9392505050565b6000602082019050620009376000830184620008e2565b92915050565b6080516169136200097560003960008181610eb8015281816110ff015281816114610152818161152d01526115fd01526169136000f3fe6080604052600436106101f95760003560e01c8063a0712d681161010d578063c87b56dd116100a0578063da90b77d1161006f578063da90b77d146106e3578063e0d4ea371461070c578063e985e9c514610749578063ed9ec88814610786578063f2fde38b146107c3576101f9565b8063c87b56dd14610627578063d5abeb0114610664578063d9c4870e1461068f578063d9ef157a146106ba576101f9565b8063b228d925116100dc578063b228d9251461058c578063b88d4fde146105b7578063bdb4b848146105d3578063c204642c146105fe576101f9565b8063a0712d68146104f3578063a22cb4651461050f578063ad2f852a14610538578063af1fb60714610563576101f9565b806341f43434116101905780636352211e1161015f5780636352211e1461040c57806370a0823114610449578063715018a6146104865780638da5cb5b1461049d57806395d89b41146104c8576101f9565b806341f434341461036f57806342842e0e1461039a5780635619f443146103b65780635b74efcf146103e1576101f9565b806318160ddd116101cc57806318160ddd146102bf57806323b872dd146102ea5780632a55205a146103065780633057931f14610344576101f9565b806301ffc9a7146101fe57806306fdde031461023b578063081812fc14610266578063095ea7b3146102a3575b600080fd5b34801561020a57600080fd5b50610225600480360381019061022091906149ce565b6107ec565b6040516102329190614a16565b60405180910390f35b34801561024757600080fd5b5061025061087e565b60405161025d9190614ac1565b60405180910390f35b34801561027257600080fd5b5061028d60048036038101906102889190614b19565b610910565b60405161029a9190614b87565b60405180910390f35b6102bd60048036038101906102b89190614bce565b61098f565b005b3480156102cb57600080fd5b506102d4610ad3565b6040516102e19190614c1d565b60405180910390f35b61030460048036038101906102ff9190614c38565b610aea565b005b34801561031257600080fd5b5061032d60048036038101906103289190614c8b565b610b39565b60405161033b929190614ccb565b60405180910390f35b34801561035057600080fd5b50610359610b94565b6040516103669190614a16565b60405180910390f35b34801561037b57600080fd5b50610384610ba7565b6040516103919190614d53565b60405180910390f35b6103b460048036038101906103af9190614c38565b610bb9565b005b3480156103c257600080fd5b506103cb610c08565b6040516103d89190614c1d565b60405180910390f35b3480156103ed57600080fd5b506103f6610c4f565b6040516104039190614d8a565b60405180910390f35b34801561041857600080fd5b50610433600480360381019061042e9190614b19565b610c62565b6040516104409190614b87565b60405180910390f35b34801561045557600080fd5b50610470600480360381019061046b9190614da5565b610c74565b60405161047d9190614c1d565b60405180910390f35b34801561049257600080fd5b5061049b610d2c565b005b3480156104a957600080fd5b506104b2610d40565b6040516104bf9190614b87565b60405180910390f35b3480156104d457600080fd5b506104dd610d6a565b6040516104ea9190614ac1565b60405180910390f35b61050d60048036038101906105089190614b19565b610dfc565b005b34801561051b57600080fd5b5061053660048036038101906105319190614dfe565b6111cb565b005b34801561054457600080fd5b5061054d6112d6565b60405161055a9190614b87565b60405180910390f35b34801561056f57600080fd5b5061058a60048036038101906105859190614e3e565b6112fc565b005b34801561059857600080fd5b506105a161138a565b6040516105ae9190614d8a565b60405180910390f35b6105d160048036038101906105cc9190614fb3565b61139d565b005b3480156105df57600080fd5b506105e86113ee565b6040516105f5919061505d565b60405180910390f35b34801561060a57600080fd5b5061062560048036038101906106209190615140565b61140c565b005b34801561063357600080fd5b5061064e60048036038101906106499190614b19565b611587565b60405161065b9190614ac1565b60405180910390f35b34801561067057600080fd5b506106796115fb565b60405161068691906151ba565b60405180910390f35b34801561069b57600080fd5b506106a461161f565b6040516106b19190614b87565b60405180910390f35b3480156106c657600080fd5b506106e160048036038101906106dc91906151d5565b611645565b005b3480156106ef57600080fd5b5061070a6004803603810190610705919061522e565b61166a565b005b34801561071857600080fd5b50610733600480360381019061072e9190614b19565b611690565b6040516107409190614c1d565b60405180910390f35b34801561075557600080fd5b50610770600480360381019061076b9190614e3e565b6116f5565b60405161077d9190614a16565b60405180910390f35b34801561079257600080fd5b506107ad60048036038101906107a89190614da5565b611789565b6040516107ba9190614c1d565b60405180910390f35b3480156107cf57600080fd5b506107ea60048036038101906107e59190614da5565b6117a1565b005b60006301ffc9a760e01b827bffffffffffffffffffffffffffffffffffffffffffffffffffffffff1916148061084757506380ac58cd60e01b827bffffffffffffffffffffffffffffffffffffffffffffffffffffffff1916145b806108775750635b5e139f60e01b827bffffffffffffffffffffffffffffffffffffffffffffffffffffffff1916145b9050919050565b60606002805461088d9061528a565b80601f01602080910402602001604051908101604052809291908181526020018280546108b99061528a565b80156109065780601f106108db57610100808354040283529160200191610906565b820191906000526020600020905b8154815290600101906020018083116108e957829003601f168201915b5050505050905090565b600061091b82611824565b610951576040517fcf4700e400000000000000000000000000000000000000000000000000000000815260040160405180910390fd5b6006600083815260200190815260200160002060000160009054906101000a900473ffffffffffffffffffffffffffffffffffffffff169050919050565b600061099a82610c62565b90508073ffffffffffffffffffffffffffffffffffffffff166109bb611883565b73ffffffffffffffffffffffffffffffffffffffff1614610a1e576109e7816109e2611883565b6116f5565b610a1d576040517fcfb3b94200000000000000000000000000000000000000000000000000000000815260040160405180910390fd5b5b826006600084815260200190815260200160002060000160006101000a81548173ffffffffffffffffffffffffffffffffffffffff021916908373ffffffffffffffffffffffffffffffffffffffff160217905550818373ffffffffffffffffffffffffffffffffffffffff168273ffffffffffffffffffffffffffffffffffffffff167f8c5be1e5ebec7d5bd14f71427d1e84f3dd0314c0f7b2291e5b200ac8c7c3b92560405160405180910390a4505050565b6000610add61188b565b6001546000540303905090565b823373ffffffffffffffffffffffffffffffffffffffff168173ffffffffffffffffffffffffffffffffffffffff1614610b2857610b2733611890565b5b610b3384848461198d565b50505050565b600080600e60009054906101000a900473ffffffffffffffffffffffffffffffffffffffff169150606483600c600f9054906101000a900460ff1660ff16610b8191906152ea565b610b8b919061535b565b90509250929050565b600c60009054906101000a900460ff1681565b6daaeb6d7670e522a718067333cd4e81565b823373ffffffffffffffffffffffffffffffffffffffff168173ffffffffffffffffffffffffffffffffffffffff1614610bf757610bf633611890565b5b610c02848484611caf565b50505050565b6000600b60003373ffffffffffffffffffffffffffffffffffffffff1673ffffffffffffffffffffffffffffffffffffffff16815260200190815260200160002054905090565b600c600e9054906101000a900460ff1681565b6000610c6d82611ccf565b9050919050565b60008073ffffffffffffffffffffffffffffffffffffffff168273ffffffffffffffffffffffffffffffffffffffff1603610cdb576040517f8f4eb60400000000000000000000000000000000000000000000000000000000815260040160405180910390fd5b67ffffffffffffffff600560008473ffffffffffffffffffffffffffffffffffffffff1673ffffffffffffffffffffffffffffffffffffffff16815260200190815260200160002054169050919050565b610d34611d9b565b610d3e6000611e19565b565b6000600860009054906101000a900473ffffffffffffffffffffffffffffffffffffffff16905090565b606060038054610d799061528a565b80601f0160208091040260200160405190810160405280929190818152602001828054610da59061528a565b8015610df25780601f10610dc757610100808354040283529160200191610df2565b820191906000526020600020905b815481529060010190602001808311610dd557829003601f168201915b5050505050905090565b610e04611edf565b803373ffffffffffffffffffffffffffffffffffffffff163273ffffffffffffffffffffffffffffffffffffffff1614610e73576040517f08c379a0000000000000000000000000000000000000000000000000000000008152600401610e6a906153d8565b60405180910390fd5b60008111610eb6576040517f08c379a0000000000000000000000000000000000000000000000000000000008152600401610ead90615444565b60405180910390fd5b7f000000000000000000000000000000000000000000000000000000000000000062ffffff1681610ee5610ad3565b610eef9190615464565b1115610f30576040517f08c379a0000000000000000000000000000000000000000000000000000000008152600401610f27906154e4565b60405180910390fd5b600c60009054906101000a900460ff16610f7f576040517f08c379a0000000000000000000000000000000000000000000000000000000008152600401610f7690615550565b60405180910390fd5b600c600d9054906101000a900460ff1660ff1682600b60003373ffffffffffffffffffffffffffffffffffffffff1673ffffffffffffffffffffffffffffffffffffffff16815260200190815260200160002054610fdd9190615464565b111561101e576040517f08c379a0000000000000000000000000000000000000000000000000000000008152600401611015906155bc565b60405180910390fd5b81600c60019054906101000a90046bffffffffffffffffffffffff166bffffffffffffffffffffffff1661105291906152ea565b341015611094576040517f08c379a000000000000000000000000000000000000000000000000000000000815260040161108b90615628565b60405180910390fd5b81600b60003373ffffffffffffffffffffffffffffffffffffffff1673ffffffffffffffffffffffffffffffffffffffff16815260200190815260200160002060008282546110e39190615464565b925050819055506110f382611f2e565b6110fd3383611f89565b7f000000000000000000000000000000000000000000000000000000000000000062ffffff1661112b610ad3565b1061114c576000600c60006101000a81548160ff0219169083151502179055505b60004711156111bf57600d60009054906101000a900473ffffffffffffffffffffffffffffffffffffffff1673ffffffffffffffffffffffffffffffffffffffff166108fc479081150290604051600060405180830381858888f193505050501580156111bd573d6000803e3d6000fd5b505b506111c8611fa7565b50565b80600760006111d8611883565b73ffffffffffffffffffffffffffffffffffffffff1673ffffffffffffffffffffffffffffffffffffffff16815260200190815260200160002060008473ffffffffffffffffffffffffffffffffffffffff1673ffffffffffffffffffffffffffffffffffffffff16815260200190815260200160002060006101000a81548160ff0219169083151502179055508173ffffffffffffffffffffffffffffffffffffffff16611285611883565b73ffffffffffffffffffffffffffffffffffffffff167f17307eab39ab6107e8899845ad3d59bd9653f200f220920489ca2b5937696c31836040516112ca9190614a16565b60405180910390a35050565b600e60009054906101000a900473ffffffffffffffffffffffffffffffffffffffff1681565b611304611d9b565b81600d60006101000a81548173ffffffffffffffffffffffffffffffffffffffff021916908373ffffffffffffffffffffffffffffffffffffffff16021790555080600e60006101000a81548173ffffffffffffffffffffffffffffffffffffffff021916908373ffffffffffffffffffffffffffffffffffffffff1602179055505050565b600c600d9054906101000a900460ff1681565b833373ffffffffffffffffffffffffffffffffffffffff168173ffffffffffffffffffffffffffffffffffffffff16146113db576113da33611890565b5b6113e785858585611fb1565b5050505050565b600c60019054906101000a90046bffffffffffffffffffffffff1681565b611414611d9b565b61141c611edf565b6000811161145f576040517f08c379a000000000000000000000000000000000000000000000000000000000815260040161145690615444565b60405180910390fd5b7f000000000000000000000000000000000000000000000000000000000000000062ffffff168161148e610ad3565b6114989190615464565b11156114d9576040517f08c379a00000000000000000000000000000000000000000000000000000000081526004016114d0906154e4565b60405180910390fd5b60008251905060005b8181101561152a576114f383611f2e565b61151784828151811061150957611508615648565b5b602002602001015184611f89565b808061152290615677565b9150506114e2565b507f000000000000000000000000000000000000000000000000000000000000000062ffffff16611559610ad3565b1061157a576000600c60006101000a81548160ff0219169083151502179055505b50611583611fa7565b5050565b606061159282611824565b6115d1576040517f08c379a00000000000000000000000000000000000000000000000000000000081526004016115c89061570b565b60405180910390fd5b6000600a60008481526020019081526020016000205490506115f38382612024565b915050919050565b7f000000000000000000000000000000000000000000000000000000000000000081565b600d60009054906101000a900473ffffffffffffffffffffffffffffffffffffffff1681565b61164d611d9b565b80600c60006101000a81548160ff02191690831515021790555050565b611672611d9b565b80600c600f6101000a81548160ff021916908360ff16021790555050565b600061169b82611824565b6116da576040517f08c379a00000000000000000000000000000000000000000000000000000000081526004016116d19061570b565b60405180910390fd5b600a6000838152602001908152602001600020549050919050565b6000600760008473ffffffffffffffffffffffffffffffffffffffff1673ffffffffffffffffffffffffffffffffffffffff16815260200190815260200160002060008373ffffffffffffffffffffffffffffffffffffffff1673ffffffffffffffffffffffffffffffffffffffff16815260200190815260200160002060009054906101000a900460ff16905092915050565b600b6020528060005260406000206000915090505481565b6117a9611d9b565b600073ffffffffffffffffffffffffffffffffffffffff168173ffffffffffffffffffffffffffffffffffffffff1603611818576040517f08c379a000000000000000000000000000000000000000000000000000000000815260040161180f9061579d565b60405180910390fd5b61182181611e19565b50565b60008161182f61188b565b1115801561183e575060005482105b801561187c575060007c0100000000000000000000000000000000000000000000000000000000600460008581526020019081526020016000205416145b9050919050565b600033905090565b600090565b60006daaeb6d7670e522a718067333cd4e73ffffffffffffffffffffffffffffffffffffffff163b111561198a576daaeb6d7670e522a718067333cd4e73ffffffffffffffffffffffffffffffffffffffff1663c617113430836040518363ffffffff1660e01b81526004016119079291906157bd565b602060405180830381865afa158015611924573d6000803e3d6000fd5b505050506040513d601f19601f8201168201806040525081019061194891906157fb565b61198957806040517fede71dcc0000000000000000000000000000000000000000000000000000000081526004016119809190614b87565b60405180910390fd5b5b50565b600061199882611ccf565b90508373ffffffffffffffffffffffffffffffffffffffff168173ffffffffffffffffffffffffffffffffffffffff16146119ff576040517fa114810000000000000000000000000000000000000000000000000000000000815260040160405180910390fd5b600080611a0b846122ef565b91509150611a218187611a1c611883565b612316565b611a6d57611a3686611a31611883565b6116f5565b611a6c576040517f59c896be00000000000000000000000000000000000000000000000000000000815260040160405180910390fd5b5b600073ffffffffffffffffffffffffffffffffffffffff168573ffffffffffffffffffffffffffffffffffffffff1603611ad3576040517fea553b3400000000000000000000000000000000000000000000000000000000815260040160405180910390fd5b611ae0868686600161235a565b8015611aeb57600082555b600560008773ffffffffffffffffffffffffffffffffffffffff1673ffffffffffffffffffffffffffffffffffffffff168152602001908152602001600020600081546001900391905081905550600560008673ffffffffffffffffffffffffffffffffffffffff1673ffffffffffffffffffffffffffffffffffffffff1681526020019081526020016000206000815460010191905081905550611bb985611b95888887612360565b7c020000000000000000000000000000000000000000000000000000000017612388565b600460008681526020019081526020016000208190555060007c0200000000000000000000000000000000000000000000000000000000841603611c3f5760006001850190506000600460008381526020019081526020016000205403611c3d576000548114611c3c578360046000838152602001908152602001600020819055505b5b505b838573ffffffffffffffffffffffffffffffffffffffff168773ffffffffffffffffffffffffffffffffffffffff167fddf252ad1be2c89b69c2b068fc378daa952ba7f163c4a11628f55a4df523b3ef60405160405180910390a4611ca786868660016123b3565b505050505050565b611cca8383836040518060200160405280600081525061139d565b505050565b60008082905080611cde61188b565b11611d6457600054811015611d635760006004600083815260200190815260200160002054905060007c0100000000000000000000000000000000000000000000000000000000821603611d61575b60008103611d57576004600083600190039350838152602001908152602001600020549050611d2d565b8092505050611d96565b505b5b6040517fdf2d9b4200000000000000000000000000000000000000000000000000000000815260040160405180910390fd5b919050565b611da36123b9565b73ffffffffffffffffffffffffffffffffffffffff16611dc1610d40565b73ffffffffffffffffffffffffffffffffffffffff1614611e17576040517f08c379a0000000000000000000000000000000000000000000000000000000008152600401611e0e90615874565b60405180910390fd5b565b6000600860009054906101000a900473ffffffffffffffffffffffffffffffffffffffff16905081600860006101000a81548173ffffffffffffffffffffffffffffffffffffffff021916908373ffffffffffffffffffffffffffffffffffffffff1602179055508173ffffffffffffffffffffffffffffffffffffffff168173ffffffffffffffffffffffffffffffffffffffff167f8be0079c531659141344cd1fd0a4f28419497f9722a3daafe3b4186f6b6457e060405160405180910390a35050565b600260095403611f24576040517f08c379a0000000000000000000000000000000000000000000000000000000008152600401611f1b906158e0565b60405180910390fd5b6002600981905550565b6000611f386123c1565b905060005b82811015611f8457611f4e826123ca565b600a60008481526020019081526020016000208190555081611f6f90615677565b91508080611f7c90615677565b915050611f3d565b505050565b611fa3828260405180602001604052806000815250612579565b5050565b6001600981905550565b611fbc848484610aea565b60008373ffffffffffffffffffffffffffffffffffffffff163b1461201e57611fe784848484612616565b61201d576040517fd1a57ed600000000000000000000000000000000000000000000000000000000815260040160405180910390fd5b5b50505050565b60606000604051806080016040528064e8d4a51000655af3107a40008661204b9190615900565b612055919061535b565b81526020016305f5e1006402540be400866120709190615900565b61207a919061535b565b8152602001612710620f4240866120919190615900565b61209b919061535b565b81526020016064856120ad9190615900565b815250905060006120e7655af3107a4000856120c9919061535b565b836000600481106120dd576120dc615648565b5b6020020151612766565b9050600061212d6402540be40064e8d4a51000876121059190615900565b61210f919061535b565b8460016004811061212357612122615648565b5b6020020151612b91565b90506000612170620f42406305f5e100886121489190615900565b612152919061535b565b8560026004811061216657612165615648565b5b6020020151612fbc565b905060006121af6064612710896121879190615900565b612191919061535b565b866003600481106121a5576121a4615648565b5b602002015161336e565b9050600084600001518460000151846000015184600001516040518060400160405280600681526020017f3c2f7376673e0000000000000000000000000000000000000000000000000000815250604051602001612211959493929190615c19565b6040516020818303038152906040529050600061222d826134c3565b905060006040518060e0016040528060ab815260200161683360ab913990506122c06122588c61363b565b82848a602001518b60400151602001518b602001518c60400151602001518c602001518d60400151602001518d602001518e60400151602001516040516020016122ac9b9a999897969594939291906161f3565b6040516020818303038152906040526134c3565b6040516020016122d091906163f6565b6040516020818303038152906040529850505050505050505092915050565b60008060006006600085815260200190815260200160002090508092508254915050915091565b600073ffffffffffffffffffffffffffffffffffffffff8316925073ffffffffffffffffffffffffffffffffffffffff821691508382148383141790509392505050565b50505050565b60008060e883901c905060e8612377868684613709565b62ffffff16901b9150509392505050565b600073ffffffffffffffffffffffffffffffffffffffff83169250814260a01b178317905092915050565b50505050565b600033905090565b60008054905090565b6000806123d683613712565b90506000600a6014603084901c6123ed9190615900565b6123f79190615464565b600a6007846124069190615900565b6124109190615464565b606461241c91906152ea565b6124269190615464565b90506000600a6014606085901c61243d9190615900565b6124479190615464565b600a6006606086901c61245a9190615900565b6124649190615464565b606461247091906152ea565b61247a9190615464565b90506000600a6014609086901c6124919190615900565b61249b9190615464565b600a6007609087901c6124ae9190615900565b6124b89190615464565b60646124c491906152ea565b6124ce9190615464565b90506000600a601460c087901c6124e59190615900565b6124ef9190615464565b600a600260c088901c6125029190615900565b61250c9190615464565b606461251891906152ea565b6125229190615464565b90508082848661271061253591906152ea565b61253f9190615464565b61271061254c91906152ea565b6125569190615464565b61271061256391906152ea565b61256d9190615464565b95505050505050919050565b6125838383613754565b60008373ffffffffffffffffffffffffffffffffffffffff163b1461261157600080549050600083820390505b6125c36000868380600101945086612616565b6125f9576040517fd1a57ed600000000000000000000000000000000000000000000000000000000815260040160405180910390fd5b8181106125b057816000541461260e57600080fd5b50505b505050565b60008373ffffffffffffffffffffffffffffffffffffffff1663150b7a0261263c611883565b8786866040518563ffffffff1660e01b815260040161265e949392919061646d565b6020604051808303816000875af192505050801561269a57506040513d601f19601f8201168201806040525081019061269791906164ce565b60015b612713573d80600081146126ca576040519150601f19603f3d011682016040523d82523d6000602084013e6126cf565b606091505b50600081510361270b576040517fd1a57ed600000000000000000000000000000000000000000000000000000000815260040160405180910390fd5b805181602001fd5b63150b7a0260e01b7bffffffffffffffffffffffffffffffffffffffffffffffffffffffff1916817bffffffffffffffffffffffffffffffffffffffffffffffffffffffff191614915050949350505050565b61276e614921565b60006127798361390f565b9050606080600a86036127f7576040518060400160405280600481526020017f272d2d270000000000000000000000000000000000000000000000000000000081525091506040518060400160405280600481526020017f466c61740000000000000000000000000000000000000000000000000000000081525090505b600b8603612870576040518060400160405280600681526020017f282828292929000000000000000000000000000000000000000000000000000081525091506040518060400160405280600981526020017f54776f20426c6f636b000000000000000000000000000000000000000000000081525090505b600c86036128e9576040518060400160405280600681526020017f3d2a3d3d2a3d000000000000000000000000000000000000000000000000000081525091506040518060400160405280600881526020017f5069677461696c7300000000000000000000000000000000000000000000000081525090505b600d8603612962576040518060400160405280600381526020017f2f2f2f000000000000000000000000000000000000000000000000000000000081525091506040518060400160405280600481526020017f50756e6b0000000000000000000000000000000000000000000000000000000081525090505b600e86036129db576040518060400160405280600581526020017f285c5f2f2900000000000000000000000000000000000000000000000000000081525091506040518060400160405280600881526020017f466561746865727300000000000000000000000000000000000000000000000081525090505b600f8603612a54576040518060400160405280600481526020017f2f2d2d2f0000000000000000000000000000000000000000000000000000000081525091506040518060400160405280600581526020017f486f726e7300000000000000000000000000000000000000000000000000000081525090505b60108603612acd576040518060400160405280600381526020017f7e7e7e000000000000000000000000000000000000000000000000000000000081525091506040518060400160405280600a81526020017f4375726c7920686169720000000000000000000000000000000000000000000081525090505b60118603612b46576040518060400160405280600381526020017f5c5c5c000000000000000000000000000000000000000000000000000000000081525091506040518060400160405280600c81526020017f526576657273652050756e6b000000000000000000000000000000000000000081525090505b6040518060600160405280846000015184604051602001612b689291906165df565b604051602081830303815290604052815260200182815260200184815250935050505092915050565b612b99614921565b6000612ba48361390f565b9050606080600a8603612c22576040518060400160405280600581526020017f286f2c6f2900000000000000000000000000000000000000000000000000000081525091506040518060400160405280600981526020017f45796573206f70656e000000000000000000000000000000000000000000000081525090505b600b8603612c9b576040518060400160405280600581526020017f282d2c2d2900000000000000000000000000000000000000000000000000000081525091506040518060400160405280600881526020017f536c656570696e6700000000000000000000000000000000000000000000000081525090505b600c8603612d14576040518060400160405280600581526020017f286f2c2d2900000000000000000000000000000000000000000000000000000081525091506040518060400160405280600481526020017f57696e6b0000000000000000000000000000000000000000000000000000000081525090505b600d8603612d8d576040518060400160405280600581526020017f286f2c4f2900000000000000000000000000000000000000000000000000000081525091506040518060400160405280600a81526020017f537573706963696f75730000000000000000000000000000000000000000000081525090505b600e8603612e06576040518060400160405280600581526020017f285e2c5e2900000000000000000000000000000000000000000000000000000081525091506040518060400160405280600581526020017f536d696c6500000000000000000000000000000000000000000000000000000081525090505b600f8603612e7f576040518060400160405280600581526020017f286f2d6f2900000000000000000000000000000000000000000000000000000081525091506040518060400160405280600781526020017f476c61737365730000000000000000000000000000000000000000000000000081525090505b60108603612ef8576040518060400160405280600581526020017f5b3d2c3d5d00000000000000000000000000000000000000000000000000000081525091506040518060400160405280600581526020017f526f626f7400000000000000000000000000000000000000000000000000000081525090505b60108603612f71576040518060400160405280600581526020017f28242c242900000000000000000000000000000000000000000000000000000081525091506040518060400160405280600a81526020017f5768656e204c616d626f0000000000000000000000000000000000000000000081525090505b6040518060600160405280846000015184604051602001612f93929190616670565b604051602081830303815290604052815260200182815260200184815250935050505092915050565b612fc4614921565b6000612fcf8361390f565b9050606080600a860361304d576040518060400160405280600b81526020017f2f2f2f5b203a2d5d5c5c5c00000000000000000000000000000000000000000081525091506040518060400160405280600881526020017f466561746865727300000000000000000000000000000000000000000000000081525090505b600b86036130c6576040518060400160405280600b81526020017f2f2f2f7b5c532f7d5c5c5c00000000000000000000000000000000000000000081525091506040518060400160405280600481526020017f537761670000000000000000000000000000000000000000000000000000000081525090505b600c860361313f576040518060400160405280600b81526020017f2f2f2f7b3d7c3d7d5c5c5c00000000000000000000000000000000000000000081525091506040518060400160405280600881526020017f4d757363756c617200000000000000000000000000000000000000000000000081525090505b600d86036131b8576040518060400160405280600b81526020017f2f2f2f285c2b2f295c5c5c00000000000000000000000000000000000000000081525091506040518060400160405280600681526020017f507269657374000000000000000000000000000000000000000000000000000081525090505b600e8603613231576040518060400160405280600b81526020017f2f2f2f7b203a7e7d5c5c5c00000000000000000000000000000000000000000081525091506040518060400160405280600581526020017f536869727400000000000000000000000000000000000000000000000000000081525090505b600f86036132aa576040518060400160405280600b81526020017f2f2f2f7b5c3a2f7d5c5c5c00000000000000000000000000000000000000000081525091506040518060400160405280600481526020017f537569740000000000000000000000000000000000000000000000000000000081525090505b60108603613323576040518060400160405280600b81526020017f2f2f2f7b5c2a2f7d5c5c5c00000000000000000000000000000000000000000081525091506040518060400160405280600681526020017f4d6564616c73000000000000000000000000000000000000000000000000000081525090505b6040518060600160405280846000015184604051602001613345929190616701565b604051602081830303815290604052815260200182815260200184815250935050505092915050565b613376614921565b60006133818361390f565b9050606080600a86036133ff576040518060400160405280600581526020017f7e227e227e00000000000000000000000000000000000000000000000000000081525091506040518060400160405280600c81526020017f486f6c64696e6720666f6f64000000000000000000000000000000000000000081525090505b600b8603613478576040518060400160405280600381526020017f222022000000000000000000000000000000000000000000000000000000000081525091506040518060400160405280600681526020017f4e6f726d616c000000000000000000000000000000000000000000000000000081525090505b604051806060016040528084600001518460405160200161349a929190616701565b604051602081830303815290604052815260200182815260200184815250935050505092915050565b606060008251036134e557604051806020016040528060008152509050613636565b60006040518060600160405280604081526020016167f360409139905060006003600285516135149190615464565b61351e919061535b565b600461352a91906152ea565b9050600060208261353b9190615464565b67ffffffffffffffff81111561355457613553614e88565b5b6040519080825280601f01601f1916602001820160405280156135865781602001600182028036833780820191505090505b509050818152600183018586518101602084015b818310156135f5576003830192508251603f8160121c168501518253600182019150603f81600c1c168501518253600182019150603f8160061c168501518253600182019150603f811685015182536001820191505061359a565b60038951066001811461360f576002811461361f5761362a565b613d3d60f01b600283035261362a565b603d60f81b60018303525b50505050508093505050505b919050565b60606000600161364a846147be565b01905060008167ffffffffffffffff81111561366957613668614e88565b5b6040519080825280601f01601f19166020018201604052801561369b5781602001600182028036833780820191505090505b509050600082602001820190505b6001156136fe578080600190039150507f3031323334353637383961626364656600000000000000000000000000000000600a86061a8153600a85816136f2576136f161532c565b5b049450600085036136a9575b819350505050919050565b60009392505050565b60006001436137219190616746565b40826040516020016137349291906167c6565b6040516020818303038152906040528051906020012060001c9050919050565b60008054905060008203613794576040517fb562e8dd00000000000000000000000000000000000000000000000000000000815260040160405180910390fd5b6137a1600084838561235a565b600160406001901b178202600560008573ffffffffffffffffffffffffffffffffffffffff1673ffffffffffffffffffffffffffffffffffffffff16815260200190815260200160002060008282540192505081905550613818836138096000866000612360565b61381285614911565b17612388565b6004600083815260200190815260200160002081905550600080838301905073ffffffffffffffffffffffffffffffffffffffff85169150828260007fddf252ad1be2c89b69c2b068fc378daa952ba7f163c4a11628f55a4df523b3ef600080a4600183015b8181146138b957808360007fddf252ad1be2c89b69c2b068fc378daa952ba7f163c4a11628f55a4df523b3ef600080a460018101905061387e565b50600082036138f4576040517f2e07630000000000000000000000000000000000000000000000000000000000815260040160405180910390fd5b80600081905550505061390a60008483856123b3565b505050565b613917614948565b600a82036139a55760405180604001604052806040518060400160405280600781526020017f236536303034390000000000000000000000000000000000000000000000000081525081526020016040518060400160405280600b81526020017f5265642053757072696d6500000000000000000000000000000000000000000081525081525090506147b9565b600b8203613a335760405180604001604052806040518060400160405280600781526020017f233030424646460000000000000000000000000000000000000000000000000081525081526020016040518060400160405280600881526020017f4465657020536b7900000000000000000000000000000000000000000000000081525081525090506147b9565b600c8203613ac15760405180604001604052806040518060400160405280600781526020017f233431363945310000000000000000000000000000000000000000000000000081525081526020016040518060400160405280600a81526020017f526f79616c20426c75650000000000000000000000000000000000000000000081525081525090506147b9565b600d8203613b4f5760405180604001604052806040518060400160405280600781526020017f233030666666660000000000000000000000000000000000000000000000000081525081526020016040518060400160405280600481526020017f417175610000000000000000000000000000000000000000000000000000000081525081525090506147b9565b600e8203613bdd5760405180604001604052806040518060400160405280600781526020017f233062623466660000000000000000000000000000000000000000000000000081525081526020016040518060400160405280600981526020017f426c756520426f6c74000000000000000000000000000000000000000000000081525081525090506147b9565b600f8203613c6b5760405180604001604052806040518060400160405280600781526020017f233138353366660000000000000000000000000000000000000000000000000081525081526020016040518060400160405280600881526020017f426c75652052594200000000000000000000000000000000000000000000000081525081525090506147b9565b60108203613cf95760405180604001604052806040518060400160405280600781526020017f233335643433350000000000000000000000000000000000000000000000000081525081526020016040518060400160405280600c81526020017f4861636b657220477265656e000000000000000000000000000000000000000081525081525090506147b9565b60118203613d875760405180604001604052806040518060400160405280600781526020017f233631666637350000000000000000000000000000000000000000000000000081525081526020016040518060400160405280600e81526020017f53637265616d696e20477265656e00000000000000000000000000000000000081525081525090506147b9565b60128203613e155760405180604001604052806040518060400160405280600781526020017f233030626661300000000000000000000000000000000000000000000000000081525081526020016040518060400160405280600f81526020017f43617269626265616e20477265656e000000000000000000000000000000000081525081525090506147b9565b60138203613ea35760405180604001604052806040518060400160405280600781526020017f236666613330300000000000000000000000000000000000000000000000000081525081526020016040518060400160405280600681526020017f4f72616e6765000000000000000000000000000000000000000000000000000081525081525090506147b9565b60148203613f315760405180604001604052806040518060400160405280600781526020017f236664376636660000000000000000000000000000000000000000000000000081525081526020016040518060400160405280600a81526020017f436f72616c20526565660000000000000000000000000000000000000000000081525081525090506147b9565b60158203613fbf5760405180604001604052806040518060400160405280600781526020017f236430663430300000000000000000000000000000000000000000000000000081525081526020016040518060400160405280600481526020017f566f6c740000000000000000000000000000000000000000000000000000000081525081525090506147b9565b6016820361404d5760405180604001604052806040518060400160405280600781526020017f233962313966350000000000000000000000000000000000000000000000000081525081526020016040518060400160405280600a81526020017f507572706c65205831310000000000000000000000000000000000000000000081525081525090506147b9565b601782036140db5760405180604001604052806040518060400160405280600781526020017f234646303046460000000000000000000000000000000000000000000000000081525081526020016040518060400160405280600781526020017f4d6167656e74610000000000000000000000000000000000000000000000000081525081525090506147b9565b601882036141695760405180604001604052806040518060400160405280600781526020017f236634366139620000000000000000000000000000000000000000000000000081525081526020016040518060400160405280600881526020017f4379636c616d656e00000000000000000000000000000000000000000000000081525081525090506147b9565b601982036141f75760405180604001604052806040518060400160405280600781526020017f233934303044330000000000000000000000000000000000000000000000000081525081526020016040518060400160405280600b81526020017f4461726b2056696f6c657400000000000000000000000000000000000000000081525081525090506147b9565b601a82036142855760405180604001604052806040518060400160405280600781526020017f234646453442350000000000000000000000000000000000000000000000000081525081526020016040518060400160405280600881526020017f4d6f63636173696e00000000000000000000000000000000000000000000000081525081525090506147b9565b601b82036143135760405180604001604052806040518060400160405280600781526020017f234643453734430000000000000000000000000000000000000000000000000081525081526020016040518060400160405280600681526020017f50617374656c000000000000000000000000000000000000000000000000000081525081525090506147b9565b601c82036143a15760405180604001604052806040518060400160405280600781526020017f236565656565650000000000000000000000000000000000000000000000000081525081526020016040518060400160405280600b81526020017f427269676874204772617900000000000000000000000000000000000000000081525081525090506147b9565b601d820361442f5760405180604001604052806040518060400160405280600781526020017f233730383039300000000000000000000000000000000000000000000000000081525081526020016040518060400160405280600a81526020017f53616c746520677261790000000000000000000000000000000000000000000081525081525090506147b9565b601e82036144bd5760405180604001604052806040518060400160405280600781526020017f233746464630300000000000000000000000000000000000000000000000000081525081526020016040518060400160405280600a81526020017f436861727472657573650000000000000000000000000000000000000000000081525081525090506147b9565b601f820361454b5760405180604001604052806040518060400160405280600781526020017f234144464632460000000000000000000000000000000000000000000000000081525081526020016040518060400160405280600c81526020017f477265656e2059656c6c6f77000000000000000000000000000000000000000081525081525090506147b9565b602082036145d95760405180604001604052806040518060400160405280600781526020017f234444413044440000000000000000000000000000000000000000000000000081525081526020016040518060400160405280600481526020017f506c756d0000000000000000000000000000000000000000000000000000000081525081525090506147b9565b602182036146675760405180604001604052806040518060400160405280600781526020017f233837434546410000000000000000000000000000000000000000000000000081525081526020016040518060400160405280600d81526020017f4c69676874736b7920426c75650000000000000000000000000000000000000081525081525090506147b9565b602282036146f55760405180604001604052806040518060400160405280600781526020017f233938464239380000000000000000000000000000000000000000000000000081525081526020016040518060400160405280600a81526020017f50616c6520477265656e0000000000000000000000000000000000000000000081525081525090506147b9565b602382036147835760405180604001604052806040518060400160405280600781526020017f233746464644340000000000000000000000000000000000000000000000000081525081526020016040518060400160405280600a81526020017f417175616d6172696e650000000000000000000000000000000000000000000081525081525090506147b9565b60405180604001604052806040518060200160405280600081525081526020016040518060200160405280600081525081525090505b919050565b600080600090507a184f03e93ff9f4daa797ed6e38ed64bf6a1f010000000000000000831061481c577a184f03e93ff9f4daa797ed6e38ed64bf6a1f01000000000000000083816148125761481161532c565b5b0492506040810190505b6d04ee2d6d415b85acef81000000008310614859576d04ee2d6d415b85acef8100000000838161484f5761484e61532c565b5b0492506020810190505b662386f26fc10000831061488857662386f26fc10000838161487e5761487d61532c565b5b0492506010810190505b6305f5e10083106148b1576305f5e10083816148a7576148a661532c565b5b0492506008810190505b61271083106148d65761271083816148cc576148cb61532c565b5b0492506004810190505b606483106148f957606483816148ef576148ee61532c565b5b0492506002810190505b600a8310614908576001810190505b80915050919050565b60006001821460e11b9050919050565b60405180606001604052806060815260200160608152602001614942614948565b81525090565b604051806040016040528060608152602001606081525090565b6000604051905090565b600080fd5b600080fd5b60007fffffffff0000000000000000000000000000000000000000000000000000000082169050919050565b6149ab81614976565b81146149b657600080fd5b50565b6000813590506149c8816149a2565b92915050565b6000602082840312156149e4576149e361496c565b5b60006149f2848285016149b9565b91505092915050565b60008115159050919050565b614a10816149fb565b82525050565b6000602082019050614a2b6000830184614a07565b92915050565b600081519050919050565b600082825260208201905092915050565b60005b83811015614a6b578082015181840152602081019050614a50565b60008484015250505050565b6000601f19601f8301169050919050565b6000614a9382614a31565b614a9d8185614a3c565b9350614aad818560208601614a4d565b614ab681614a77565b840191505092915050565b60006020820190508181036000830152614adb8184614a88565b905092915050565b6000819050919050565b614af681614ae3565b8114614b0157600080fd5b50565b600081359050614b1381614aed565b92915050565b600060208284031215614b2f57614b2e61496c565b5b6000614b3d84828501614b04565b91505092915050565b600073ffffffffffffffffffffffffffffffffffffffff82169050919050565b6000614b7182614b46565b9050919050565b614b8181614b66565b82525050565b6000602082019050614b9c6000830184614b78565b92915050565b614bab81614b66565b8114614bb657600080fd5b50565b600081359050614bc881614ba2565b92915050565b60008060408385031215614be557614be461496c565b5b6000614bf385828601614bb9565b9250506020614c0485828601614b04565b9150509250929050565b614c1781614ae3565b82525050565b6000602082019050614c326000830184614c0e565b92915050565b600080600060608486031215614c5157614c5061496c565b5b6000614c5f86828701614bb9565b9350506020614c7086828701614bb9565b9250506040614c8186828701614b04565b9150509250925092565b60008060408385031215614ca257614ca161496c565b5b6000614cb085828601614b04565b9250506020614cc185828601614b04565b9150509250929050565b6000604082019050614ce06000830185614b78565b614ced6020830184614c0e565b9392505050565b6000819050919050565b6000614d19614d14614d0f84614b46565b614cf4565b614b46565b9050919050565b6000614d2b82614cfe565b9050919050565b6000614d3d82614d20565b9050919050565b614d4d81614d32565b82525050565b6000602082019050614d686000830184614d44565b92915050565b600060ff82169050919050565b614d8481614d6e565b82525050565b6000602082019050614d9f6000830184614d7b565b92915050565b600060208284031215614dbb57614dba61496c565b5b6000614dc984828501614bb9565b91505092915050565b614ddb816149fb565b8114614de657600080fd5b50565b600081359050614df881614dd2565b92915050565b60008060408385031215614e1557614e1461496c565b5b6000614e2385828601614bb9565b9250506020614e3485828601614de9565b9150509250929050565b60008060408385031215614e5557614e5461496c565b5b6000614e6385828601614bb9565b9250506020614e7485828601614bb9565b9150509250929050565b600080fd5b600080fd5b7f4e487b7100000000000000000000000000000000000000000000000000000000600052604160045260246000fd5b614ec082614a77565b810181811067ffffffffffffffff82111715614edf57614ede614e88565b5b80604052505050565b6000614ef2614962565b9050614efe8282614eb7565b919050565b600067ffffffffffffffff821115614f1e57614f1d614e88565b5b614f2782614a77565b9050602081019050919050565b82818337600083830152505050565b6000614f56614f5184614f03565b614ee8565b905082815260208101848484011115614f7257614f71614e83565b5b614f7d848285614f34565b509392505050565b600082601f830112614f9a57614f99614e7e565b5b8135614faa848260208601614f43565b91505092915050565b60008060008060808587031215614fcd57614fcc61496c565b5b6000614fdb87828801614bb9565b9450506020614fec87828801614bb9565b9350506040614ffd87828801614b04565b925050606085013567ffffffffffffffff81111561501e5761501d614971565b5b61502a87828801614f85565b91505092959194509250565b60006bffffffffffffffffffffffff82169050919050565b61505781615036565b82525050565b6000602082019050615072600083018461504e565b92915050565b600067ffffffffffffffff82111561509357615092614e88565b5b602082029050602081019050919050565b600080fd5b60006150bc6150b784615078565b614ee8565b905080838252602082019050602084028301858111156150df576150de6150a4565b5b835b8181101561510857806150f48882614bb9565b8452602084019350506020810190506150e1565b5050509392505050565b600082601f83011261512757615126614e7e565b5b81356151378482602086016150a9565b91505092915050565b600080604083850312156151575761515661496c565b5b600083013567ffffffffffffffff81111561517557615174614971565b5b61518185828601615112565b925050602061519285828601614b04565b9150509250929050565b600062ffffff82169050919050565b6151b48161519c565b82525050565b60006020820190506151cf60008301846151ab565b92915050565b6000602082840312156151eb576151ea61496c565b5b60006151f984828501614de9565b91505092915050565b61520b81614d6e565b811461521657600080fd5b50565b60008135905061522881615202565b92915050565b6000602082840312156152445761524361496c565b5b600061525284828501615219565b91505092915050565b7f4e487b7100000000000000000000000000000000000000000000000000000000600052602260045260246000fd5b600060028204905060018216806152a257607f821691505b6020821081036152b5576152b461525b565b5b50919050565b7f4e487b7100000000000000000000000000000000000000000000000000000000600052601160045260246000fd5b60006152f582614ae3565b915061530083614ae3565b925082820261530e81614ae3565b91508282048414831517615325576153246152bb565b5b5092915050565b7f4e487b7100000000000000000000000000000000000000000000000000000000600052601260045260246000fd5b600061536682614ae3565b915061537183614ae3565b9250826153815761538061532c565b5b828204905092915050565b7f5468652063616c6c657220697320616e6f7468657220636f6e74726163740000600082015250565b60006153c2601e83614a3c565b91506153cd8261538c565b602082019050919050565b600060208201905081810360008301526153f1816153b5565b9050919050565b7f496e76616c6964206d696e7420616d6f756e7421000000000000000000000000600082015250565b600061542e601483614a3c565b9150615439826153f8565b602082019050919050565b6000602082019050818103600083015261545d81615421565b9050919050565b600061546f82614ae3565b915061547a83614ae3565b9250828201905080821115615492576154916152bb565b5b92915050565b7f57696c6c20657863656564206d6178696d756d20737570706c79210000000000600082015250565b60006154ce601b83614a3c565b91506154d982615498565b602082019050919050565b600060208201905081810360008301526154fd816154c1565b9050919050565b7f536f6c64206f7574210000000000000000000000000000000000000000000000600082015250565b600061553a600983614a3c565b915061554582615504565b602082019050919050565b600060208201905081810360008301526155698161552d565b9050919050565b7f5065722077616c6c6574206c696d697420726561636865642100000000000000600082015250565b60006155a6601983614a3c565b91506155b182615570565b602082019050919050565b600060208201905081810360008301526155d581615599565b9050919050565b7f496e73756666696369656e742066756e64732100000000000000000000000000600082015250565b6000615612601383614a3c565b915061561d826155dc565b602082019050919050565b6000602082019050818103600083015261564181615605565b9050919050565b7f4e487b7100000000000000000000000000000000000000000000000000000000600052603260045260246000fd5b600061568282614ae3565b91507fffffffffffffffffffffffffffffffffffffffffffffffffffffffffffffffff82036156b4576156b36152bb565b5b600182019050919050565b7f546f6b656e20494420646f6573206e6f742065786973742e0000000000000000600082015250565b60006156f5601883614a3c565b9150615700826156bf565b602082019050919050565b60006020820190508181036000830152615724816156e8565b9050919050565b7f4f776e61626c653a206e6577206f776e657220697320746865207a65726f206160008201527f6464726573730000000000000000000000000000000000000000000000000000602082015250565b6000615787602683614a3c565b91506157928261572b565b604082019050919050565b600060208201905081810360008301526157b68161577a565b9050919050565b60006040820190506157d26000830185614b78565b6157df6020830184614b78565b9392505050565b6000815190506157f581614dd2565b92915050565b6000602082840312156158115761581061496c565b5b600061581f848285016157e6565b91505092915050565b7f4f776e61626c653a2063616c6c6572206973206e6f7420746865206f776e6572600082015250565b600061585e602083614a3c565b915061586982615828565b602082019050919050565b6000602082019050818103600083015261588d81615851565b9050919050565b7f5265656e7472616e637947756172643a207265656e7472616e742063616c6c00600082015250565b60006158ca601f83614a3c565b91506158d582615894565b602082019050919050565b600060208201905081810360008301526158f9816158bd565b9050919050565b600061590b82614ae3565b915061591683614ae3565b9250826159265761592561532c565b5b828206905092915050565b600081905092915050565b7f3c7376672077696474683d2233323022206865696768743d223332302220766960008201527f6577426f783d2230203020333230203332302220786d6c6e733d22687474703a60208201527f2f2f7777772e77332e6f72672f323030302f737667223e000000000000000000604082015250565b60006159be605783615931565b91506159c98261593c565b605782019050919050565b7f3c726563742077696474683d223130302522206865696768743d22313030252260008201527f2066696c6c3d2223303431343231222f3e000000000000000000000000000000602082015250565b6000615a30603183615931565b9150615a3b826159d4565b603182019050919050565b7f3c7465787420783d223137302220793d223133302220666f6e742d66616d696c60008201527f793d22436f75726965722c6d6f6e6f73706163652220666f6e742d776569676860208201527f743d223730302220666f6e742d73697a653d2232302220746578742d616e636860408201527f6f723d226d6964646c6522206c65747465722d73706163696e673d2231223e00606082015250565b6000615aee607f83615931565b9150615af982615a46565b607f82019050919050565b7f3c616e696d617465206174747269627574654e616d653d226479222076616c7560008201527f65733d22303b35303b3022206475723d2233732220726570656174436f756e7460208201527f3d22696e646566696e69746522202f3e00000000000000000000000000000000604082015250565b6000615b86605083615931565b9150615b9182615b04565b605082019050919050565b6000615ba782614a31565b615bb18185615931565b9350615bc1818560208601614a4d565b80840191505092915050565b7f3c2f746578743e00000000000000000000000000000000000000000000000000600082015250565b6000615c03600783615931565b9150615c0e82615bcd565b600782019050919050565b6000615c24826159b1565b9150615c2f82615a23565b9150615c3a82615ae1565b9150615c4582615b79565b9150615c518288615b9c565b9150615c5d8287615b9c565b9150615c698286615b9c565b9150615c758285615b9c565b9150615c8082615bf6565b9150615c8c8284615b9c565b91508190509695505050505050565b7f7b00000000000000000000000000000000000000000000000000000000000000600082015250565b6000615cd1600183615931565b9150615cdc82615c9b565b600182019050919050565b7f226e616d65223a22464c41505059204f574c2023000000000000000000000000600082015250565b6000615d1d601483615931565b9150615d2882615ce7565b601482019050919050565b7f222c000000000000000000000000000000000000000000000000000000000000600082015250565b6000615d69600283615931565b9150615d7482615d33565b600282019050919050565b7f226465736372697074696f6e223a220000000000000000000000000000000000600082015250565b6000615db5600f83615931565b9150615dc082615d7f565b600f82019050919050565b7f22696d616765223a202200000000000000000000000000000000000000000000600082015250565b6000615e01600a83615931565b9150615e0c82615dcb565b600a82019050919050565b7f646174613a696d6167652f7376672b786d6c3b6261736536342c000000000000600082015250565b6000615e4d601a83615931565b9150615e5882615e17565b601a82019050919050565b7f2261747472696275746573223a205b7b2274726169745f74797065223a20224860008201527f656164222c202276616c7565223a202200000000000000000000000000000000602082015250565b6000615ebf603083615931565b9150615eca82615e63565b603082019050919050565b7f2028000000000000000000000000000000000000000000000000000000000000600082015250565b6000615f0b600283615931565b9150615f1682615ed5565b600282019050919050565b7f2900000000000000000000000000000000000000000000000000000000000000600082015250565b6000615f57600183615931565b9150615f6282615f21565b600182019050919050565b7f227d2c0000000000000000000000000000000000000000000000000000000000600082015250565b6000615fa3600383615931565b9150615fae82615f6d565b600382019050919050565b7f7b2274726169745f74797065223a202246616365222c202276616c7565223a2060008201527f2200000000000000000000000000000000000000000000000000000000000000602082015250565b6000616015602183615931565b915061602082615fb9565b602182019050919050565b7f7b2274726169745f74797065223a2022426f6479222c202276616c7565223a2060008201527f2200000000000000000000000000000000000000000000000000000000000000602082015250565b6000616087602183615931565b91506160928261602b565b602182019050919050565b7f7b2274726169745f74797065223a202246656574222c202276616c7565223a2060008201527f2200000000000000000000000000000000000000000000000000000000000000602082015250565b60006160f9602183615931565b91506161048261609d565b602182019050919050565b7f227d000000000000000000000000000000000000000000000000000000000000600082015250565b6000616145600283615931565b91506161508261610f565b600282019050919050565b7f5d00000000000000000000000000000000000000000000000000000000000000600082015250565b6000616191600183615931565b915061619c8261615b565b600182019050919050565b7f7d00000000000000000000000000000000000000000000000000000000000000600082015250565b60006161dd600183615931565b91506161e8826161a7565b600182019050919050565b60006161fe82615cc4565b915061620982615d10565b9150616215828e615b9c565b915061622082615d5c565b915061622b82615da8565b9150616237828d615b9c565b915061624282615d5c565b915061624d82615df4565b915061625882615e40565b9150616264828c615b9c565b915061626f82615d5c565b915061627a82615eb2565b9150616286828b615b9c565b915061629182615efe565b915061629d828a615b9c565b91506162a882615f4a565b91506162b382615f96565b91506162be82616008565b91506162ca8289615b9c565b91506162d582615efe565b91506162e18288615b9c565b91506162ec82615f4a565b91506162f782615f96565b91506163028261607a565b915061630e8287615b9c565b915061631982615efe565b91506163258286615b9c565b915061633082615f4a565b915061633b82615f96565b9150616346826160ec565b91506163528285615b9c565b915061635d82615efe565b91506163698284615b9c565b915061637482615f4a565b915061637f82616138565b915061638a82616184565b9150616395826161d0565b91508190509c9b505050505050505050505050565b7f646174613a6170706c69636174696f6e2f6a736f6e3b6261736536342c000000600082015250565b60006163e0601d83615931565b91506163eb826163aa565b601d82019050919050565b6000616401826163d3565b915061640d8284615b9c565b915081905092915050565b600081519050919050565b600082825260208201905092915050565b600061643f82616418565b6164498185616423565b9350616459818560208601614a4d565b61646281614a77565b840191505092915050565b60006080820190506164826000830187614b78565b61648f6020830186614b78565b61649c6040830185614c0e565b81810360608301526164ae8184616434565b905095945050505050565b6000815190506164c8816149a2565b92915050565b6000602082840312156164e4576164e361496c565b5b60006164f2848285016164b9565b91505092915050565b7f3c747370616e2066696c6c3d2200000000000000000000000000000000000000600082015250565b6000616531600d83615931565b915061653c826164fb565b600d82019050919050565b7f223e000000000000000000000000000000000000000000000000000000000000600082015250565b600061657d600283615931565b915061658882616547565b600282019050919050565b7f3c2f747370616e3e000000000000000000000000000000000000000000000000600082015250565b60006165c9600883615931565b91506165d482616593565b600882019050919050565b60006165ea82616524565b91506165f68285615b9c565b915061660182616570565b915061660d8284615b9c565b9150616618826165bc565b91508190509392505050565b7f3c747370616e2064793d2232302220783d22313730222066696c6c3d22000000600082015250565b600061665a601d83615931565b915061666582616624565b601d82019050919050565b600061667b8261664d565b91506166878285615b9c565b915061669282616570565b915061669e8284615b9c565b91506166a9826165bc565b91508190509392505050565b7f3c747370616e2064793d2232352220783d22313730222066696c6c3d22000000600082015250565b60006166eb601d83615931565b91506166f6826166b5565b601d82019050919050565b600061670c826166de565b91506167188285615b9c565b915061672382616570565b915061672f8284615b9c565b915061673a826165bc565b91508190509392505050565b600061675182614ae3565b915061675c83614ae3565b9250828203905081811115616774576167736152bb565b5b92915050565b6000819050919050565b6000819050919050565b61679f61679a8261677a565b616784565b82525050565b6000819050919050565b6167c06167bb82614ae3565b6167a5565b82525050565b60006167d2828561678e565b6020820191506167e282846167af565b602082019150819050939250505056fe4142434445464748494a4b4c4d4e4f505152535455565758595a6162636465666768696a6b6c6d6e6f707172737475767778797a303132333435363738392b2f466c61707079204f776c206973206173636969206172742066756c6c79206f6e636861696e206e66747320757365204552433732314120626173656420666f72206761736c657373207472616e73616374696f6e2c20756e697175656c792067656e65726174656420616e642073746f726564206f6e2074686520626c6f636b636861696e20666f72657665722c204e6f2049504653206f722065787465726e616c2073746f726167652ea26469706673582212205cb3c3d65d02e02d5e46536e3ecd26b1633925848ed9a8e0109f08980728245b64736f6c63430008110033",
  "linkReferences": {},
  "deployedLinkReferences": {}
}